:020000040800F2
:100000001810002039020008D1290008CD2300086B
:10001000CD29000831040008112D0008000000005F
:10002000000000000000000000000000D52A0008C9
:100030003504000800000000D5290008D92A00086E
:10004000530200085302000853020008530200083C
:10005000530200085302000853020008530200082C
:10006000530200085302000853020008530200081C
:10007000530200085302000853020008530200080C
:100080005302000853020008530200080000000059
:100090000000000000000000000000005302000803
:1000A00053020008530200085302000853020008DC
:1000B000F12A000853020008530200085302000806
:1000C000530200085302000853020008D92900080F
:1000D00053020008F92C0008052D0008000000005C
:1000E00053020008530200085302000800000000F9
:1000F00000000000000000000000000053020008A3
:1001000000000000530200085302000853020008D8
:1001100000000000000000000000000000000000DF
:10012000530200085302000853020008530200085B
:100130005302000800000000000000000000000062
:100140000000000000000000000000005302000852
:10015000530200085302000853020008530200082B
:1001600053020008530200080000000000000000D5
:10017000000000000000000000000000000000007F
:100180000000000053020008000000000000000012
:10019000530200085302000800F002F800F03CF897
:1001A0000AA090E8000C82448344AAF10107DA45D2
:1001B00001D100F031F8AFF2090EBAE80F0013F0E8
:1001C000010F18BFFB1A43F001031847482E000027
:1001D000682E0000103A24BF78C878C1FAD85207B8
:1001E00024BF30C830C144BF04680C6070470000B1
:1001F0000023002400250026103A28BF78C1FBD830
:10020000520728BF30C148BF0B6070471FB502F0CE
:10021000E7FE1FBD10B510BD00F0D0F81146FFF786
:10022000F5FF02F077FD00F0EEF803B4FFF7F2FF00
:1002300003BC00F0F5F80000094880470948004772
:10024000FEE7FEE7FEE7FEE7FEE7FEE7FEE7FEE786
:10025000FEE7FEE704480549054A064B70470000E3
:10026000DD2A000899010008180A00201810002053
:10027000180C0020180C002053EA020C00F06980D2
:100280002DE9F04B4FF00006002B1FBFB3FA83F5AA
:1002900003FA05F424FA05F65E4012BF1643B2FADB
:1002A00082F502FA05F4C5F120051EBF22FA05FC0D
:1002B00044EA0C04203556EA044C4FEA144418BFB3
:1002C000641C4FF000084FF00009904271EB030CE2
:1002D00039D3002919BFB1FA81F701FA07F6B0FA4C
:1002E00080F700FA07F6C7F120071EBF20FA07FCC7
:1002F00046EA0C062037B6FBF4FCA7EB0507103FD7
:1003000007F01F0BCBF120062CFA06F60CFA0BFBBC
:1003100044BFB3460026202FA4BF5E464FF0000B1B
:100320005BEA060C08BF4FF0010B19EB0B0948EB19
:100330000608ABFB027C06FB02CC0BFB03CCC01B0C
:1003400071EB0C01C1E70B46024641464846BDE849
:10035000F08B13B5084318BF4FF0FF300146AFF3E1
:100360000080BDE81C4070474FF0000200B5134606
:1003700094469646203922BFA0E80C50A0E80C50C5
:10038000B1F12001BFF4F7AF090728BFA0E80C5076
:1003900048BF0CC05DF804EB890028BF40F8042B6F
:1003A00008BF704748BF20F8022B11F0804F18BFDC
:1003B00000F8012B7047704770477047754600F092
:1003C0002BF8AE4605006946534620F007008546E7
:1003D00018B020B5FFF73EFFBDE820404FF0000603
:1003E0004FF000074FF000084FF0000BAC46ACE8B0
:1003F000C009ACE8C009ACE8C009ACE8C00921F00C
:1004000007018D46704710B50446AFF300802046C3
:10041000BDE81040FFF709BF0048704710000020FA
:1004200001491820ABBEFEE726000200704700001D
:10043000FEE700007047000070B5866D044600F0CE
:100440002FF994F83510022928D105462068216C2F
:10045000026822F016020260426922F080024261C4
:1004600009B9A16C19B1016821F0080101600168A6
:1004700021F00101016000BF20680068C00715D0AD
:1004800000F00EF9401B0628F6D3202060650320FB
:1004900084F83500002184F8341070BD8020606538
:1004A0000120002184F8341070BD00BFE06D3F21B1
:1004B00001FA00F0B060012084F83500002000212E
:1004C00084F8341070BD000090F83510022909D16D
:1004D000052180F835100068016821F001010160F4
:1004E0000020704780214165012070472DE9F04FC1
:1004F00082B000F13E4241F2000502F1FF77C4F202
:100500000205072243F6004E4FEAB726A84208BF6D
:100510000422C4F2010E042E38BF4FEAB72201258F
:10052000002600274FF00008009208E008F10108BB
:100530000437B8F1100F06F1020600F0A7800C682E
:1005400005FA08F914EA090FF0D0D1F804B0032233
:100550000BF0030CACF10104B240012C6FEA020A6B
:1005600010D88268CC6802EA0A02B4402243826052
:100570004268CBF3001422EA090204FA08F4224389
:10058000426005E0BCF1030F02D14FF0030C20E004
:10059000C2688C6802EA0A02B4402243BCF1020F2E
:1005A000C26016D16FF0030202EA58020244D2F888
:1005B00020C007F01C050F230C69AB402CEA030395
:1005C00004FA05F52B431362D1F804B001250BF0B2
:1005D000030C02680CFA06F302EA0A021A431BF43F
:1005E000403F0260A2D0002243F644030192C4F2CD
:1005F00002031A684FF6084C42F480421A601A68E7
:10060000CFF6FF7C02F480420192019A28F00302A7
:10061000724452F80C3007F00C050F24AC40A34391
:10062000009C04FA05F52B4342F80C30DEF8082054
:100630004B6842EA090543F60C4CDC0258BF22EA3B
:100640000905CEF80850C4F2010CDCF800209C0229
:1006500042EA090558BF22EA0905CCF80050DEF845
:1006600004209C0342EA090558BF22EA0905CEF896
:100670000450DEF80020DB0342EA090558BF22EAF5
:100680000905CEF80050012550E700BF02B0BDE8D3
:10069000F08F0000002A08BF090481617047000044
:1006A00040F24020C2F200000068704740F20000B3
:1006B00040F24021C2F20000C2F2000100780A6854
:1006C000104408607047000080B543F60040C4F253
:1006D0000200016841F400710160016841F4806129
:1006E0000160016841F480710160032000F088F826
:1006F0000F2000F005F800F027F8002080BD000072
:1007000070B540F20006C2F2000640F208013278ED
:10071000C2F200014FF47A730968B3FBF2F20446A7
:10072000B1FBF2F1084600F09DFD0F2C4FF00105E2
:1007300008D838B94FF0FF3021460022002500F0DC
:1007400033F87460284670BD82B0002043F6400143
:100750000190C4F202014A6842F480424A604A6849
:1007600002F480420192019A0090086840F08050A3
:100770000860086800F080500090009802B0704750
:10078000002848BF7047C1B200F01F00012202FAE2
:1007900000F04EF20012CEF2000242EAD10121F046
:1007A000030108607047000010B54EF60C5CCEF2F5
:1007B000000CDCF80030C3F3022E8EF00704042C8A
:1007C00028BF0424BEF103034FF0FF3E0EFA04F4E9
:1007D00038BF0023A14399400EFA03F39A43114313
:1007E00000F00F0200F160430901043A03F564438D
:1007F0006244002848BF02F10C03197010BD0000CC
:100800004EF60C51CEF200010A684FF6FF031A4073
:1008100060F30A2242F0806040F0FD70086070478B
:100820002DE9F041002800F08B8043F60808C4F25F
:1008300002080446D8F8F8030D4600F00700884285
:1008400007D288F8F853D8F8F80300F00700A84258
:1008500076D12068810717D5410705D5D8F8001053
:1008600041F4E051C8F80010010705D5D8F8001090
:1008700041F46041C8F80010D8F80010A26821F0D7
:10088000F0011143C8F80010C0073FD1D8F8F803B1
:1008900000F00700A84207D988F8F853D8F8F80301
:1008A00000F00700A8424BD12068410707D5D8F8CF
:1008B0000010E26821F4E0511143C8F8001000076D
:1008C00008D5D8F80000216920F4604040EAC10052
:1008D000C8F8000000F07CF8D8F8001042F6FA7270
:1008E000C1F30311C0F60002515C40F2080220FA85
:1008F00001F140F20400C2F200000068C2F20002FE
:100900001160FFF7FDFE0020BDE8F0816068811EE8
:10091000022907D258F8081C89015CBF0120BDE8F4
:10092000F08111E0012807D158F8081C89035CBF49
:100930000120BDE8F08107E058F8081C890703D4BE
:100940000120BDE8F08100BFD8F8001021F00301BC
:100950000843C8F80000FFF7A3FE064641F28837B7
:10096000D8F80000616800F00C00B0EB810F8DD06A
:10097000FFF796FE801BB842F2D90320BDE8F08154
:1009800040F2080043F60801C2F20000C4F202017E
:100990000068096843F20A02C1F38221C0F600022E
:1009A000515CC8407047000040F2080043F608015F
:1009B000C2F20000C4F202010068096843F20A02B0
:1009C000C1F34231C0F60002515CC84070470000DC
:1009D00010B543F60404C4F20204606800F00C0091
:1009E00008280BD0042819BF42F20040C0F2F400DE
:1009F00047F64000C0F27D1010BD00BF206821689E
:100A00002368490247F64001C0F27D1100F03F0221
:100A1000C3F388105CBF42F20041C0F2F401A1FBB5
:100A200000010023FFF728FC21680222C1F30141E5
:100A300002EB4101B0FBF1F010BD00002DE9F041E7
:100A400082B0002868D00446007843F60006C0074C
:100A5000C4F202060BD0B06800F00C00042840F08D
:100A60009F803068800302D56068002854D02078C9
:100A700080071AD5B06810F00C0F09D0B06800F0EC
:100A80000C00082840F0A6807068400200F1A280A7
:100A90003068800702D5E06801283DD130682169BF
:100AA00020F0F80040EAC10030602078000737D419
:100AB000207840074CD4A56955B3B06800F00C000D
:100AC000082840F0BB80012D26D07068E16900F451
:100AD00080028A4220D1216A00F03F028A421BD163
:100AE00047F6C071626A0140B1EB821F14D1A16A5E
:100AF0004FF6FF73C903994300F44032A1F58031EA
:100B00008A4209D1E16A00F07060B0EB016F03D155
:100B1000002002B0BDE8F081012002B0BDE8F08104
:100B20006069002840F20000C4F2472076D001211D
:100B3000C0F8801EFFF7B4FD054600BF706F800748
:100B4000B6D4FFF7ADFD401B0228F7D9DDE000BFAA
:100B5000306C10F080580AD100200190306C40F0C9
:100B600080503064306C00F080500190019847F262
:100B70000007C4F200073868C00541D4386840F463
:100B800080703860FFF78CFD054600BF3868C005EF
:100B900036D4FFF785FD401B0228F7D9B5E000BF2A
:100BA000B06800F00C00082803D1706840023FF5DF
:100BB00058AF6068B0F5803F07D0B0F5A02F40F087
:100BC0008D80306840F480203060306840F48030A0
:100BD00030608DE0E068002852D00020C4F2472049
:100BE00001210160FFF75CFD054600BF306880070A
:100BF0003FF554AFFFF754FD401B0228F6D984E0BF
:100C0000A068012805D005284ED1306F40F00400BF
:100C10003067306F40F0010030674FE00021C0F8CE
:100C2000801EFFF73DFD0546706F80077FF540AFE2
:100C3000FFF736FD401B0228F6D966E00027C4F214
:100C4000472700203866FFF72BFD022D05460BD104
:100C5000306880015ED5FFF723FD401B02284FF06E
:100C60000300F5D955E700BF306880017FF550AF2C
:100C7000FFF716FD401B02284FF00300F4D948E7A8
:100C80000020C4F2472000210160FFF709FD05465E
:100C9000306880077FF509AFFFF702FD401B02288F
:100CA0004FF00300F4D934E7316F002821F001013F
:100CB0003167316F21F0040131674DD0FFF7F0FC4F
:100CC000054641F2883700BF306F800756D4FFF7E2
:100CD000E7FC401BB842F7D917E000BF3168002895
:100CE00021F480313160316821F4802131604FD0AE
:100CF000FFF7D6FC054600BF306880033FF5B7AE6E
:100D0000FFF7CEFC401B6428F6D9032002B0BDE8F3
:100D1000F08100BF04F11C052FCD084340EA82108A
:100D2000D9034FF6FF729143A1F5803140EA056087
:100D30000843706001203866FFF7B2FC044600BF2C
:100D4000306880013FF5E4AEFFF7AAFC001B0228E3
:100D50004FF00300F4D9DCE6FFF7A2FC054641F2B0
:100D6000883700BF306F800708D5FFF799FC401B1C
:100D7000B8424FF00300F5D9CBE600BFB8F1000F41
:100D80007FF499AE306C20F08050306493E600BF61
:100D9000FFF786FC054600BF306880037FF567AE2D
:100DA000FFF77EFC401B64284FF00300F4D9B0E647
:100DB00070470000B0B582B00446006841688268A0
:100DC00012F0400305D112F0010518BF11F04005E3
:100DD00012D1950708D511F0800505D0616C204629
:100DE00002B0BDE8B040084712F4B07F18BF11F060
:100DF000200507D102B0B0BD216C204602B0BDE88D
:100E0000B0400847BBB194F85130032B08D1002102
:100E10000191C168019180680190019802B0B0BD54
:100E2000636D43F00403636500230193C36801937A
:100E300083680193019B12F0200302F4807203D1B6
:100E40008AB9626DDAB9D5E7636D43F00103636572
:100E50000023019383680193036823F04003036038
:100E6000019B002AEDD0626D42F00802626500220B
:100E7000019282680192019A626D002ABAD042689A
:100E8000890722F0E00242604FF0010284F851200D
:100E900020D0416842F6E51521F003014160E06C85
:100EA000C0F6000538B10565FFF70EFB18B1606D9F
:100EB00040F040006065A06C00289BD00565FFF7FE
:100EC00003FB00283FF496AF606D40F04000606582
:100ED00002B0B0BD204602B0BDE8B040FFF768BF29
:100EE00070B538B10446406A30B10020206104F189
:100EF000140007E0012070BD6068B0F5827F03D068
:100F000004F11C00002101600026A66294F8510043
:100F100020B9204684F8506000F03CF8022084F8A4
:100F2000510094E80F0001F48271056802F4044254
:100F300025F040050560114403F400622369114463
:100F400003F002026369114403F00102A369E56939
:100F5000114403F40072114405F03802256A11446B
:100F600005F08002A56A114305F4005211430160A7
:100F7000626A042101EA134102F010021144416047
:100F8000C16921F40061C1610120666584F85100E6
:100F9000304670BD80B586B0016843F20000C4F2EF
:100FA0000100814202D006B080BD00BF002143F69F
:100FB00030020191C4F20202536900F5504043F43B
:100FC00080535361536903F480530193019B019152
:100FD000136843F001031360126802F001020192EA
:100FE000019AA02201920222CDE90221032104915B
:100FF0000521059101A9FFF779FA2320002100229C
:10100000FFF7D2FB2320FFF7BBFB06B080BD00003B
:101010002DE9F04383B0044690F85000012803D135
:10102000022003B0BDE8F0834FF001091D461646CB
:101030000F4684F85090FFF733FB94F851100129C4
:1010400044D18046002F4FF0010018BF002E00F061
:10105000D6800320002184F8510061652763A686AD
:10106000E686A163A187E187A0682164B0F5004FFF
:101070002068616407D1016821F0400101600168C6
:1010800041F4804101600168490603D4016841F0E0
:10109000400101606168731EE268B1FA81F1B3FA40
:1010A00083F349095B09B2F5006F41EA03013DD1C1
:1010B00031B137F8021BC1602763E08E0138E0864A
:1010C000E08E00286CD0681C0DD11EE0022096E056
:1010D000216B31F8022BC2602163E08E0138E0867B
:1010E000E08E00285CD0206881688907F0D4FFF783
:1010F000D7FAA0EB0800A842F2D303207FE000BF9C
:10110000FFF7CEFAE08E00284AD020688168890770
:10111000F6D5216B31F8022BC2602163E08E0138D5
:10112000E086E08E0028F0D13AE000BF39B139788E
:101130000173206B01302063E08E0138E086E08E81
:1011400070B3681C0BD11BE0216B09780173206B15
:1011500001302063E08E0138E086E08E00B3206825
:1011600081688907F0D4FFF79BFAA0EB0800A8423A
:10117000F3D3032043E000BFFFF792FAE08E78B18B
:10118000206881688907F7D5216B09780173206B86
:1011900001302063E08E0138E086E08E0028EFD138
:1011A00040F20800C2F20000006849F68171C1F205
:1011B0005E61A0FB0101480D4FF47A714843029033
:1011C0006068B0F5827F23D1204680212A464346BD
:1011D00001F00EFC28B1606D40F020006065202019
:1011E0006065A06838B9002001902068C16801914D
:1011F000806801900198606D002818BF01200021CF
:1012000084F8519084F8501003B0BDE8F08300BF1B
:1012100002980028E5D00298013802902068806882
:101220000006DED502980028DBD002980138029033
:10123000206880680006D4D502980028D1D0029892
:1012400001380290206880680006CAD502980028FC
:10125000C7D0029801380290206880680006D7D471
:10126000BFE70000411E0020B0EB116F1CBF012042
:1012700070474EF21002CEF2000251604EF623513A
:10128000CEF20001F0230B700721906011607047CF
:10129000704700007047000010B590F83C20012A0C
:1012A0004FF002023ED080F83D200268D2F804E000
:1012B000D2F808C00C682EF07003234340F6FF34C8
:1012C000C4F20004A242536010DCB2F1804F1ED081
:1012D00040F20043C4F200039A4218D040F60003E3
:1012E000C4F200039A4212D016E000BF40F6004359
:1012F000C4F200039A420AD044F20003C4F201038C
:101300009A4204D00023C4F201039A4204D14968EE
:101310002CF08003194391600121002280F83D10D8
:1013200080F83C20104610BD002804BF0120704703
:1013300010B5044690F83D0028B9002084F83C0020
:10134000204600F08FF8022084F83D00206840F22B
:10135000FF730268C4F2000340F2000C9842C4F22A
:10136000010C1DDD40F60001C4F20001884220D0CE
:1013700060451ED040F60041C4F20001884218D0FA
:101380004FF6FF71C4F2000188421CDC984225DC54
:10139000B0F1804F3AD040F20041C4F2000133E096
:1013A000B0F1804F05D040F20041C4F20001884204
:1013B000E6D1A16822F070020A434FF6FF71C4F231
:1013C00000018842E2DD44F2FF31C4F201018842AB
:1013D00010DC60451AD044F2000113E040F6000131
:1013E000C4F20001884211D040F60041C4F200016D
:1013F0000AE000BF44F60001C4F20101884205D0B2
:1014000044F20041C4F20101884203D1216922F46F
:1014100040720A43A36922F08001D4F804E0E26834
:10142000194360450160C262C0F828E002D16169D9
:10143000CCF8301001214161002084F8461084F876
:101440003E1084F83F1084F8401084F8411084F86E
:10145000421084F8431084F8441084F8451084F84E
:101460003D1010BD80B582B00068B0F1804F1CBF48
:1014700002B080BD0020019043F64000C4F202009B
:101480000168002241F0010101600068002100F0C4
:101490000100019001981C20FFF786F91C2002B082
:1014A000BDE88040FFF76CB990F83D1001291CBFE2
:1014B00001207047022180F83D10006840F6FF329D
:1014C000C168C4F20002904241F00101C1600FDC2A
:1014D000B0F1804F1DD040F20041C4F200018842BB
:1014E00017D040F60001C4F20001884211D017E085
:1014F00040F60041C4F2000188420AD044F20001E3
:10150000C4F20101884204D00021C4F201018842E2
:1015100006D1816801F00701062904BF0020704749
:10152000016841F0010101600020704780B590F82A
:101530003C20012A4FF0020200F0C28080F83D20DA
:10154000D0F800C04FF67772DCF8083023EA0202C8
:10155000CCF808200B684F2B28DC1F2B44DD202BF8
:1015600045D0302B43D0402B40F0AC80D1F804E084
:10157000C968DCF82030DCF8202022F00102CCF829
:101580002020DCF8182022F0F00242EA011123F0BA
:101590000A0242EA0E02CCF81810CCF82020DCF83F
:1015A000081041F0470121F0300180E06F2B27DD6A
:1015B000B3F5005F48D0B3F5805F7AD0702B40F070
:1015C0008180D1E901E3C968DCF8082043EA0E0311
:1015D00022F47F4243EA01211143CCF80810DCF8E1
:1015E000081041F0770162E00BB1102B6AD1DCF8F2
:1015F000081021F07001194341F0070157E000BFC6
:10160000502B35D0602B5DD1D1F804E0C968DCF8EF
:10161000203023F01003CCF82030DCF81830DCF850
:10162000202023F4704322F0A00243EA013142EA71
:101630000E12CCF81810CCF82020DCF8081041F07D
:10164000670121F0100132E0D1E901E3C968DCF85B
:10165000082043EA0E0322F47F4243EA01211143AA
:10166000CCF80810DCF8081041F480411FE000BFFE
:10167000D1F804E0C968DCF82030DCF8202022F042
:101680000102CCF82020DCF8182022F0F00242EA17
:10169000011123F00A0242EA0E02CCF81810CCF82D
:1016A0002020DCF8081041F0570121F02001CCF88F
:1016B00008100022012180F83D10002180F83C1024
:1016C000104680BD0122F5E77047000010B50168A3
:1016D00004460869800744BFC8685FEA807039D44F
:1016E0000869400744BFC8685FEA40703ED4086993
:1016F000000744BFC8685FEA007045D40869C006A7
:1017000044BFC8685FEAC0604AD40869C0071CBF0C
:10171000C8685FEAC07051D10869000644BFC86854
:101720005FEA006052D40869400644BFC8685FEAB7
:10173000406053D40869800646BFC8685FEA80608D
:1017400010BD6FF0200220460A61BDE81040FFF78F
:10175000A1BD00BF6FF002000861012020778869F9
:10176000800743D02046FFF7AFFF45E06FF004004D
:10177000086102202077886910F4407F40D020461D
:10178000FFF7A2FF42E000BF6FF0080008610420ED
:101790002077C86980073DD02046FFF795FF3FE0DE
:1017A0006FF01000086108202077C86910F4407FAE
:1017B0003AD02046FFF788FF3CE000BF6FF0010001
:1017C0000861204600F03EF82168A5E76FF0800030
:1017D00008612046FFF75CFD2168A4E76FF0400038
:1017E0000861204600F0DAF92168A3E7204600F0FE
:1017F00025F8204600F024F82168002020776FE7C4
:10180000204600F01BF8204600F01AF8216800205E
:1018100020776CE7204600F011F8204600F010F821
:1018200021680020207769E7204600F007F820466D
:1018300000F006F821680020207766E77047000076
:10184000704700002DE9F04F85B00068B0F1804F7F
:1018500002D005B0BDE8F08F40F27006C2F200067B
:10186000B0690130B06100F0D5FEB0690228F0D156
:1018700040F20C0CC2F2000CDCF80000B1688842A7
:1018800000F38681B068DCF8001040F24424411A6D
:101890000129C2F2000433DB481E032801F00300D3
:1018A00018D321F0030120223368043903F1010722
:1018B0003760E254336803F101073760E25433685C
:1018C00003F101073760E254336803F10107376021
:1018D000E254E9D1A0B13268012802F1010131607E
:1018E0004FF02001A1540BD03268022802F101030D
:1018F0003360A15404D03068411C31602021215450
:10190000DCF800000128C0F2DF800DF10A0046F289
:10191000676848F21F5B44F6D35948F6AD3A811E1A
:1019200002300125C6F26668C5F2EB1BC1F26209FE
:10193000C6F6DB0A009101900CE000BF3068411C44
:10194000316020212154DCF80000854205F10105B9
:1019500080F2BA80DCF80000294601F025FB58B37C
:1019600040F20C0C03210246C2F2000C02F1090302
:10197000132B29D352FB08F39F1007EBD3730933C2
:10198000132B23D352FB0BF35F1107EBD3730933F4
:10199000132B1CD352FB09F39F1107EBD37352FB9C
:1019A0000AF21713093307EBD272132B01F104016A
:1019B000DCD203390BE000BF302140F20C0CADF853
:1019C0000A10C2F2000C5BE0023900E001390DF1AF
:1019D0000A0200235354009A114400BF50FB08F23E
:1019E000931003EBD27200F10903132B02EB820375
:1019F000A0EB430303F130034B703CD352FB08F3DD
:101A00009F0807EBD37303EB8303A2EB4303093275
:101A10003033132A0B702ED350FB0BF2531103EB10
:101A2000D27252FB08F39F0807EBD37303EB8303D7
:101A3000A2EB430309323033132A01F8013C1AD3D5
:101A400050FB09F2931103EBD27252FB08F39F088B
:101A500007EBD37303EB8303A2EB4303303350FB59
:101A60000AF001F8023C0313093203EBD070122A8A
:101A7000A1F10401B2D89DF80A1000293FF45EAF2D
:101A8000019800BF33685A1C326010F8012CE154F1
:101A9000002A3FF453AF3368591C31600178E25497
:101AA00000293FF44BAF33685A1C32604278E1544E
:101AB000002A3FF443AF3368591C31608178043009
:101AC0000029E254DED139E730684FF00D08411C9F
:101AD000316004F8008030680A27411C31602754C7
:101AE000306806F1300582B22846214600F044FCF9
:101AF00040F20C03C2F200031868411C1960B1687F
:101B0000884245DB3068411C316004F80080306851
:101B1000411C3160275430681F46411C316045210B
:101B200021543068411C31606E2121543068411CC1
:101B30003160742121543068411C31606521215489
:101B40003068411C3160722121543068411C316081
:101B5000202121543068421C32604E2222543068C9
:101B6000421C32603A2222543068421C32602154B6
:101B70003068214682B2284600F0FEFB06F11C01C7
:101B800028460122012400F057FB00203C60B06091
:101B90000020B06105B0BDE8F08F00007047000084
:101BA0007047000070470000B0B582B0044600687E
:101BB0000168C368426901F02F05202D03F020055C
:101BC00006D12DB1204602B0BDE8B04000F09CBF68
:101BD0005FEA017C1EBF02F0010E03F4907212EB6B
:101BE0000E0253D1226B012A05D111F0100218BF49
:101BF00013F0100236D10A0622D513F080021FD04E
:101C000094F83D1021293FD1A168B1F5805F03D13F
:101C10002169002900F07282216A4A1C2262097837
:101C20004160E18C01390A04E1842DD1C16821F0C1
:101C30008001C160C16841F04001C16002B0B0BD27
:101C4000490621D513F040011ED0C16821F04001A2
:101C5000C1602021204684F83D1002B0BDE8B040AC
:101C600000F0ACBB00210191016801914168019134
:101C700001994069400613D4A08DE18DE28D002AC0
:101C800018BF884240F0BE8102B0B0BDCA0718BF7D
:101C900013F4807240F0BA804A0700F1BD80C2E0C0
:101CA000A16B0868426893B2002BEDD0A08D8342EF
:101CB000EAD2E285C969B1F5807F00F09D80206895
:101CC00050E8030F216820F4807041E80302DAB184
:101CD000206850E8030F216820F4807041E8030277
:101CE00092B1206850E8030F216820F4807041E829
:101CF00003024AB1206850E8030F216820F4807085
:101D000041E80302002ADAD1206850E8050F216873
:101D100020F0010041E80502DAB1206850E8050F23
:101D2000216820F0010041E8050292B1206850E8E6
:101D3000050F216820F0010041E805024AB1206842
:101D400050E8050F216820F0010041E80502002A53
:101D5000DAD1206850E8050F216820F0400041E802
:101D60000502DAB1206850E8050F216820F0400034
:101D700041E8050292B1206850E8050F216820F083
:101D8000400041E805024AB1206850E8050F21688B
:101D900020F0400041E80502002ADAD1202084F832
:101DA0003E0000202063206850E8030F216820F0E7
:101DB000100041E80302DAB1206850E8030F2168FF
:101DC00020F0100041E8030292B1206850E8030FB0
:101DD000216820F0100041E803024AB1206850E871
:101DE000030F216820F0100041E80302002ADAD135
:101DF000A06BFEF721FBA08DE18D401A81B2204639
:101E000002B0BDE8B040FFF7CBBE00BF226C42F08D
:101E1000010222644A0706D5BEF1000F03D0226CEE
:101E200042F0020222648A0706D5BEF1000F03D0F9
:101E3000226C42F004022264BCF1000F09D545EA8D
:101E40000E02B2FA82F2520903D1226C42F0080269
:101E50002264226C002A3FF417AF11F0200118BF52
:101E6000002D03D0204600F04FFE20684069216C11
:101E700000F0400001F00801401800F0B58000BFFC
:101E8000206850E8030F216820F4907041E80302B5
:101E9000BAB3206850E8030F216820F4907041E83D
:101EA000030272B3206850E8030F216820F4907099
:101EB00041E803022AB3206850E8030F216820F4A8
:101EC000907041E80302002ADAD11AE0206850E855
:101ED000050F216820F0010041E80502DAB1206811
:101EE00050E8050F216820F0010041E8050292B199
:101EF000206850E8050F216820F0010041E8050244
:101F00004AB1206850E8050F216820F0010041E83F
:101F10000502002ADAD1206B012824D1206850E87C
:101F2000030F216820F0100041E80302DAB12068B5
:101F300050E8030F216820F0100041E8030292B13D
:101F4000206850E8030F216820F0100041E80302E8
:101F50004AB1206850E8030F216820F0100041E8E2
:101F60000302002ADAD1202084F83E0000202063FA
:101F70002068406940063FD5206850E8050F216879
:101F800020F0400041E80502DAB1206850E8050F72
:101F9000216820F0400041E8050292B1206850E835
:101FA000050F216820F0400041E805024AB1206891
:101FB00050E8050F216820F0400041E80502002AA2
:101FC000DAD1A06BC0B142F6FD21C0F60001016577
:101FD000FEF77AFA00283FF457AEA06B016D02B00D
:101FE000BDE8B040084700BF2046FFF7DBFD0020FA
:101FF000206402B0B0BD00BF204602B0BDE8B040D2
:10200000FFF7D0BD401A216851E8031F226821F470
:10201000907142E80313DBB1216851E8031F226885
:1020200021F4907142E8031393B1216851E8031F32
:10203000226821F4907142E803134BB1216851E802
:10204000031F226821F4907142E80313002BDAD1B8
:10205000216851E8051F226821F0010142E80513BB
:10206000DBB1216851E8051F226821F0010142E837
:10207000051393B1216851E8051F226821F0010181
:1020800042E805134BB1216851E8051F226821F091
:10209000010142E80513002BDAD1202184F83E101B
:1020A00000212163216851E8031F226821F01001FB
:1020B00042E80313002B3FF4A1AE216851E8031F4F
:1020C000226821F0100142E80313002B3FF496AE82
:1020D000216851E8031F226821F0100142E8031330
:1020E000002B3FF48BAE216851E8031F226821F0DA
:1020F000100142E80313002BD4D17FE6216A31F8A6
:10210000022B6FF35F22426021628AE5002804BF40
:102110000120704710B5044690F83D0028B9002012
:1021200084F83C00204600F021F8242084F83D008B
:102130002068C16821F40051C160204600F064FDB0
:102140002068016921F490410161416921F02A016F
:102150004161C16841F40051C16000202021206428
:1021600084F83D1084F83E1010BD000010B586B014
:10217000006844F20042C4F2000200219042CDE91E
:102180000411CDE90211019122D041F20001C4F203
:10219000010188424DD1002043F630010090C4F285
:1021A00002014A69252442F010024A614A6902F09C
:1021B00010020092009A0090086840F00100086048
:1021C000086800F00100009000984FF4C06019E02A
:1021D00043F630000091C4F202000269262442F462
:1021E00000320261026902F400320092009A00910A
:1021F000016841F001010160006800F001000090F9
:1022000000980C20019002200290002003900320EF
:102210000490072005900020C4F2020001A9FEF7F7
:1022200065F9204600210022FEF7BEFA2046FEF79F
:10223000A7FA06B010BD000090F83E30202B0BD15D
:1022400000294FF0010318BF002A01D1184670473A
:1022500090F83C30012B01D102207047002303632A
:10226000816222218285C285036480F83E10026962
:10227000016880F83C301AB1C86840F48070C860CA
:102280004869002340F001004861C86840F0200020
:10229000C860184670470000B0B540F27000C2F246
:1022A0000000017F42680D2932D100F12603002190
:1022B000995490F826504160002D3FD000F12A0239
:1022C000002300BF03EB830312F8034C05EB430329
:1022D000A3F130039CB303EB830312F8025C04EB1D
:1022E0004303A3F1300355B303EB830312F8014C0E
:1022F00005EB4303A3F130030CB303EB830312F8A4
:10230000045B04EB4303002DA3F13003DAD116E0A4
:10231000531C024400F1300400F11C05436082F8B4
:10232000261020462946012200F026F8204629469C
:102330000122BDE8B040FFF77FBF00BF00238360EC
:10234000826840F20C03C2F200031A60C1600268A6
:102350000D23511C016040F24421C2F200018B5454
:102360000268531C03600A238B540268303092B217
:10237000BDE8B040AFF30080034690F83D00202850
:102380000AD100294FF0010018BF002A00D1704780
:1023900093F83C00012801D1022070471962002007
:1023A00021219A84DA84186483F83D10196883F82F
:1023B0003C00CA6842F08002CA60704740F2700078
:1023C000C2F200000021016070470000FEE700003B
:1023D00070B582B0002440F60170C4F20204ADF87A
:1023E0000600204610210022FEF754F940F2E405D1
:1023F000C2F200050DF1060628463146022264238A
:10240000FEF706FE204610210122FEF743F940F6B2
:102410000270ADF80600204610210022FEF73AF9BE
:102420002846314602226423FEF7F2FD20461021A1
:102430000122FEF72FF940F60370ADF806002046A2
:1024400010210022FEF726F9284631460222642395
:10245000FEF7DEFD204610210122FEF71BF940F6B3
:102460000470ADF80600204610210022FEF712F994
:102470002846314602226423FEF7CAFD2046102179
:102480000122FEF707F940F60570ADF80600204678
:1024900010210022FEF7FEF828463146022264236E
:1024A000FEF7B6FD204610210122FEF7F3F840F6B4
:1024B0000670ADF80600204610210022FEF7EAF86B
:1024C0002846314602226423FEF7A2FD2046102151
:1024D0000122FEF7DFF840F60770ADF8060020464F
:1024E00010210022FEF7D6F8284631460222642346
:1024F000FEF78EFD204610210122FEF7CBF840F6B4
:102500000870ADF80600204610210022FEF7C2F840
:102510002846314602226423FEF77AFD2046102128
:102520000122FEF7B7F802B070BD0000B0B584B06C
:1025300000244FF48670C4F20204ADF80600204671
:1025400010210022FEF7A6F840F2E405C2F20005D1
:102550000DF10601284602226423FEF759FD2046AC
:1025600010210122FEF796F840F20B70ADF808003A
:10257000204610210022FEF78DF802A928460222EB
:102580006423FEF745FD204610210122FEF782F864
:102590004FF60970ADF80A00204610210022FEF720
:1025A00079F80DF10A01284602226423FEF730FD76
:1025B000204610210122FEF76DF80F20ADF80C0027
:1025C000204610210022FEF765F803A928460222C2
:1025D0006423FEF71DFD204610210122FEF75AF864
:1025E00040F60A70ADF80E00204610210022FEF7DA
:1025F00051F80DF10E01284602226423FEF708FD72
:10260000204610210122FEF745F8FFF7E1FE04B055
:10261000B0BD00002DE9F04F8DB040F27004C2F261
:102620000004A068002800F0CE8140F20C00C2F245
:1026300000000568E06840F2C81CC2F2000C18B146
:10264000D4E90476CDE000BF002060610F200827A8
:10265000012DCCE90000CCE90200CCE90400CCE972
:1026600006002761C0F2B68003AE06F108004CF602
:10267000CD4948F21F5B0190A6F1080008274FF0F2
:10268000010ACCF6CC49C5F2EB1B42F2107800905F
:1026900002950EE0A4460F204CF8270040F270008F
:1026A0000137C2F20000AA450AF1010A076100F0F1
:1026B000918028465146644600F076FC0128E9DB0B
:1026C000019AB6460021A446A0FB0936F30803EBA5
:1026D0008306A0EB46060A2842F8086C36D3A3FB13
:1026E0000964E60806EB8606A3EB4603642842F875
:1026F000043C2DD3A0FB0B367309A3FB0964E60849
:1027000006EB8606A3EB4603B0F57A7F136021D370
:1027100044F6D353C1F26203A0FB033641F259756C
:10272000B309CDF2B715A3FB0964A0FB0565E60864
:1027300006EB8606A3EB46035360043140454FEA9F
:10274000553002F11002BFD205E000BF013102E0B6
:10275000023100E00331481E11F003040B463A46F3
:10276000764608D056F82020012C4CF8272007F197
:10277000010205D1034603280F4415D2029D8AE7C2
:102780008B1E354656F82360022C4CF8226007F168
:10279000020205D0CB1E55F823604CF82260FA1CCB
:1027A0002E4603280F44E9D300990CEB8200103821
:1027B00001EB8301BA1A00BF51E9023671E8044502
:1027C000043A40F8105FC0E90146C360F4D1029DAD
:1027D000764660E740F270040120C2F20004E06037
:1027E00000260025BE42A8BF2E465CF8260040F217
:1027F000000B0121C4F2020B8DF80C108DF80D00B6
:102800005846102100226746FDF744FF40F2E409D4
:10281000C2F200090DF10C08484641460222642329
:102820004FF0020AFEF7F4FB584610210122FDF793
:1028300031FF206901368642A8BF2E4657F8260090
:1028400010218DF80D00584600228DF80CA0FDF7E0
:1028500021FF4846414602226423FEF7D9FB584631
:1028600010210122FDF716FF206901368642A8BF1C
:102870002E4657F8260003218DF80C108DF80D0018
:10288000584610210022FDF705FF48464146022226
:102890006423FEF7BDFB584610210122FDF7FAFE26
:1028A000206901368642A8BF2E4657F8260004212B
:1028B0008DF80C108DF80D00584610210022FDF700
:1028C000E9FE4846414602226423FEF7A1FB584632
:1028D00010210122FDF7DEFE206901368642A8BFE5
:1028E0002E4657F8260005218DF80C108DF80D00A6
:1028F000584610210022FDF7CDFE484641460222EF
:102900006423FEF785FB584610210122FDF7C2FE25
:10291000206901368642A8BF2E4657F826000621B8
:102920008DF80C108DF80D00584610210022FDF78F
:10293000B1FE4846414602226423FEF769FB584631
:1029400010210122FDF7A6FE206901368642A8BFAC
:102950002E4657F8260007218DF80C108DF80D0033
:10296000584610210022FDF795FE484641460222B6
:102970006423FEF74DFB584610210122FDF78AFE25
:102980002069711C8142A8BF294657F821000821FF
:102990008DF80C108DF80D00584610210022FDF71F
:1029A00079FE4846414602226423FEF731FB584631
:1029B00010210122FDF76EFED4E904100130884297
:1029C000B8BF054665610DB0BDE8F08FFEE70000B9
:1029D000FEE700007047000040F2E400C2F2000091
:1029E000FEF7E8B9806B0021C187C186FEF7E0B928
:1029F0002DE9F04182B01E4690460D460446FDF793
:102A00004FFE301A00EB0807FDF74AFE40F20801BE
:102A1000C2F200010968C1F3CB3179430191216809
:102A20008A682A40AA4227D1064618F101001FD021
:102A3000FDF736FE801BB84222D20198019900288A
:102A4000A1F1010101912168896808BF074601EAE7
:102A50000500A842ECD00FE088682840A8420BD1BE
:102A600088682840A84207D188682840A84203D136
:102A700088682840A842EFD0002002B0BDE8F0816D
:102A8000D4E900014268B1F5827F22F0E0024260A1
:102A90000AD1A168B1F5004F02D0B1F5806F03D122
:102AA000016821F040010160A16AB1F5005F07D122
:102AB000016821F400510160016841F40051016096
:102AC000012084F85100002084F85000032002B057
:102AD000BDE8F08170470000FDF7E8BD4EF6885074
:102AE000CEF20000016841F47001016070470000FF
:102AF00040F23C10C2F20000FEF7E8BD806B0021FE
:102B0000C185C184FFF74EB881B090F83E102229EC
:102B100021D183680246B3F5805F09D152F8281F9E
:102B200052F8183C002B63D003685B680AE000BFD2
:102B300052F8281F13B90369002BF5D003685B68AE
:102B400003F07F030B70116801311160C18D0139F1
:102B50000A04C18502D001B0704700BF0168CA688D
:102B600022F02002CA60CA6822F48072CA604A69F0
:102B700022F001024A61202180F83E10016B0129F8
:102B80003ED10021016300BF016851E8031F0268C4
:102B900021F0100142E80313DBB1016851E8031F83
:102BA000026821F0100142E8031393B1016851E873
:102BB000031F026821F0100142E803134BB10168C2
:102BC00051E8031F026821F0100142E80313002BB3
:102BD000DAD101680A68D20606D5002200920A6896
:102BE0000092496800910099818D01B0FEF7D8BF2D
:102BF000026852686FF35F2221F8022B8162A5E719
:102C000001B0FFF749BB000010B504460068D4E9E5
:102C100002C22369016921F44051114301616269D3
:102C200043EA0C01E3691143C268194349F20C639A
:102C30009A431143C1604169A26921F4407141F294
:102C40000043114340F48062C4F201039A4241619F
:102C500002D1FDF7A9FE01E0FDF792FEE16963688C
:102C60001922B1F5004FA0FB020123D15A00DB0F5E
:102C7000FDF702FB48F21F51C5F2EB11A0FB012347
:102C80005A094FF69C73C0F6FF7303F1805302FBA1
:102C90000300322303EBC000A0FB01014FF4F870E6
:102CA00000EA111000EB0210C1F342110844216840
:102CB000886010BD9A009B0FFDF7DEFA48F21F51A5
:102CC000C5F2EB11A0FB01235A094FF69C73C0F625
:102CD000FF7302FB0300322303EB0010A0FB010192
:102CE000F02000EA511000EB0210C1F34311084438
:102CF0002168886010BD000040F2A000C2F2000010
:102D0000FEF752BF40F28410C2F20000FEF74CBF43
:102D1000FEE7000094B043F6300647F20005C4F227
:102D20000206C4F20005FDF7CFFC08AC201D2C21E3
:102D3000FDF71AFB00270697CDE90477CDE9027766
:102D40000197306940F080503061306900F0805068
:102D5000019001980197286840F440402860286855
:102D600000F44040019001980220089001200B904F
:102D700010200C9020460E97FDF760FE20B1EFF377
:102D8000108072B6FEE700BF0F20CDE9020702A84F
:102D90000021CDE904770697FDF742FD20B1EFF35E
:102DA000108072B6FEE700BF00270C9702973068CC
:102DB00005F5C83440F0800030603068102100F024
:102DC00080000290029802973068002240F00100D3
:102DD00030603068102600F0010002900298204612
:102DE000FDF758FC0120CDE9090708A920460896FF
:102DF0000B97FDF77BFB40F23C10C2F200004FF056
:102E0000804140F2F3130B97CDE90977CDE90277C2
:102E100043F67F6280E88600C0E903378761FEF7EA
:102E200083FA28B1EFF3108072B600BFFEE700BF4F
:102E30004FF48050089040F23C10C2F2000008A904
:102E4000FEF774FB20B1EFF3108072B6FEE700BF0F
:102E500040F23C10C2F2000002A9FEF71DFA28B1B0
:102E6000EFF3108072B600BFFEE700BF40F2E4004F
:102E700005F54041C2F200004FF4827200264FF483
:102E8000007380E846000A21C0E90366C0E90563D3
:102E9000C661C0E90866C0E90A61FEF721F828B1F9
:102EA000EFF3108072B600BFFEE700BF40F270047F
:102EB000C2F2000405F52041204640F8301F4FF4CF
:102EC00016570C25C0E90176C0E90366C0E905562E
:102ED000C661FFF71BF928B1EFF3108072B600BF8F
:102EE000FEE700BF40F2841044F20041C2F200004D
:102EF000C4F200010022C0E90017C0E90222C0E9C3
:102F00000425C0E90622FFF701F928B1EFF310808C
:102F100072B600BFFEE700BFFFF708FB206845223E
:102F2000411C216040F24421C2F200010A54206891
:102F30002546421C22606E220A542068421C2260F0
:102F400074220A542068421C226065220A542068B8
:102F5000421C226072220A542068421C22602022F5
:102F60000A542068431C23604E230B542068431CE2
:102F700023603A230B542068431C45F81C3B0A5439
:102F800054F8300B82B22046FFF7F6F92046294666
:102F90000122FFF751F940F23C10C2F20000FEF7A7
:102FA00083FA00BFFEE70000F0B581B005460129B5
:102FB0004FF0010012D00C468D420FD0002700BF09
:102FC0006E1E30462146FFF7EFFF611E01290744C0
:102FD00003D0A5420C463546F2D1781C01B0F0BDB5
:102FE000F1EE100A4FF6FF71C0F2C03120EA010085
:102FF00040F04070E1EE100A704700000000000051
:103000000000010203040607080900000000010295
:103010000304000038300008000000201000000009
:10302000D4010008483000081000002008100000FB
:10303000F001000800000000010000001000000086
:083040000024F400010000006F
:040000050800019955
:00000001FF
