:020000040800F2
:100000006807002039020008451800083D1800085C
:1000100041180008310400088D1900080000000094
:100020000000000000000000000000004D18000863
:1000300035040008000000004918000851180008A5
:10004000530200085302000853020008530200083C
:10005000530200085302000853020008530200082C
:10006000530200085302000853020008530200081C
:10007000530200085302000853020008530200080C
:100080005302000853020008530200080000000059
:100090000000000000000000000000005302000803
:1000A00053020008530200085302000853020008DC
:1000B0006918000875180008811800085302000824
:1000C00053020008530200085302000853020008BC
:1000D0005302000853020008530200080000000009
:1000E00053020008530200085302000800000000F9
:1000F00000000000000000000000000053020008A3
:1001000000000000530200085302000853020008D8
:1001100000000000000000000000000000000000DF
:10012000530200085302000853020008530200085B
:100130005302000800000000000000000000000062
:100140000000000000000000000000005302000852
:10015000530200085302000853020008530200082B
:1001600053020008530200080000000000000000D5
:10017000000000000000000000000000000000007F
:100180000000000053020008000000000000000012
:10019000530200085302000800F002F800F03CF897
:1001A0000AA090E8000C82448344AAF10107DA45D2
:1001B00001D100F031F8AFF2090EBAE80F0013F0E8
:1001C000010F18BFFB1A43F0010318478C1C0000F5
:1001D000AC1C0000103A24BF78C878C1FAD8520786
:1001E00024BF30C830C144BF04680C6070470000B1
:1001F0000023002400250026103A28BF78C1FBD830
:10020000520728BF30C148BF0B6070471FB501F0CF
:10021000F8FD1FBD10B510BD00F0D0F81146FFF776
:10022000F5FF01F0B5FB00F0EEF803B4FFF7F2FFC5
:1002300003BC00F0F5F80000094880470948004772
:10024000FEE7FEE7FEE7FEE7FEE7FEE7FEE7FEE786
:10025000FEE7FEE704480549054A064B70470000E3
:10026000551800089901000868010020680700205F
:10027000680300206803002053EA020C00F0698044
:100280002DE9F04B4FF00006002B1FBFB3FA83F5AA
:1002900003FA05F424FA05F65E4012BF1643B2FADB
:1002A00082F502FA05F4C5F120051EBF22FA05FC0D
:1002B00044EA0C04203556EA044C4FEA144418BFB3
:1002C000641C4FF000084FF00009904271EB030CE2
:1002D00039D3002919BFB1FA81F701FA07F6B0FA4C
:1002E00080F700FA07F6C7F120071EBF20FA07FCC7
:1002F00046EA0C062037B6FBF4FCA7EB0507103FD7
:1003000007F01F0BCBF120062CFA06F60CFA0BFBBC
:1003100044BFB3460026202FA4BF5E464FF0000B1B
:100320005BEA060C08BF4FF0010B19EB0B0948EB19
:100330000608ABFB027C06FB02CC0BFB03CCC01B0C
:1003400071EB0C01C1E70B46024641464846BDE849
:10035000F08B13B5084318BF4FF0FF300146AFF3E1
:100360000080BDE81C4070474FF0000200B5134606
:1003700094469646203922BFA0E80C50A0E80C50C5
:10038000B1F12001BFF4F7AF090728BFA0E80C5076
:1003900048BF0CC05DF804EB890028BF40F8042B6F
:1003A00008BF704748BF20F8022B11F0804F18BFDC
:1003B00000F8012B7047704770477047754600F092
:1003C0002BF8AE4605006946534620F007008546E7
:1003D00018B020B5FFF73EFFBDE820404FF0000603
:1003E0004FF000074FF000084FF0000BAC46ACE8B0
:1003F000C009ACE8C009ACE8C009ACE8C00921F00C
:1004000007018D46704710B50446AFF300802046C3
:10041000BDE81040FFF709BF0048704718000020F2
:1004200001491820ABBEFEE726000200704700001D
:10043000FEE70000704700002DE9F04F82B000F1A8
:100440003E4241F2000502F1FF77C4F202050722A5
:1004500043F6004E4FEAB726A84208BF0422C4F272
:10046000010E042E38BF4FEAB722012500260027CF
:100470004FF00008009208E008F101080437B8F1D5
:10048000100F06F1020600F0A7800C6805FA08F9C3
:1004900014EA090FF0D0D1F804B003220BF0030CDA
:1004A000ACF10104B240012C6FEA020A10D8826854
:1004B000CC6802EA0A02B440224382604268CBF36D
:1004C000001422EA090204FA08F42243426005E01B
:1004D000BCF1030F02D14FF0030C20E0C2688C681E
:1004E00002EA0A02B4402243BCF1020FC26016D1F4
:1004F0006FF0030202EA58020244D2F820C007F06B
:100500001C050F230C69AB402CEA030304FA05F524
:100510002B431362D1F804B001250BF0030C0268E1
:100520000CFA06F302EA0A021A431BF4403F026087
:10053000A2D0002243F644030192C4F202031A68D7
:100540004FF6084C42F480421A601A68CFF6FF7CDE
:1005500002F480420192019A28F00302724452F898
:100560000C3007F00C050F24AC40A343009C04FAA8
:1005700005F52B4342F80C30DEF808204B6842EAC0
:10058000090543F60C4CDC0258BF22EA0905CEF8F7
:100590000850C4F2010CDCF800209C0242EA090574
:1005A00058BF22EA0905CCF80050DEF804209C036D
:1005B00042EA090558BF22EA0905CEF80450DEF8E0
:1005C0000020DB0342EA090558BF22EA0905CEF8FC
:1005D0000050012550E700BF02B0BDE8F08F0000D9
:1005E000002A08BF090481617047000040F26010D2
:1005F000C2F200000068704740F2080040F260114B
:10060000C2F20000C2F2000100780A6810440860DB
:100610007047000080B543F60040C4F20200016854
:1006200041F400710160016841F48061016001687A
:1006300041F480710160032000F088F80F2000F081
:1006400005F800F027F8002080BD000070B540F2EA
:100650000806C2F2000640F210013278C2F2000130
:100660004FF47A730968B3FBF2F20446B1FBF2F17E
:10067000084600F01BFB0F2C4FF0010508D838B9D5
:100680004FF0FF3021460022002500F033F874605F
:10069000284670BD82B0002043F640010190C4F2AC
:1006A00002014A6842F480424A604A6802F4804289
:1006B0000192019A0090086840F080500860086834
:1006C00000F080500090009802B07047002848BFAA
:1006D0007047C1B200F01F00012202FA00F04EF292
:1006E0000012CEF2000242EAD10121F003010860BB
:1006F0007047000010B54EF60C5CCEF2000CDCF832
:100700000030C3F3022E8EF00704042C28BF04240B
:10071000BEF103034FF0FF3E0EFA04F438BF00238E
:10072000A14399400EFA03F39A43114300F00F02DC
:1007300000F160430901043A03F564436244002870
:1007400048BF02F10C03197010BD00004EF60C51A9
:10075000CEF200010A684FF6FF031A4060F30A2246
:1007600042F0806040F0FD70086070472DE9F04174
:10077000002800F08B8043F60808C4F20208044603
:10078000D8F8F8030D4600F00700884207D288F831
:10079000F853D8F8F80300F00700A84276D1206893
:1007A000810717D5410705D5D8F8001041F4E0516D
:1007B000C8F80010010705D5D8F8001041F46041D1
:1007C000C8F80010D8F80010A26821F0F001114319
:1007D000C8F80010C0073FD1D8F8F80300F00700B0
:1007E000A84207D988F8F853D8F8F80300F00700B2
:1007F000A8424BD12068410707D5D8F80010E2681D
:1008000021F4E0511143C8F80010000708D5D8F8CA
:100810000000216920F4604040EAC100C8F80000EF
:1008200000F054F8D8F8001041F61C62C1F303112F
:10083000C0F60002515C40F2100220FA01F140F2D1
:100840000C00C2F200000068C2F200021160FFF763
:10085000FDFE0020BDE8F0816068811E022907D2FC
:1008600058F8081C89015CBF0120BDE8F08111E047
:10087000012807D158F8081C89035CBF0120BDE896
:10088000F08107E058F8081C890703D40120BDE86F
:10089000F08100BFD8F8001021F003010843C8F828
:1008A0000000FFF7A3FE064641F28837D8F80000A3
:1008B000616800F00C00B0EB810F8DD0FFF796FE61
:1008C000801BB842F2D90320BDE8F08110B543F691
:1008D0000404C4F20204606800F00C0008280BD085
:1008E000042819BF42F20040C0F2F4004BF6802009
:1008F000C0F28C1010BD00BF206821682368490237
:100900004BF68021C0F28C1100F03F02C3F3881037
:100910005CBF42F20041C0F2F401A1FB00010023E0
:10092000FFF7AAFC21680222C1F3014102EB410159
:10093000B0FBF1F010BD00002DE9F04182B00028BD
:1009400068D00446007843F60006C007C4F20206E9
:100950000BD0B06800F00C00042840F09F80306895
:10096000800302D56068002854D0207880071AD50B
:10097000B06810F00C0F09D0B06800F00C00082827
:1009800040F0A6807068400200F1A28030688007C5
:1009900002D5E06801283DD13068216920F0F800D7
:1009A00040EAC10030602078000737D42078400743
:1009B0004CD4A56955B3B06800F00C00082840F08D
:1009C000BB80012D26D07068E16900F480028A4264
:1009D00020D1216A00F03F028A421BD147F6C07144
:1009E000626A0140B1EB821F14D1A16A4FF6FF7316
:1009F000C903994300F44032A1F580318A4209D1FC
:100A0000E16A00F07060B0EB016F03D1002002B02A
:100A1000BDE8F081012002B0BDE8F08160690028E6
:100A200040F20000C4F2472076D00121C0F8801EB9
:100A3000FFF7DCFD054600BF706F8007B6D4FFF7F7
:100A4000D5FD401B0228F7D9DDE000BF306C10F067
:100A500080580AD100200190306C40F08050306402
:100A6000306C00F080500190019847F20007C4F20A
:100A700000073868C00541D4386840F48070386099
:100A8000FFF7B4FD054600BF3868C00536D4FFF750
:100A9000ADFD401B0228F7D9B5E000BFB06800F0FB
:100AA0000C00082803D1706840023FF558AF606819
:100AB000B0F5803F07D0B0F5A02F40F08D803068B2
:100AC00040F480203060306840F4803030608DE049
:100AD000E068002852D00020C4F2472001210160C4
:100AE000FFF784FD054600BF306880073FF554AF2F
:100AF000FFF77CFD401B0228F6D984E0A06801289E
:100B000005D005284ED1306F40F004003067306FBB
:100B100040F0010030674FE00021C0F8801EFFF771
:100B200065FD0546706F80077FF540AFFFF75EFDFE
:100B3000401B0228F6D966E00027C4F247270020B0
:100B40003866FFF753FD022D05460BD13068800152
:100B50005ED5FFF74BFD401B02284FF00300F5D98F
:100B600055E700BF306880017FF550AFFFF73EFDCD
:100B7000401B02284FF00300F4D948E70020C4F2DC
:100B8000472000210160FFF731FD054630688007EE
:100B90007FF509AFFFF72AFD401B02284FF0030045
:100BA000F4D934E7316F002821F001013167316F4A
:100BB00021F0040131674DD0FFF718FD054641F2E1
:100BC000883700BF306F800756D4FFF70FFD401BFA
:100BD000B842F7D917E000BF3168002821F480310E
:100BE0003160316821F4802131604FD0FFF7FEFC85
:100BF000054600BF306880033FF5B7AEFFF7F6FC4F
:100C0000401B6428F6D9032002B0BDE8F08100BF84
:100C100004F11C052FCD084340EA8210D9034FF69A
:100C2000FF729143A1F5803140EA0560084370608E
:100C300001203866FFF7DAFC044600BF3068800107
:100C40003FF5E4AEFFF7D2FC001B02284FF0030093
:100C5000F4D9DCE6FFF7CAFC054641F2883700BF4D
:100C6000306F800708D5FFF7C1FC401BB8424FF03A
:100C70000300F5D9CBE600BFB8F1000F7FF499AEC1
:100C8000306C20F08050306493E600BFFFF7AEFC7C
:100C9000054600BF306880037FF567AEFFF7A6FC0E
:100CA000401B64284FF00300F4D9B0E6411E002039
:100CB000B0EB116F1CBF012070474EF21002CEF254
:100CC000000251604EF62351CEF20001F0230B706A
:100CD0000721906011607047704700007047000066
:100CE00010B590F83C20012A4FF002023ED080F867
:100CF0003D200268D2F804E0D2F808C00C682EF05B
:100D00007003234340F6FF34C4F20004A242536050
:100D100010DCB2F1804F1ED040F20043C4F2000359
:100D20009A4218D040F60003C4F200039A4212D04F
:100D300016E000BF40F60043C4F200039A420AD016
:100D400044F20003C4F201039A4204D00023C4F227
:100D500001039A4204D149682CF080031943916041
:100D60000121002280F83D1080F83C20104610BD83
:100D7000002804BF0120704710B5044690F83D00DC
:100D800028B9002084F83C00204600F01FF802201B
:100D900084F83D002068211D00F078FD012084F8D2
:100DA000460084F83E0084F83F0084F8400084F850
:100DB000410084F8420084F8430084F8440084F839
:100DC000450084F83D00002010BD000080B586B0CD
:100DD000006840F60002C4F2000200219042CDE912
:100DE0000411CDE9021101913CD040F20041C4F25E
:100DF0000001884250D0B0F1804F40F08080002048
:100E000043F640010090C4F202010A6842F0010278
:100E10000A600A6802F001020092009A009051F8FC
:100E2000102C42F0010241F8102C51F8101C01F076
:100E3000010100910099CDE90300012002210590F4
:100E40000020CDE90111C4F2020001A9FFF7F4FA74
:100E50001C2000210022FFF74DFC1C20FFF736FC70
:100E600006B080BD43F640000091C4F20200016864
:100E7000002241F0040101600068002100F004003C
:100E8000009000981E20FFF735FC1E2006B0BDE83C
:100E90008040FFF71BBC00BF002043F640010090DC
:100EA000C4F202010A6842F002020A600A6802F013
:100EB00002020092009A009051F8102C42F00202B7
:100EC00041F8102C51F8101C01F00201009100991A
:100ED000012101910221CDE90210CDE90401002098
:100EE000C4F2020000F5806001A9FFF7A5FA1D20F9
:100EF00000210022FFF7FEFB1D20FFF7E7FB06B0F5
:100F000080BD000090F83D1001291CBF01207047F2
:100F1000022180F83D10006840F6FF32C168C4F23B
:100F20000002904241F00101C1600FDCB0F1804F3E
:100F30001DD040F20041C4F20001884217D040F6B3
:100F40000001C4F20001884211D017E040F60041D0
:100F5000C4F2000188420AD044F20001C4F2010147
:100F6000884204D00021C4F20101884206D1816880
:100F700001F00701062904BF00207047016841F015
:100F8000010101600020704780B590F83C20012AE3
:100F90004FF0020200F0C28080F83D20D0F800C07F
:100FA0004FF67772DCF8083023EA0202CCF808200A
:100FB0000B684F2B28DC1F2B44DD202B45D0302B1A
:100FC00043D0402B40F0AC80D1F804E0C968DCF895
:100FD0002030DCF8202022F00102CCF82020DCF8C0
:100FE000182022F0F00242EA011123F00A0242EA3C
:100FF0000E02CCF81810CCF82020DCF8081041F0D4
:10100000470121F0300180E06F2B27DDB3F5005F51
:1010100048D0B3F5805F7AD0702B40F08180D1E961
:1010200001E3C968DCF8082043EA0E0322F47F429A
:1010300043EA01211143CCF80810DCF8081041F014
:10104000770162E00BB1102B6AD1DCF8081021F0B7
:101050007001194341F0070157E000BF502B35D014
:10106000602B5DD1D1F804E0C968DCF82030DCF8F1
:10107000202022F01002CCF82020DCF8182022F4E6
:10108000704242EA013123F0A00242EA0E12CCF88B
:101090001810CCF82020DCF8081041F0670121F08E
:1010A000100132E0D1E901E3C968DCF8082043EA25
:1010B0000E0322F47F4243EA01211143CCF80810C9
:1010C000DCF8081041F480411FE000BFD1F804E0D3
:1010D000C968DCF82030DCF8202022F00102CCF8CE
:1010E0002020DCF8182022F0F00242EA011123F05F
:1010F0000A0242EA0E02CCF81810CCF82020DCF8E4
:10110000081041F0570121F02001CCF8081000220E
:10111000012180F83D10002180F83C10104680BD70
:101120000122F5E770B504460068B0F1804F0BD09E
:1011300040F20041C4F20001884267D1207F0428B8
:1011400064D1082105E000BF207F022818BF70BDD0
:10115000042140F27806C2F20006F06840B1204651
:1011600000F050FB31687060884207DD401A0FE0E4
:10117000204600F047FB3060012046E009DA227F7C
:101180004FF6FF73401A022A08BF4FF0FF3318448E
:10119000B060207F02281DD140F20000C2F20000A2
:1011A0000168B068012902D1C1087C292AD8002130
:1011B000B0F57A7F40F2000038BF0121C2F2000092
:1011C000002901684FF0FF3218BF0122114401606D
:1011D00018E000BF40F20000C2F20000436805685A
:1011E000B2680021B2F57A7F38BF0121AB4202D14B
:1011F000B2F57A7F06D350F8043F012BE0D1D20834
:101200007C2ADDD9216800204862F06070BD0000B2
:10121000F0B590F83C30012B04BF0220F0BD4FEA3E
:10122000B202032A2CD8DFE802F003314F6F00BF6F
:101230000368D1E900C5D1F80CE01C6A1A6A40F6CF
:10124000FF3722F001021A621A4652F8186FC4F2F0
:101250000007BB4200F37E80B3F1804F00F08B802B
:1012600040F20047C4F20007BB4200F0848040F621
:101270000007C4F20007BB4200F07D8096E000BF8B
:101280000121002280F83C200846F0BD0368D1E926
:1012900000E6D1E902C11C6A1A6A360222F0100285
:1012A0001A621A4652F8185F4FF2FF07BE4325F440
:1012B000734561F30F3624F0A0040EF00A0746EAE6
:1012C000050144EA07173CE00768D1E900C5D1E908
:1012D00002313C6A3A6A61F3071522F480723A627D
:1012E0003A4652F81C6F26F0F30645EA060124F44C
:1012F00020660CF00A0546EA052611603E62116878
:1013000021F00C01116047E00368D1E900E6D1E962
:1013100002C11C6A1A6A360222F480521A621A4604
:1013200052F81C5F4FF2FF07BE4325F4734561F38B
:101330000F3624F420440EF00A0746EA050144EA79
:10134000073711601F6211684FEA0C2321F44061D6
:10135000116021E040F60047C4F20007BB420AD00A
:1013600044F20007C4F20107BB4204D00027C4F2D4
:101370000107BB421AD126F00306354324F00A07C1
:101380000CF00A066EF3071537449D611F629F69D2
:1013900027F00C079F618B681168194311600021C9
:1013A000002280F83C200846F0BD00BF46F0010551
:1013B000E4E70000002804BF0120704710B5044690
:1013C00090F83D0028B9002084F83C00204600F049
:1013D0001FF8022084F83D002068211D00F056FA15
:1013E000012084F8460084F83E0084F83F0084F829
:1013F000400084F8410084F8420084F8430084F8F7
:10140000440084F8450084F83D00002010BD000031
:101410007047000051B308290AD0042919BF00F110
:10142000410200F1450300F13F0200F1430303E0F4
:1014300000F1400200F1440312781B78012A4FF0BA
:10144000010208BF012B01D0104670470222082973
:1014500022D004292CD180F83F2080F843204FEA85
:10146000B103032B4FF00102EED82BE090F83E20A1
:1014700090F84230012A4FF0010208BF012BE3D15E
:10148000022280F83E2080F842204FEAB103032B6D
:101490004FF00102D8D815E080F8402080F84420B1
:1014A0004FEAB103032B4FF00102CDD80AE000BF91
:1014B00080F8412080F845204FEAB103032B4FF01C
:1014C0000102C1D841F62C6C0068C0F6000C5CF833
:1014D00023C0C36801F01F0143EA0C03C360036A21
:1014E00002FA01F123EA01020262026A114340F6A4
:1014F000FF32C4F20002904201620FDCB0F1804F73
:101500001DD040F20041C4F20001884217D040F6DD
:101510000001C4F20001884211D017E040F60041FA
:10152000C4F2000188420AD044F20001C4F2010171
:10153000884204D00021C4F20101884206D18168AA
:1015400001F00701062904BF00207047016800224E
:1015500041F00101016010467047000070B504467B
:101560000068C5680669B10716D515F0020113D0E9
:101570006FF002010161012121778069800703D0AA
:101580002046FFF7CFFD05E0204600F08FF820460B
:1015900000F08EF800202077700719D515F00400B0
:1015A00016D020686FF00401016102212177806963
:1015B00010F4407F04D02046FFF7B4FD06E000BFE2
:1015C000204600F073F8204600F072F800202077E3
:1015D000300717D515F0080014D020686FF0080107
:1015E000016104212177C069800703D02046FFF7FD
:1015F00099FD05E0204600F059F8204600F058F823
:1016000000202077F00619D515F0100016D02068BC
:101610006FF01001016108212177C06910F4407F4B
:1016200004D02046FFF77EFD06E000BF204600F014
:101630003DF8204600F03CF800202077F00718BF66
:1016400015F0010002D1300609D412E020686FF0D5
:1016500001010161204600F02DF8300609D515F092
:10166000800006D020686FF0800101612046FFF7FE
:1016700033FB700609D515F0400006D020686FF0E6
:1016800040010161204600F0D7F8B00658BF70BD98
:1016900015F0200008D021686FF0200220460A6172
:1016A000BDE87040FFF71ABB70BD00007047000036
:1016B000704700002DE9F04381B040F20044C4F2CD
:1016C00002040068A4F5FE31884203D001B0BDE8F1
:1016D000F08300BF40F20001C2F2000108684968CF
:1016E00000F0CCFA44F6D351C1F2620150FB01F193
:1016F0008A1102EBD17146F26762C6F2666251FB53
:1017000002F39F1007EBD37303EB8303A1EB4306B4
:1017100048F21F51C5F2EB1150FB01F14B1103EBE5
:10172000D17151FB02F39F1007EBD37303EB8303DB
:10173000A1EB430550FB02F18B1003EBD17151FB80
:1017400002F2931003EBD27202EB8202A1EB42078A
:1017500001EB810141F64C69A0EB4108C0F600099C
:1017600096B1204620210022FEF73AFF19F8060024
:1017700000F0A0FAFE2000F09DFA20462021012270
:10178000FEF72EFF01E000BFB5B320462021002266
:10179000FEF726FF19F8050000F08CFAFD2000F096
:1017A00089FA204620210122FEF71AFF2046202137
:1017B0000022FEF715FF19F8070000F07BFAFB2066
:1017C00000F078FA204620210122FEF709FF20468A
:1017D00020210022FEF704FF19F8080000F06AFA41
:1017E000F72000F067FA20462021012201B0BDE871
:1017F000F043FEF7F5BE00BF002FD7D1B8F1000FC0
:10180000E5D163E74FEAB101032984BF00207047A7
:10181000DFE801F0020E060A006834300068704705
:1018200000683C30006870470068403000687047CE
:10183000006838300068704770470000FEE700001D
:10184000FEE70000FEE70000704700007047000060
:10185000FEF7D2BE4EF68850CEF20000016841F489
:10186000700101607047000040F2D000C2F2000039
:10187000FFF774BE40F21810C2F20000FFF76EBE10
:1018800040F28800C2F20000FFF768BE10B540F2D7
:10189000FF7E0368C4F2000E40F2000C7045C4F2F3
:1018A000010C1DDD40F60002C4F20002904220D07F
:1018B00060451ED040F60042C4F20002904218D0AB
:1018C0004FF6FF72C4F2000290421CDC704525DC2A
:1018D000B0F1804F3AD040F20042C4F2000233E04F
:1018E000B0F1804F05D040F20042C4F200029042B5
:1018F000E6D14A6823F0700313434FF6FF72C4F237
:1019000000029042E2DD44F2FF32C4F20102904252
:1019100010DC60451AD044F2000213E040F60002E9
:10192000C4F20002904211D040F60042C4F200021C
:101930000AE000BF44F60002C4F20102904205D062
:1019400044F20042C4F20102904203D1CA6823F477
:101950004073134323F080024B69D1F800E08C6898
:101960001A4360450260C462C0F828E002D10969E8
:10197000CCF83010012141610169C90708BF10BDD1
:10198000016921F00101016110BD0000FEE70000C6
:1019900094B043F6300647F20005C4F20206C4F2E2
:1019A0000005FEF737FE06AC201D2C21FEF7DCFCFF
:1019B00000270497CDE90277CDE9007712973069C7
:1019C00040F080503061306900F0805012901298E1
:1019D0001297286840F440402860286800F440408E
:1019E00012901298022006900120099010200A906F
:1019F00020460C97FEF7A0FF10B172B6FEE700BFBD
:101A00000F20CDE9000768460021CDE90277049751
:101A1000FEF7ACFE10B172B6FEE700BF00270A97D2
:101A20000097306805F5C83440F0800030603068B9
:101A30004FF4407100F080000090009800973068EB
:101A4000002240F001003060306800F0010000909A
:101A500000980097306840F00200306030684FF422
:101A6000407600F00200009000982046FEF7B8FD96
:101A700005F5CA352846202100224FF02008FEF740
:101A8000AFFD069606AE4FF0010920463146CDE97E
:101A900007970997FEF7D0FC28463146CDE906891D
:101AA000CDE90877FEF7C8FC40F2D000C2F2000092
:101AB0004FF080416FF001030997CDE90777CDE939
:101AC000127743F67F6280E88600C0E903378761BA
:101AD000FFF74EF910B172B6FEE700BF4FF4805029
:101AE000069040F2D000C2F2000006A9FFF74CFABF
:101AF00010B172B6FEE700BF40F2D000C2F20000A3
:101B0000FFF758FC10B172B6FEE700BF40F2D000FC
:101B1000C2F2000012A9FFF7E3F818B172B600BFD5
:101B2000FEE700BF0A2000900120019040F2D000A3
:101B30000025C2F2000069460422CDE90255FFF7F4
:101B400067FB18B172B600BFFEE700BF40F2004469
:101B500040F21810C4F20004C2F2000043F67F61A4
:101B60004FF6FE720995CDE90755CDE91255C0E94A
:101B70000041C0E9025205618561FFF7F9F818B12B
:101B800072B600BFFEE700BF4FF48050069040F2EF
:101B90001810C2F2000006A9FFF7F6F910B172B6EC
:101BA000FEE700BF40F21810C2F20000FFF702FC8F
:101BB00010B172B6FEE700BF40F21810C2F200008A
:101BC00012A9FFF78DF808B172B6FEE70A2000905F
:101BD0000120019040F218100025C2F20000694671
:101BE0000822CDE90255FFF713FB08B172B6FEE7F4
:101BF00004F5806140F27804C2F20004204640F807
:101C0000101F0F2163220995CDE90755CDE9005535
:101C1000C0E90115C0E903258561FFF7A9F808B1FE
:101C200072B6FEE74FF480501034069006A92046A5
:101C3000FFF7AAF910B172B6FEE700BF6946204669
:101C4000FFF74EF810B172B6FEE700BF2046FFF76F
:101C500059F940F2D004C2F2000420460021FFF7F7
:101C6000D9FB20460421FFF7D5FB40F21810C2F241
:101C700000000821FFF7CEFBFEE70000F0B581B0C1
:101C8000054601294FF0010012D00C468D420FD0BD
:101C9000002700BF6E1E30462146FFF7EFFF611E92
:101CA0000129074403D0A5420C463546F2D1781CE1
:101CB00001B0F0BDF0B581B00024C4F202040546C5
:101CC00047B220464FF4807100220026FEF788FCC0
:101CD000B7F1FF3FC8BF012620464FF400713246DE
:101CE000FEF77EFC20464FF4807101220126FEF7AC
:101CF00077FC20464FF480710022FEF771FC26EA43
:101D0000951220464FF40071FEF76AFC20464FF40E
:101D100080710122FEF764FC20464FF4807100229E
:101D2000FEF75EFC26EA551220464FF40071FEF7DE
:101D300057FC20464FF480710122FEF751FC2046EB
:101D40004FF480710022FEF74BFC26EA1512204664
:101D50004FF40071FEF744FC20464FF480710122DD
:101D6000FEF73EFC20464FF480710022FEF738FC5F
:101D700026EAD50220464FF40071FEF731FC2046DA
:101D80004FF480710122FEF72BFC20464FF4807146
:101D90000022FEF725FC26EA950220464FF400714A
:101DA000FEF71EFC20464FF480710122FEF718FC5E
:101DB00020464FF480710022FEF712FC26EA5502FD
:101DC00020464FF40071FEF70BFC20464FF4807163
:101DD0000122FEF705FC20464FF480710022FEF739
:101DE000FFFB26EA050220464FF40071FEF7F8FBE0
:101DF00020464FF48071012201B0BDE8F040FEF7AB
:101E0000EFBBF1EE100A4FF6FF71C0F2C03120EACD
:101E1000010040F04070E1EE100A70470000000041
:101E20000000000001020304060708090200000088
:101E3000040000000800000010000000FDFFFFFF8C
:101E4000FBFFFFFFF7FFFFFFEFFFFFFF3F065B4FCB
:101E5000666D7D077F6F0000781E0008000000207F
:101E600018000000D4010008901E0008180000208F
:101E700050070000F0010008070000000500000006
:101E800001000000100000000024F4000000000029
:040000050800019955
:00000001FF
