:020000040800F2
:1000000070070020350200083D0200083F0200088A
:1000100041020008430200084502000800000000F9
:10002000000000000000000000000000470200087F
:1000300049020008000000004B0200084D020008C1
:100040004F0200084F0200084F0200084F0200084C
:100050004F0200084F0200084F0200084F0200083C
:100060004F0200084F020008890300084F020008F1
:100070004F0200084F0200084F0200084F0200081C
:100080004F0200084F0200084F0200080000000065
:100090000000000000000000000000004F02000807
:1000A0004F0200084F0200084F0200084F020008EC
:1000B0004F0200084F0200084F0200084F020008DC
:1000C0004F0200084F0200084F0200084F020008CC
:1000D0004F0200084F0200084F0200080000000015
:1000E0004F0200084F0200084F0200080000000005
:1000F0000000000000000000000000004F020008A7
:10010000000000004F0200084F0200084F020008E4
:1001100000000000000000000000000000000000DF
:100120004F0200084F0200084F0200084F0200086B
:100130004F02000800000000000000000000000066
:100140000000000000000000000000004F02000856
:100150004F0200084F0200084F0200084F0200083B
:100160004F0200084F0200080000000000000000DD
:10017000000000000000000000000000000000007F
:10018000000000004F020008000000000000000016
:100190004F02000800F002F800F03CF80AA090E8D6
:1001A000000C82448344AAF10107DA4501D100F032
:1001B00031F8AFF2090EBAE80F0013F0010F18BFC3
:1001C000FB1A43F001031847EC0800000C0900007B
:1001D000103A24BF78C878C1FAD8520724BF30C873
:1001E00030C144BF04680C60704700000023002445
:1001F00000250026103A28BF78C1FBD8520728BF37
:1002000030C148BF0B6070471FB500F041FC1FBDF7
:1002100010B510BD00F031F81146FFF7F5FF00F002
:1002200075FB00F04FF803B4FFF7F2FF03BC00F0DA
:1002300057F800000948804709480047FEE7FEE7F5
:10024000FEE7FEE7FEE7FEE7FEE7FEE7FEE7FEE786
:1002500004480549054A064B70470000BD070008E1
:100260009501000870010020700700207003002035
:1002700070030020704770477047754600F02CF8F7
:10028000AE4605006946534620F00700854618B083
:1002900020B5FFF7DDFFBDE820404FF000064FF02E
:1002A00000074FF000084FF0000BAC46ACE8C00967
:1002B000ACE8C009ACE8C009ACE8C00921F007010E
:1002C0008D46704710B50446AFF300802046BDE868
:1002D0001040FFF7A8BF000000487047D80000207A
:1002E00001491820ABBEFEE726000200704700005F
:1002F00084B0039002918DF80720039940F2180012
:10030000C2F2000000EB8111029851F82030C117B1
:1003100000EB917020F0030143F60802C4F20102E1
:100320008858184388500299012000FA01F243F6D8
:100330000041C4F201010868104308609DF80700FD
:1003400001460091012804D0FFE7009802280CD054
:1003500017E00299012000FA01F243F60C41C4F2C1
:1003600001010868104308600BE00299012000FABF
:1003700001F243F60841C4F20101086890430860A5
:10038000FFE704B07047000080B588B043F6144121
:10039000C4F20101086840F0100008600A2000F073
:1003A00017FA0120042100F085F901285ED1FFE74A
:1003B00040F26810C2F200000068002856D1FFE742
:1003C00040F26411C2F20001002008608DF81F00A5
:1003D000FFE79DF81F00032817DCFFE79DF81F10BB
:1003E000012000F067F99DF81F1000FA01F240F2B9
:1003F0006411C2F20001086810430860FFE79DF82D
:100400001F0001308DF81F00E3E700208DF81E006B
:10041000FFE79DF81E00062820DCFFE79DF81E0080
:10042000029040F26410C2F20000006800F03AFA54
:100430000299024640F6AA20C0F60000805C9DF8B2
:100440001E20D04000F00102002000F04BF9FFE731
:100450009DF81E0001308DF81E00DAE740F26811A9
:10046000C2F20001086801300860D1E001200421D7
:1004700000F020F901285ED1FFE740F26810C2F2D7
:1004800000000068012856D1FFE740F26011C2F277
:100490000001002008608DF81D00FFE79DF81D0099
:1004A000032817DCFFE79DF81D10012000F002F97A
:1004B0009DF81D1000FA01F240F26011C2F2000135
:1004C000086810430860FFE79DF81D0001308DF8B3
:1004D0001D00E3E700208DF81C00FFE79DF81C00DD
:1004E000062820DCFFE79DF81C00019040F2601018
:1004F000C2F20000006800F0D5F90199024640F60A
:10050000AA20C0F60000805C9DF81C20D04000F0BE
:100510000102022000F0E6F8FFE79DF81C00013020
:100520008DF81C00DAE740F26811C2F20001086899
:10053000013008606BE00120042100F0BBF80128C5
:1005400064D1FFE740F26810C2F2000000680228A0
:100550005CD1FFE740F26410C2F20000006840F294
:100560006011C2F20001096800F0E8F800F09AF9A1
:100570008DF81B009DF81B0000F00F0005909DF802
:100580001B000009049000208DF80F00FFE79DF884
:100590000F00062815DCFFE79DF80F10059A40F6BE
:1005A000AA20C0F60000805CC84000F001020020D4
:1005B00000F098F8FFE79DF80F0001308DF80F006C
:1005C000E5E700208DF80E00FFE79DF80E000628F5
:1005D00015DCFFE79DF80E10049A40F6AA20C0F63D
:1005E0000000805CC84000F00102022000F07AF8B0
:1005F000FFE79DF80E0001308DF80E00E5E740F2B0
:100600006811C2F2000100200860FFE7FFE7FFE782
:1006100008B080BD43F64401C4F20201086840F40A
:10062000804008607047000081B00090009940F25F
:100630000C00C2F2000050F8212043F63001C4F251
:10064000020108681043086001B0704783B002904F
:100650008DF807108DF806209DF8060001460091E0
:1006600020B1FFE70098012811D021E09DF8070094
:100670004100032000FA01F2029940F20000C2F2A8
:10068000000050F8211008689043086010E09DF8C1
:1006900007004100012000FA01F2029940F2000037
:1006A000C2F2000050F82110086810430860FFE70C
:1006B00003B0704783B002908DF8071000200090BF
:1006C000029940F20000C2F2000050F821000069D7
:1006D0009DF8071001228A401040C8400090009801
:1006E00003B0704782B001908DF803108DF802209E
:1006F0009DF8020080B1FFE79DF80310012000FA89
:1007000001F2019940F20000C2F2000050F82110FD
:100710004869104348610FE09DF80310012000FA7A
:1007200001F2019940F20000C2F2000050F82110DD
:10073000486990434861FFE702B0704780B582B0D6
:1007400001900091019800F009F8009940F23810EA
:10075000C2F2000050F8210002B080BD80B582B026
:10076000019001200090FFE700980199884210DC79
:10077000FFE70198009900F067F9009A40F23811FC
:10078000C2F2000141F82200FFE70098013000901A
:10079000EAE702B080BD000080B582B001909DF90B
:1007A0000400002100F05CF89DF9040000F028F836
:1007B0009DF9040000F03CF802B080BD4EF688516F
:1007C000CEF20001086840F4700008607047000035
:1007D00081B08DF803009DF9030000280ED4FFE7D7
:1007E0009DF9031001F01F02012090404A094EF2CA
:1007F0008021CEF2000141F82200FFE701B07047EE
:1008000081B08DF803009DF9030000280ED4FFE7A6
:100810009DF9031001F01F02012090404A094EF299
:100820008021CEF2000141F82200FFE701B07047BD
:1008300081B08DF803009DF9030000280ED4FFE776
:100840009DF9031001F01F02012090404A094EF269
:100850000011CEF2000141F82200FFE701B070471D
:1008600082B08DF8070000919DF9070000280AD496
:10087000FFE7009800019DF907104EF20042CEF20A
:10088000000288540BE0009800019DF8071001F069
:100890000F014EF61452CEF200028854FFE702B068
:1008A0007047000084B0039000208DF80B0003997E
:1008B00001910090FFE70098012823DCFFE70198F1
:1008C00046F26761C6F2666150FB01F39A0802EBDB
:1008D000D37202EB8202A0EB4200009A920000FA6F
:1008E00002F29DF80B0010438DF80B00019850FBAD
:1008F00001F1881000EBD1700190FFE70098013002
:100900000090D8E79DF80B0004B0704780B588B020
:10091000002004900790FFF787FE0220FFF784FE77
:1009200004988DF81B00FFE79DF81B0006280DDCDE
:10093000FFE79DF81B1000200122FFF787FEFFE76D
:100940009DF81B0001308DF81B00EDE700208DF8AD
:100950001A00FFE79DF81A0006280DDCFFE79DF856
:100960001A1002200122FFF771FEFFE79DF81A001E
:1009700001308DF81A00EDE70120FFF755FE002049
:100980008DF81900FFE79DF8190003280DDCFFE73B
:100990009DF8191001200022FFF758FEFFE79DF88F
:1009A000190001308DF81900EDE7012001900421B4
:1009B000029100220392FFF749FEFFF72BFE0198F8
:1009C00002990222FFF794FC62B60A20FFF7E4FEC8
:1009D00003988DF81800FFE79DF81800062814DC2E
:1009E000FFE79DF8181040F6AA20C0F60000007836
:1009F000C84000F001020020FFF774FEFFE79DF8F9
:100A0000180001308DF81800E6E700208DF8170077
:100A1000FFE79DF81700062814DCFFE79DF8171084
:100A200040F6AA20C0F600000078C84000F001029D
:100A30000220FFF757FEFFE79DF8170001308DF801
:100A40001700E6E7FFE7FEE780B584B0029001916A
:100A50000198012805D0FFE702980199884203D147
:100A6000FFE70120039010E0029801380199FFF799
:100A7000EBFF00900298013801990139FFF7E4FF7C
:100A80000146009808440390FFE7039804B080BD36
:100A9000F1EE100A4FF6FF71C0F2C03120EA0100FA
:100AA00040F04070E1EE100A70473F065B4F666D04
:100AB0007D077F6FD80A000800000020D8000000E2
:100AC000D0010008B00B0008D800002098060000F4
:100AD000EC01000800000000000002400004024099
:100AE00000080240010000000200000004000000B5
:100AF00000000000000000000000000000000000F6
:100B000000000000000000000000000000000000E5
:100B100000000000000000000000000000000000D5
:100B200000000000000000000000000000000000C5
:100B30000100000010000000000100000010000093
:100B40000100000010000000000100000010000083
:100B50000100000010000000000100000010000073
:100B60000100000010000000000100000010000063
:100B70000200000020000000000200000020000031
:100B80000200000020000000000200000020000021
:100B90000200000020000000000200000020000011
:100BA0000200000020000000000200000020000001
:040000050800019559
:00000001FF
