:020000040800F2
:100000001008002039020008492200084122000897
:1000100045220008310400089D230008000000006C
:100020000000000000000000000000005122000855
:1000300035040008000000004D2200085522000889
:10004000530200085302000853020008530200083C
:10005000530200085302000853020008530200082C
:10006000530200085302000853020008530200081C
:10007000530200085302000853020008530200080C
:100080005302000853020008530200080000000059
:100090000000000000000000000000005302000803
:1000A00053020008530200085302000853020008DC
:1000B0006D220008792200088522000853020008FA
:1000C00053020008530200085302000853020008BC
:1000D0005302000853020008530200080000000009
:1000E00053020008530200085302000800000000F9
:1000F00000000000000000000000000053020008A3
:10010000000000005302000891220008530200087A
:1001100000000000000000000000000000000000DF
:10012000530200085302000853020008530200085B
:100130005302000800000000000000000000000062
:100140000000000000000000000000005302000852
:10015000530200085302000853020008530200082B
:1001600053020008530200080000000000000000D5
:10017000000000000000000000000000000000007F
:100180000000000053020008000000000000000012
:10019000530200085302000800F002F800F03CF897
:1001A0000AA090E8000C82448344AAF10107DA45D2
:1001B00001D100F031F8AFF2090EBAE80F0013F0E8
:1001C000010F18BFFB1A43F001031847E82C000089
:1001D000082D0000103A24BF78C878C1FAD8520719
:1001E00024BF30C830C144BF04680C6070470000B1
:1001F0000023002400250026103A28BF78C1FBD830
:10020000520728BF30C148BF0B6070471FB502F0CE
:1002100025FE1FBD10B510BD00F0D0F81146FFF748
:10022000F5FF02F055F900F0EEF803B4FFF7F2FF26
:1002300003BC00F0F5F80000094880470948004772
:10024000FEE7FEE7FEE7FEE7FEE7FEE7FEE7FEE786
:10025000FEE7FEE704480549054A064B70470000E3
:1002600059220008990100081002002010080020FF
:10027000100400201004002053EA020C00F06980F2
:100280002DE9F04B4FF00006002B1FBFB3FA83F5AA
:1002900003FA05F424FA05F65E4012BF1643B2FADB
:1002A00082F502FA05F4C5F120051EBF22FA05FC0D
:1002B00044EA0C04203556EA044C4FEA144418BFB3
:1002C000641C4FF000084FF00009904271EB030CE2
:1002D00039D3002919BFB1FA81F701FA07F6B0FA4C
:1002E00080F700FA07F6C7F120071EBF20FA07FCC7
:1002F00046EA0C062037B6FBF4FCA7EB0507103FD7
:1003000007F01F0BCBF120062CFA06F60CFA0BFBBC
:1003100044BFB3460026202FA4BF5E464FF0000B1B
:100320005BEA060C08BF4FF0010B19EB0B0948EB19
:100330000608ABFB027C06FB02CC0BFB03CCC01B0C
:1003400071EB0C01C1E70B46024641464846BDE849
:10035000F08B13B5084318BF4FF0FF300146AFF3E1
:100360000080BDE81C4070474FF0000200B5134606
:1003700094469646203922BFA0E80C50A0E80C50C5
:10038000B1F12001BFF4F7AF090728BFA0E80C5076
:1003900048BF0CC05DF804EB890028BF40F8042B6F
:1003A00008BF704748BF20F8022B11F0804F18BFDC
:1003B00000F8012B7047704770477047754600F092
:1003C0002BF8AE4605006946534620F007008546E7
:1003D00018B020B5FFF73EFFBDE820404FF0000603
:1003E0004FF000074FF000084FF0000BAC46ACE8B0
:1003F000C009ACE8C009ACE8C009ACE8C00921F00C
:1004000007018D46704710B50446AFF300802046C3
:10041000BDE81040FFF709BF0048704720000020EA
:1004200001491820ABBEFEE726000200704700001D
:10043000FEE700007047000070B581B00022009216
:1004400090F83C20012A03D10221084601B070BD7A
:100450000E6801220A2E80F83C2009D3B2B2520065
:10046000D0F800E012FA86F21E3A0EF10C0305E015
:10047000D0F800E006EB46020EF110034FF0070C37
:100480001D680CFA02F4A5431D608D681C6805FA0E
:1004900002F222431A60496806290FD801EB810154
:1004A0004A1F71461F2351F8345F934025EA030326
:1004B0000B60B3B203FA02F214E000BF01EB810358
:1004C0000C29B2B204D8714651F8304F233B03E0F7
:1004D000714651F82C4F413B1F259D4024EA0505EC
:1004E0009A400D600B6842F2043CC4F2010C1A43BE
:1004F000ACF541739E450A6006D0002180F83C109F
:10050000084601B070BD00BF1221112EC1F20001DA
:1005100018BF8E423AD1DCF800208E4222F48002CD
:10052000CCF80020DCF8002042F40002CCF80020D7
:10053000E3D140F21801C2F2000109684DF683626E
:10054000C4F21B32A1FB0212910C01EB81014900A4
:10055000009100990029D0D00099013900910099AB
:100560000029CAD000990139009100990029C4D00E
:1005700000990139009100990029BED000990139F4
:10058000009100990029E7D1B7E700BF122EB4D13E
:10059000DCF8001021F40001CCF80010DCF80010A9
:1005A00041F48001CCF80010A7E700000068C06C9F
:1005B00070470000002804BF0120704710B50446B2
:1005C000006C00283ED0206CC00645D4206C41F25F
:1005D00002118843023042F204312064C4F2010166
:1005E000086820F4403008600A6894E809101A434B
:1005F000D4F810E00A604168012321F48071416061
:100600004168C0F6007341EA0E214160416821F063
:1006100040714160416841EA0C014160816821F408
:1006200000618160E168826811438160A16A82682B
:10063000994222F070628260826813D122F04051A8
:1006400019E000BF204600F065F80020606484F8DF
:100650003C00206CC006B9D50120002184F83C1074
:1006600010BD00BF11438160816821F0405181605D
:10067000E16A826811438160816821F00201816032
:100680008168227E94F8203041EA4201816041680D
:1006900083B141F40061416041684EF2000221F4EF
:1006A00060414160616ACFF6FF72436802EB4131FD
:1006B000194301E021F400614160C16A40F2000C7D
:1006C00021F47001C162E2696169CFF6F07CC36A0E
:1006D0000CEB02521A43C262826822F400728260FA
:1006E00094F83020836843EA42228260826822F4D0
:1006F00080628260826842EA8121816000206064B9
:10070000216C012262F301012164002184F83C1074
:1007100010BD000080B586B042F200010068C4F24E
:100720000101002288420592049201D006B080BDEA
:1007300043F630000092C4F20200436943F4807330
:100740004361436903F480730093009B0092036844
:1007500043F001030360006800F00100009000987E
:10076000012001900320CDE9020201F5604001A9BA
:1007700000F006F906B080BD70B5044600680D466D
:100780008268520544BF80685FEAC05038D400F0E8
:10079000D1F921680A68920749D40646681C3CD002
:1007A000DDB90868800721D5086880073FD408684C
:1007B00080071BD50868800739D40868800715D5DD
:1007C0000868800733D4086880070FD50868800759
:1007D000E7D52CE00868800729D400F0ABF9801B2E
:1007E0002168A842F6D908688007F3D4206C40F04D
:1007F00004002064002084F83C00032070BD00BF8A
:10080000206C40F020002064002084F83C0001208F
:1008100070BD00BF0868800709D40868800706D447
:10082000086880075CBF08685FEA8070F2D56FF0E7
:1008300012000860206C40F400702064886810F09A
:10084000405F01D1207E08B1002070BDC86A10F45D
:10085000700F02D088684005F6D4206C20F48070B8
:100860002064206CC004EFD4206C40F001002064B0
:10087000002070BD10B581B00021009190F83C10AF
:10088000012903D1022001B010BD00BF046801217D
:1008900080F83C10214651F8083FDB0729D10B684E
:1008A0004DF6836243F001030B6040F21803C2F27D
:1008B00000031B68C4F21B32A3FB02239A0C02EB59
:1008C00042020092009AA2B1009A013A0092009A64
:1008D0007AB1009A013A0092009A52B1009A013A14
:1008E0000092009A2AB1009A013A0092009A002AD6
:1008F000EAD10A68036CD2070AD143F010010164FF
:1009000000F1440101200A681043086034E000BF90
:1009100040F2017223EA020202F580720264626808
:10092000520504D5026C012363F30D320264026C9C
:100930004FF0000C0023D20444BF426C22F00603A7
:1009400042F2000E436480F83CC06FF02200C4F213
:10095000010E2060DEF80403C00609D074450BD1F7
:10096000DEF8080010F0405F06D14FF08040CAE783
:10097000086810F0405FF8D0002001B010BD000002
:100980002DE9F04F82B000F13E4241F2000502F144
:10099000FF77C4F20205072243F6004E4FEAB7265E
:1009A000A84208BF0422C4F2010E042E38BF4FEA49
:1009B000B7220125002600274FF00008009208E02A
:1009C00008F101080437B8F1100F06F1020600F033
:1009D000A7800C6805FA08F914EA090FF0D0D1F8DD
:1009E00004B003220BF0030CACF10104B240012C63
:1009F0006FEA020A10D88268CC6802EA0A02B440A0
:100A0000224382604268CBF3001422EA090204FA0E
:100A100008F42243426005E0BCF1030F02D14FF01D
:100A2000030C20E0C2688C6802EA0A02B440224348
:100A3000BCF1020FC26016D16FF0030202EA580245
:100A40000244D2F820C007F01C050F230C69AB400C
:100A50002CEA030304FA05F52B431362D1F804B022
:100A600001250BF0030C02680CFA06F302EA0A02F5
:100A70001A431BF4403F0260A2D0002243F6440315
:100A80000192C4F202031A684FF6084C42F4804205
:100A90001A601A68CFF6FF7C02F480420192019A34
:100AA00028F00302724452F80C3007F00C050F24B2
:100AB000AC40A343009C04FA05F52B4342F80C30EC
:100AC000DEF808204B6842EA090543F60C4CDC02CC
:100AD00058BF22EA0905CEF80850C4F2010CDCF830
:100AE00000209C0242EA090558BF22EA0905CCF819
:100AF0000050DEF804209C0342EA090558BF22EAB0
:100B00000905CEF80450DEF80020DB0342EA0905AF
:100B100058BF22EA0905CEF80050012550E700BF72
:100B200002B0BDE8F08F0000002A08BF090481610F
:100B30007047000040F20C20C2F2000000687047CD
:100B400040F2100040F20C21C2F20000C2F200019B
:100B500000780A68104408607047000080B543F6CA
:100B60000040C4F20200016841F4007101600168B4
:100B700041F480610160016841F4807101600320EB
:100B800000F088F80F2000F005F800F027F80020AA
:100B900080BD000070B540F21006C2F2000640F2BF
:100BA00018013278C2F200014FF47A730968B3FB7E
:100BB000F2F20446B1FBF2F1084600F01BFB0F2CE9
:100BC0004FF0010508D838B94FF0FF302146002218
:100BD000002500F033F87460284670BD82B0002014
:100BE00043F640010190C4F202014A6842F4804297
:100BF0004A604A6802F480420192019A00900868B3
:100C000040F080500860086800F080500090009824
:100C100002B07047002848BF7047C1B200F01F0003
:100C2000012202FA00F04EF20012CEF2000242EA75
:100C3000D10121F0030108607047000010B54EF6A5
:100C40000C5CCEF2000CDCF80030C3F3022E8EF008
:100C50000704042C28BF0424BEF103034FF0FF3E19
:100C60000EFA04F438BF0023A14399400EFA03F3AF
:100C70009A43114300F00F0200F160430901043A66
:100C800003F564436244002848BF02F10C03197065
:100C900010BD00004EF60C51CEF200010A684FF66E
:100CA000FF031A4060F30A2242F0806040F0FD70BA
:100CB000086070472DE9F041002800F08B8043F672
:100CC0000808C4F202080446D8F8F8030D4600F0FC
:100CD0000700884207D288F8F853D8F8F80300F0E4
:100CE0000700A84276D12068810717D5410705D5AE
:100CF000D8F8001041F4E051C8F80010010705D5FC
:100D0000D8F8001041F46041C8F80010D8F800107D
:100D1000A26821F0F0011143C8F80010C0073FD1CC
:100D2000D8F8F80300F00700A84207D988F8F8536C
:100D3000D8F8F80300F00700A8424BD1206841071B
:100D400007D5D8F80010E26821F4E0511143C8F843
:100D50000010000708D5D8F80000216920F4604091
:100D600040EAC100C8F8000000F054F8D8F80010BC
:100D700042F67662C1F30311C0F60002515C40F204
:100D8000180220FA01F140F21400C2F200000068DB
:100D9000C2F200021160FFF7FDFE0020BDE8F08105
:100DA0006068811E022907D258F8081C89015CBFBF
:100DB0000120BDE8F08111E0012807D158F8081C96
:100DC00089035CBF0120BDE8F08107E058F8081CEA
:100DD000890703D40120BDE8F08100BFD8F80010D6
:100DE00021F003010843C8F80000FFF7A3FE064600
:100DF00041F28837D8F80000616800F00C00B0EBD1
:100E0000810F8DD0FFF796FE801BB842F2D90320E8
:100E1000BDE8F08110B543F60404C4F20204606832
:100E200000F00C0008280BD0042819BF42F2004043
:100E3000C0F2F4004BF68020C0F28C1010BD00BF51
:100E400020682168236849024BF68021C0F28C118A
:100E500000F03F02C3F388105CBF42F20041C0F2D1
:100E6000F401A1FB00010023FFF706FA216802222A
:100E7000C1F3014102EB4101B0FBF1F010BD0000F4
:100E80002DE9F04182B0002868D00446007843F68E
:100E90000006C007C4F202060BD0B06800F00C00D8
:100EA000042840F09F803068800302D560680028E5
:100EB00054D0207880071AD5B06810F00C0F09D0F4
:100EC000B06800F00C00082840F0A680706840026E
:100ED00000F1A2803068800702D5E06801283DD18A
:100EE0003068216920F0F80040EAC10030602078C5
:100EF000000737D4207840074CD4A56955B3B068B3
:100F000000F00C00082840F0BB80012D26D070684E
:100F1000E16900F480028A4220D1216A00F03F0298
:100F20008A421BD147F6C071626A0140B1EB821F51
:100F300014D1A16A4FF6FF73C903994300F44032FC
:100F4000A1F580318A4209D1E16A00F07060B0EB0E
:100F5000016F03D1002002B0BDE8F081012002B092
:100F6000BDE8F0816069002840F20000C4F247202B
:100F700076D00121C0F8801EFFF7DCFD054600BFDA
:100F8000706F8007B6D4FFF7D5FD401B0228F7D954
:100F9000DDE000BF306C10F080580AD100200190D5
:100FA000306C40F080503064306C00F08050019024
:100FB000019847F20007C4F200073868C00541D421
:100FC000386840F480703860FFF7B4FD054600BF14
:100FD0003868C00536D4FFF7ADFD401B0228F7D9AD
:100FE000B5E000BFB06800F00C00082803D17068BD
:100FF00040023FF558AF6068B0F5803F07D0B0F5CC
:10100000A02F40F08D80306840F480203060306840
:1010100040F4803030608DE0E068002852D000203D
:10102000C4F2472001210160FFF784FD054600BF9F
:10103000306880073FF554AFFFF77CFD401B022866
:10104000F6D984E0A068012805D005284ED1306F7C
:1010500040F004003067306F40F0010030674FE02F
:101060000021C0F8801EFFF765FD0546706F800700
:101070007FF540AFFFF75EFD401B0228F6D966E022
:101080000027C4F2472700203866FFF753FD022DE2
:1010900005460BD1306880015ED5FFF74BFD401B44
:1010A00002284FF00300F5D955E700BF30688001F2
:1010B0007FF550AFFFF73EFD401B02284FF00300C5
:1010C000F4D948E70020C4F2472000210160FFF76F
:1010D00031FD0546306880077FF509AFFFF72AFD2F
:1010E000401B02284FF00300F4D934E7316F002889
:1010F00021F001013167316F21F0040131674DD0DA
:10110000FFF718FD054641F2883700BF306F8007B2
:1011100056D4FFF70FFD401BB842F7D917E000BFC8
:101120003168002821F480313160316821F4802158
:1011300031604FD0FFF7FEFC054600BF30688003EA
:101140003FF5B7AEFFF7F6FC401B6428F6D9032045
:1011500002B0BDE8F08100BF04F11C052FCD0843AB
:1011600040EA8210D9034FF6FF729143A1F5803116
:1011700040EA05600843706001203866FFF7DAFC3A
:10118000044600BF306880013FF5E4AEFFF7D2FCB3
:10119000001B02284FF00300F4D9DCE6FFF7CAFC7D
:1011A000054641F2883700BF306F800708D5FFF74A
:1011B000C1FC401BB8424FF00300F5D9CBE600BF9D
:1011C000B8F1000F7FF499AE306C20F0805030649D
:1011D00093E600BFFFF7AEFC054600BF3068800312
:1011E0007FF567AEFFF7A6FC401B64284FF00300B5
:1011F000F4D9B0E6411E0020B0EB116F1CBF0120F6
:1012000070474EF21002CEF2000251604EF62351AA
:10121000CEF20001F0230B7007219060116070473F
:10122000704700007047000010B590F83C20012A7C
:101230004FF002023ED080F83D200268D2F804E070
:10124000D2F808C00C682EF07003234340F6FF3438
:10125000C4F20004A242536010DCB2F1804F1ED0F1
:1012600040F20043C4F200039A4218D040F6000353
:10127000C4F200039A4212D016E000BF40F60043C9
:10128000C4F200039A420AD044F20003C4F20103FC
:101290009A4204D00023C4F201039A4204D149685F
:1012A0002CF08003194391600121002280F83D1049
:1012B00080F83C20104610BD002804BF0120704774
:1012C00010B5044690F83D0028B9002084F83C0091
:1012D000204600F01FF8022084F83D002068211D00
:1012E00000F0DCFF012084F8460084F83E0084F81A
:1012F0003F0084F8400084F8410084F8420084F8FC
:10130000430084F8440084F8450084F83D00002040
:1013100010BD000080B586B00068002100F140409B
:101320004FEAB02003280591CDE903110291019104
:1013300000F29E80DFE800F0021C526C002000905A
:1013400043F64000C4F202000168002241F00101AE
:1013500001600068002100F00100009000981C204E
:10136000FFF76CFC1C2006B0BDE88040FFF752BCC4
:10137000002043F640010090C4F202010A6842F0E6
:1013800002020A600A6802F002020092009A0090CB
:1013900051F8102C42F0020241F8102C51F8101CA8
:1013A00001F0020100910099012101910221CDE992
:1013B0000210CDE904010020C4F2020000F58060B3
:1013C00001A9FFF7DDFA1D2000210022FFF736FCFE
:1013D0001D20FFF71FFC06B080BD00BF002000905D
:1013E00043F64000C4F202000168002241F004010B
:1013F00001600068002100F00400009000981E20A9
:10140000FFF71CFC1E2006B0BDE88040FFF702BCC1
:10141000002043F640010090C4F202010A6842F045
:1014200008020A600A6802F008020092009A00901E
:1014300051F8102C42F0010241F8102C51F8101C08
:1014400001F00101009100990221CDE90300002083
:10145000CDE901110591C4F2020001A9FFF790FA4C
:10146000322000210022FFF7E9FB3220FFF7D2FBF8
:1014700006B080BD90F83D1001291CBF01207047C7
:10148000022180F83D10006840F6FF32C168C4F2C6
:101490000002904241F00101C1600FDCB0F1804FC9
:1014A0001DD040F20041C4F20001884217D040F63E
:1014B0000001C4F20001884211D017E040F600415B
:1014C000C4F2000188420AD044F20001C4F20101D2
:1014D000884204D00021C4F20101884206D181680B
:1014E00001F00701062904BF00207047016841F0A0
:1014F000010101600020704780B590F83C20012A6E
:101500004FF0020200F0C28080F83D20D0F800C009
:101510004FF67772DCF8083023EA0202CCF8082094
:101520000B684F2B28DC1F2B44DD202B45D0302BA4
:1015300043D0402B40F0AC80D1F804E0C968DCF81F
:101540002030DCF8202022F00102CCF82020DCF84A
:10155000182022F0F00242EA011123F00A0242EAC6
:101560000E02CCF81810CCF82020DCF8081041F05E
:10157000470121F0300180E06F2B27DDB3F5005FDC
:1015800048D0B3F5805F7AD0702B40F08180D1E9EC
:1015900001E3C968DCF8082043EA0E0322F47F4225
:1015A00043EA01211143CCF80810DCF8081041F09F
:1015B000770162E00BB1102B6AD1DCF8081021F042
:1015C0007001194341F0070157E000BF502B35D09F
:1015D000602B5DD1D1F804E0C968DCF82030DCF87C
:1015E000202022F01002CCF82020DCF8182022F471
:1015F000704242EA013123F0A00242EA0E12CCF816
:101600001810CCF82020DCF8081041F0670121F018
:10161000100132E0D1E901E3C968DCF8082043EAAF
:101620000E0322F47F4243EA01211143CCF8081053
:10163000DCF8081041F480411FE000BFD1F804E05D
:10164000C968DCF82030DCF8202022F00102CCF858
:101650002020DCF8182022F0F00242EA011123F0E9
:101660000A0242EA0E02CCF81810CCF82020DCF86E
:10167000081041F0570121F02001CCF80810002299
:10168000012180F83D10002180F83C10104680BDFB
:101690000122F5E72DE9F0410446006840F60041DB
:1016A000C4F2000188420BD040F20041C4F20001B4
:1016B00088422ED1217F04292BD1082106E000BFCA
:1016C000217F022918BFBDE8F081042140F2800685
:1016D000C2F20006F2686AB1326AEAB1F169013910
:1016E000F161F169002904BF0021316200214162EA
:1016F000F1600EE0204600F087FD30600120F060D0
:10170000F1690131F161F169022904BF3062BDE87C
:10171000F081BDE8F08100BF204600F075FD316822
:101720007060884202DD401A0AE000BF09DA227FB9
:101730004FF6FF73401A022A08BF4FF0FF331844D8
:10174000B060207F40F200080228C2F200081BD1DE
:10175000D8F80010B068012902D1C1087C290AD844
:10176000B0F57A7FD8F800004FF0FF3138BF012183
:101770000844C8F80000D8F80800013037D0D8F87D
:101780000800142740081EE0D8F80410D8F80020FC
:10179000B068914202D1B0F57A7F11D3D8F8041025
:1017A000012902D1C1087C290AD8B0F57A7FD8F87E
:1017B00004004FF0FF3138BF01210844C8F804008D
:1017C000D8F808000227354655F8241F88622846B5
:1017D000042100F0C7FB55F81C0CB0F57A7F4FF0E0
:1017E000010038BF012745F8147CC8F80C00F069E7
:1017F00000210138F061F069002804BF0020306248
:1018000020684162F160BDE8F0810000F0B590F819
:101810003C30012B04BF0220F0BD4FEAB202032A84
:101820002CD8DFE802F003314F6F00BF0368D1E925
:1018300000C5D1F80CE01C6A1A6A40F6FF3722F0A6
:1018400001021A621A4652F8186FC4F20007BB422E
:1018500000F37E80B3F1804F00F08B8040F20047B0
:10186000C4F20007BB4200F0848040F60007C4F2D7
:101870000007BB4200F07D8096E000BF01210022FE
:1018800080F83C200846F0BD0368D1E900E6D1E9C4
:1018900002C11C6A1A6A360222F010021A621A4643
:1018A00052F8185F4FF2FF07BE4325F4734561F30A
:1018B0000F3624F0A0040EF00A0746EA050144EAB8
:1018C00007173CE00768D1E900C5D1E902313C6A5D
:1018D0003A6A61F3071522F480723A623A4652F886
:1018E0001C6F26F0F30645EA060124F420660CF08E
:1018F0000A0546EA052611603E62116821F00C01D6
:10190000116047E00368D1E900E6D1E902C11C6A31
:101910001A6A360222F480521A621A4652F81C5F82
:101920004FF2FF07BE4325F4734561F30F3624F4ED
:1019300020440EF00A0746EA050144EA0737116021
:101940001F6211684FEA0C2321F44061116021E00D
:1019500040F60047C4F20007BB420AD044F2000739
:10196000C4F20107BB4204D00027C4F20107BB4206
:101970001AD126F00306354324F00A070CF00A06B4
:101980006EF3071537449D611F629F6927F00C07AE
:101990009F618B681168194311600021002280F853
:1019A0003C200846F0BD00BF46F00105E4E700001A
:1019B000002804BF0120704710B5044690F83D0090
:1019C00028B9002084F83C00204600F01FF80220CF
:1019D00084F83D002068211D00F060FC012084F89F
:1019E000460084F83E0084F83F0084F8400084F804
:1019F000410084F8420084F8430084F8440084F8ED
:101A0000450084F83D00002010BD00007047000034
:101A100051B308290AD0042919BF00F1410200F18D
:101A2000450300F13F0200F1430303E000F14002EF
:101A300000F1440312781B78012A4FF0010208BF1D
:101A4000012B01D0104670470222082922D0042918
:101A50002CD180F83F2080F843204FEAB103032BBC
:101A60004FF00102EED82BE090F83E2090F8423083
:101A7000012A4FF0010208BF012BE3D1022280F8B6
:101A80003E2080F842204FEAB103032B4FF00102C1
:101A9000D8D815E080F8402080F844204FEAB10300
:101AA000032B4FF00102CDD80AE000BF80F841209F
:101AB00080F845204FEAB103032B4FF00102C1D853
:101AC00042F6886C0068C0F6000C5CF823C0C3685E
:101AD00001F01F0143EA0C03C360036A02FA01F13B
:101AE00023EA01020262026A114340F6FF32C4F2A5
:101AF0000002904201620FDCB0F1804F1DD040F235
:101B00000041C4F20001884217D040F60001C4F23F
:101B10000001884211D017E040F60041C4F20001F4
:101B200088420AD044F20001C4F20101884204D084
:101B30000021C4F20101884206D1816801F0070149
:101B4000062904BF002070470168002241F001010E
:101B5000016010467047000070B504460068C56813
:101B60000669B10716D515F0020113D06FF0020116
:101B70000161012121778069800703D02046FFF7AA
:101B800089FD05E0204600F0B7F8204600F0E8F9AE
:101B900000202077700719D515F0040016D02068B2
:101BA0006FF00401016102212177806910F4407F08
:101BB00004D02046FFF76EFD06E000BF204600F08F
:101BC0009BF8204600F0CCF900202077300717D58D
:101BD00015F0080014D020686FF00801016104219D
:101BE0002177C069800703D02046FFF753FD05E049
:101BF000204600F081F8204600F0B2F9002020775E
:101C0000F00619D515F0100016D020686FF01001FD
:101C1000016108212177C06910F4407F04D020467B
:101C2000FFF738FD06E000BF204600F065F82046CB
:101C300000F096F900202077F00718BF15F001009A
:101C400002D1300609D412E020686FF00101016171
:101C5000204600F05DFA300609D515F0800006D068
:101C600020686FF0800101612046FFF7D9FA700605
:101C700009D515F0400006D020686FF040010161E1
:101C8000204600F0DBFAB00658BF70BD15F020000A
:101C900008D021686FF0200220460A61BDE870403C
:101CA000FFF7C0BA70BD000080B586B00068B0F123
:101CB000804F01D006B080BD002043F63001019076
:101CC000C4F202010A6842F002020A60096801F0E7
:101CD000020101910199082101910221CDE902102F
:101CE00004900120059040F20040C4F2020001A9D6
:101CF000FEF746FE06B080BD704700002DE9F043B8
:101D000090F83C30012B04BF0220BDE8F0834FEA7D
:101D1000B202032A3AD8DFE802F003417DB900BFDE
:101D2000036800261D6A1A6AC4F2010622F0010245
:101D30001A621A465C6852F818CFB3428E68D1F81E
:101D400000E025F0020545EA06050CD1CE68D1E990
:101D5000057824F4407425F00C0526F004063C4375
:101D6000354344EA08042CF0730747EA0E075C6029
:101D70009F614F6809695F631D629F6947F00807AB
:101D80009F619F6927F004079F61AEE00121002257
:101D900080F83C200846BDE8F08300BF03680026B9
:101DA0001D6A1A6AC4F2010622F010021A621A466B
:101DB000D3F804C052F8184FB3428E68D1F800E04F
:101DC00025F0200545EA061510D1CE68D1E9058732
:101DD00025F0C0096FF0400505EA06152CF44066B1
:101DE00047EA080745EA090546EA870C24F4E64471
:101DF00044EA0E27C3F804C09F614F6809699F63D6
:101E00001D629F6947F400679F619F6927F480679F
:101E10009F6169E0036800261D6A1A6AC4F2010620
:101E200022F480721A621A46D3F804C052F81CEFEA
:101E3000B3428E680C6825F4007545EA062511D179
:101E4000CE68D1E9058725F44069360240F2FF45A6
:101E500026EA05052CF4405647EA080745EA090535
:101E600046EA071C2EF073072743C3F804C0DF615E
:101E70004F680969DF631D62DF6947F00807DF61AA
:101E8000DF6927F00407DF612FE000BF0368002748
:101E9000D3F820C01A6AC4F2010722F480521A62F1
:101EA0001A465C6852F81C5FD1F800E08E68BB42AD
:101EB00004D14F6924F4804444EA87142CF4005779
:101EC00047EA063725F4E64646EA0E265C60DE6100
:101ED0004E6809691E641F62DF6947F40067DF61AD
:101EE000DF6927F48067DF61090213681943116015
:101EF0000021002280F83C200846BDE8F083000065
:101F0000002804BF0120704710B5044690F83D003A
:101F100028B9002084F83C00204600F01FF8022079
:101F200084F83D002068211D00F0B8F9012084F8F4
:101F3000460084F83E0084F83F0084F8400084F8AE
:101F4000410084F8420084F8430084F8440084F897
:101F5000450084F83D00002010BD000070470000DF
:101F60007047000041B1082910D0042914BF00F1C6
:101F7000410200F13F020BE090F83E20012A1CBF15
:101F800001207047022280F83E2013E000F1400259
:101F90001278012A1CBF012070470222082907D0AD
:101FA000042914BF80F8412080F83F2002E000BFE0
:101FB00080F84020006801F01F010122036A8A4076
:101FC00023EA02010162036A4421C4F201011A43B7
:101FD000A1F144039842026216D040F6FF31C4F2E8
:101FE000000188421ADCB0F1804F28D040F2004155
:101FF000C4F20001884222D040F60001C4F2000180
:1020000088421CD022E000BF0A6842F400420A6005
:1020100040F6FF31C4F200018842E4DD40F60041A1
:10202000C4F2000188420AD044F20001C4F2010166
:10203000884204D00021C4F20101884206D181689F
:1020400001F00701062904BF00207047016841F034
:10205000010101600020704780B5026801F01F0C8B
:10206000012303FA0CFE136A40F2440C23EA0E0328
:10207000C4F2010C1362D2F820E0ACF144039A429E
:10208000C2F820E013D15CF824EC41F211131EEAEF
:10209000030F0CD1D2F820E040F244431EEA030FB4
:1020A00005D1DCF8003023F40043CCF80030D2F83E
:1020B00020C041F211131CEA030F06D1D2F820C050
:1020C00040F244431CEA030F14D0082918D0042915
:1020D0000AD000294FF0010114BF80F8411080F8A8
:1020E0003E10002080BD00BF012180F83F1000207D
:1020F00080BD00BF136823F0010313600829E6D1F7
:10210000012180F84010002080BD00000000000088
:1021100070B5006840F60001C4F20001884218BFA3
:1021200070BD40F20005C2F20005E86840F280068A
:102130000128C2F2000616D1706940F64052013003
:10214000706170693169C0F2030281FB021282EA98
:10215000E0724840104306D106F124000421FFF745
:102160007BFF00207061B0690130B061B069B0F5EB
:102170007A7F14D140F2EC04C2F200042046FEF74C
:1021800079FB20464FF0FF31FEF7F6FA2046FEF7C6
:102190000DFAA860A868716A88620020B061306A90
:1021A000012823D1706A816AC06A01310130484335
:1021B00000F0EDFD9FED120B02460B4651EC100BAB
:1021C00000F05CFC00F0B4FD41F2597120EAE070CF
:1021D000CDF2B711A0FB0112510B42F2107201FBBC
:1021E0001200BDE8704000F0DBB800BF28686968E5
:1021F00000F080FBBDE8704000F0D2B800BF00BF27
:102200000000000080846E414FEAB101032984BFC1
:1022100000207047DFE801F0020E060A0068343043
:102220000068704700683C300068704700684030C4
:1022300000687047006838300068704770470000D9
:10224000FEE70000FEE70000FEE700007047000028
:1022500070470000FEF774BC4EF68850CEF20000C6
:10226000016841F4700101607047000040F2A40071
:10227000C2F20000FFF770BC40F23410C2F200005E
:10228000FFF76ABC40F27C10C2F20000FFF764BCAA
:1022900040F2C410C2F20000FFF75EBC10B540F27D
:1022A000FF7E0368C4F2000E40F2000C7045C4F2D9
:1022B000010C1DDD40F60002C4F20002904220D065
:1022C00060451ED040F60042C4F20002904218D091
:1022D0004FF6FF72C4F2000290421CDC704525DC10
:1022E000B0F1804F3AD040F20042C4F2000233E035
:1022F000B0F1804F05D040F20042C4F2000290429B
:10230000E6D14A6823F0700313434FF6FF72C4F21C
:1023100000029042E2DD44F2FF32C4F20102904238
:1023200010DC60451AD044F2000213E040F60002CF
:10233000C4F20002904211D040F60042C4F2000202
:102340000AE000BF44F60002C4F20102904205D048
:1023500044F20042C4F20102904203D1CA6823F45D
:102360004073134323F080024B69D1F800E08C687E
:102370001A4360450260C462C0F828E002D10969CE
:10238000CCF83010012141610169C90708BF10BDB7
:10239000016921F00101016110BD0000FEE70000AC
:1023A0002DE9F04381B044F6D351C1F2620150FBF4
:1023B00001F18A1102EBD17146F26762C6F26662E0
:1023C00051FB02F39F1007EBD37303EB8303A1EBE5
:1023D000430648F21F51C5F2EB1150FB01F14B11BE
:1023E00003EBD17151FB02F39F1007EBD37303EBA7
:1023F0008303A1EB430550FB02F18B1003EBD1717A
:1024000051FB02F2931003EBD27202EB820240F214
:102410000044A1EB420701EB810142F6A869C4F236
:102420000204A0EB4108C0F600098EB1204620212D
:102430000022FEF779FB19F8060000F077FAFE207B
:1024400000F074FA204620210122FEF76DFB00E027
:10245000B5B3204620210022FEF766FB19F80500DF
:1024600000F064FAFD2000F061FA204620210122EC
:10247000FEF75AFB204620210022FEF755FB19F8F3
:10248000070000F053FAFB2000F050FA204620210C
:102490000122FEF749FB204620210022FEF744FBE3
:1024A00019F8080000F042FAF72000F03FFA204641
:1024B0002021012201B0BDE8F043FEF735BB00BF8B
:1024C000002FD7D1B8F1000FE5D101B0BDE8F083FE
:1024D00094B043F6300547F20009C4F20205C4F295
:1024E0000009FEF73BFB06AC201D2C21FDF73CFF4D
:1024F00000260596CDE90366CDE9016612962869A6
:1025000040F080502861286900F0805012901298A5
:102510001296D9F8000040F44040C9F80000D9F8FC
:10252000000000F440401290129802200690012012
:10253000099010200A9020460C96FEF7A1FC18B1D5
:1025400072B600BFFEE700BF0F20CDE9010601A86B
:102550000021CDE903660596FEF7ACFB10B172B61B
:10256000FEE700BF00270A970197286809F5C834DD
:1025700040F080002860286840F2004800F08000A9
:1025800001900198019728684FF4507140F00100C4
:1025900028602868002200F001000190019801974E
:1025A0002868C4F2000840F00200286028684FF450
:1025B000507600F00200019001982046FEF7B4FA30
:1025C00009F5CA352846202100224FF0200AFEF7DF
:1025D000ABFA069606AE4FF0010B20463146CDE928
:1025E00007B70997FEF7CCF928463146CDE906AB87
:1025F000CDE90877FEF7C4F940F23410C2F20000CA
:102600004FF6FF710997CDE90777CDE91277C0E959
:102610000087C0E9027107618761FEF74DFE18B1BE
:1026200072B600BFFEE700BF4FF48050069040F244
:102630003410C2F2000006A9FEF75EFF10B172B6B8
:10264000FEE700BF40F23410C2F20000FFF7B0F91D
:1026500010B172B6FEE700BF40F23410C2F20000C3
:1026600012A9FEF7E1FD18B172B600BFFEE700BF88
:1026700000240120CDE9020440F23410C2F200002F
:1026800001A9082201940494FFF7C0F810B172B6B2
:10269000FEE700BF40F27C1008F58061C2F2000046
:1026A00063230494CDE90244CDE91244CDE90B44FF
:1026B000CDE909440F2280E81600C0E903348461A3
:1026C000FEF7FAFD10B172B6FEE700BF4FF480507E
:1026D000019040F27C10C2F2000001A9FEF70CFF4D
:1026E00010B172B6FEE700BF40F27C10C2F20000EB
:1026F000FFF706FC10B172B6FEE700BF40F27C1097
:10270000C2F2000012A9FEF78FFD08B172B6FEE713
:102710006020069040F27C100024C2F2000006A95E
:102720000C22CDE907440A94FFF7E8FA10B172B61B
:10273000FEE700BF40F2C41008F50061C2F20000DD
:102740006FF001030994CDE90744CDE9124443F643
:102750007F6280E81600C0E903348461FEF7ACFDB7
:1027600010B172B6FEE700BF4FF48050069040F201
:10277000C410C2F2000006A9FEF7BEFE10B172B688
:10278000FEE700BF40F2C410C2F20000FFF710F9EC
:1027900010B172B6FEE700BF40F2C410C2F20000F2
:1027A00012A9FEF741FD08B172B6FEE70A200190BA
:1027B0000120029040F2C4100024C2F2000001A9DE
:1027C0000422CDE90344FFF721F808B172B6FEE711
:1027D00040F28005C2F200054FF08041284640F8E3
:1027E000241F42F20F7140F23F620494CDE902448B
:1027F000CDE91244CDE90B44CDE90944C0E9011407
:10280000C0E903248461FEF757FD08B172B6FEE704
:102810004FF4805005F12404019001A92046FEF7F1
:102820006BFE08B172B6FEE72046FFF769FB08B100
:1028300072B6FEE712A92046FEF7F6FC10B172B69A
:10284000FEE700BF602006904FF4FA500790002585
:1028500006A92046042208950A95FFF74FFA08B109
:1028600072B6FEE72046FFF71FFA40F2EC000123A4
:1028700009F53041C2F200004FF00072C0F600735B
:1028800001240995057680F82050C0E90A35C46115
:1028900080F83050C0E90015C0E90225C0E90454B1
:1028A000FDF788FE10B172B6FEE700BF0020CDE94B
:1028B000060440F2EC00C2F2000006A90894FDF7FD
:1028C000BBFD08B172B6FEE740F27C10C2F2000018
:1028D000FEF7D0FD40F2C410C2F200000421FFF761
:1028E00097F840F23410C2F200000821FFF790F888
:1028F000FEE70000F0B581B0054601294FF0010068
:1029000012D00C468D420FD0002700BF6E1E3046FD
:102910002146FFF7EFFF611E0129074403D0A542BE
:102920000C463546F2D1781C01B0F0BDF0B581B04F
:102930000024C4F20204054647B220464FF48071D9
:1029400000220026FEF7F0F8B7F1FF3FC8BF0126CE
:1029500020464FF400713246FEF7E6F820464FF469
:10296000807101220126FEF7DFF820464FF48071C6
:102970000022FEF7D9F826EA951220464FF400719E
:10298000FEF7D2F820464FF480710122FEF7CCF812
:1029900020464FF480710022FEF7C6F826EA551251
:1029A00020464FF40071FEF7BFF820464FF48071C7
:1029B0000122FEF7B9F820464FF480710022FEF79D
:1029C000B3F826EA151220464FF40071FEF7ACF872
:1029D00020464FF480710122FEF7A6F820464FF4FE
:1029E00080710022FEF7A0F826EAD50220464FF4B7
:1029F0000071FEF799F820464FF480710122FEF72E
:102A000093F820464FF480710022FEF78DF826EAF5
:102A1000950220464FF40071FEF786F820464FF4E9
:102A200080710122FEF780F820464FF48071002269
:102A3000FEF77AF826EA550220464FF40071FEF7B9
:102A400073F820464FF480710122FEF76DF820469E
:102A50004FF480710022FEF767F826EA050220464F
:102A60004FF40071FEF760F820464FF480710122A8
:102A700001B0BDE8F040FEF757B800002DE9C041B5
:102A800030B4DFF8A4C23CEA111418BF3CEA1314B6
:102A900000F0ED801CEA111481EA030544EAD574C4
:102AA00018BF1CEA131500F0C880A4EB050404F15C
:102AB0007F7404F500344FF0004545EAC12145EA32
:102AC000C32341EA505143EA52534FEAC0204FEA30
:102AD000C222994208BF904200F09D804FEA1365E0
:102AE0000FF24416765D4FEA134506FB05F7C7F172
:102AF000807706FB07F74FEAD737A7FB03687642D4
:102B0000A7FB06CEC8F5803838BFA8F1010807FB3F
:102B100008E6A6FB028C4FF0000EE6FB03CEDCF1CC
:102B2000000CCEF1004E38BFAEF1010EA6FB0C58E2
:102B30004FF00007E6FB0E87A1FB08C6A0FB07CEFF
:102B400016EB0E064FF0000545F10005E1FB0765A9
:102B500015F1E04E7EBFA4F580345FEA46066D4174
:102B600016F1800745F100054FEA172747EA056788
:102B70004FEA15254FEA0666A6F1DE46B6F1805FFC
:102B800020D9384605EBC47124F0010C01EB0C117F
:102B9000BCF1FE6F02D8F0BCBDE8008124425CBFEE
:102BA00001F5801E9EEAC47F02D4F0BCBDE800811E
:102BB000244200F13980A1F1C041F0BCBDE80041E0
:102BC00000F046B94FEAD02040EA41504FEAD12107
:102BD0004FEAD22242EA43524FEAD323A7FB0286AE
:102BE00007FB036605FB02661EEA0E0F58BFA6EB45
:102BF0000056B6EB00564FEA520E4EEAC37E18EB73
:102C00000E0E56EB530EBCD518EB02085E417F1C2E
:102C100055F10005B5E74FF480154FF000074FF070
:102C200000064FF00008ACE701F1C04101F000419F
:102C30004FF00000F0BCBDE800810CEA131511EA6A
:102C40000C1F00D00CE013EA0C1F00F026804FF0A0
:102C5000000081EA030101F00041F0BCBDE8008101
:102C6000F0BCBDE8004181EA030100F0F1B8F0BC1E
:102C7000BDE8004170B500F09DF800BF097EFC3E44
:102C800000F007B84FF0000081EA030101F00041B5
:102C9000704781EA030100F0DBB8F0BCBDE80041F9
:102CA00022494FF000007047FFFDFBF9F7F5F4F201
:102CB000F0EEEDEBE9E8E6E4E3E1E0DEDDDBDAD8D7
:102CC000D7D5D4D3D1D0CFCDCCCBCAC8C7C6C5C435
:102CD000C2C1C0BFBEBDBCBBBAB9B8B7B6B5B4B34C
:102CE000B2B1B0AFAEADACABAAA9A8A8A7A6A5A437
:102CF000A3A3A2A1A09F9F9E9D9C9C9B9A999998FB
:102D00009797969595949393929191908F8F8E8E9D
:102D10008D8C8C8B8B8A898988888787868585842A
:102D200084838382828181800000FF070000F87F16
:102D30004FEA41034FEA5353A3F58063D3F11E03D7
:102D4000C8BFD3F1210C0CDD4FF0004242EAC12292
:102D500042EA505232FA03FC8CEAE17CACEBE170BF
:102D60007047102BC4BF0020704703F5787CBCF17E
:102D7000FF3F04D06FF0004282EA2100704770B537
:102D800000F018F84992248000207047F2E7B0FA6A
:102D900080F310FA03F10AD0C3F11D0303F5806339
:102DA0004FEA03524FEA415002EBD12170474FF0F6
:102DB000000070470EF1020E2EF0030E5EF8046B59
:102DC000364205D4012A43EB030515F5001F12D83E
:102DD000012841EB010C1CF5001F0CD80ED14FEA65
:102DE000D17C0CEB4C0C0CF1020C15F5001F08BF4C
:102DF0004CEBD37C04E04FF0080C01E04FEAD37CAD
:102E00000CEB4C0526FA05F606F00706B6F1040CA5
:102E100006D20EEB860CBDE870404CF0010C60470A
:102E2000DFE80CF0090B02024FF00041A1F5002190
:102E30004FF0000070BD19461046012851EB010407
:102E400018BFD4F5001484BF002001F0004170BD0C
:102E50000808A0F500114FEA31017047F1EE100AA1
:102E60004FF6FF71C0F2C03120EA010040F040701F
:102E7000E1EE100A704700000000000000000102AF
:102E80000304060708090000020000000400000017
:102E90000800000010000000FDFFFFFFFBFFFFFF28
:102EA000F7FFFFFFEFFFFFFF3F065B4F666D7D07FC
:102EB0007F6F0000D82E00080000002020000000D6
:102EC000D4010008F82E000820000020F0070000C0
:102ED000F0010008000000000700000005000000ED
:102EE000FFFFFFFF010000000100000010000000D4
:082EF0000024F40000000000C2
:040000050800019955
:00000001FF
