:020000040800F2
:100000004808002039020008652400085D24000823
:100010006124000831040008C52500080000000024
:100020000000000000000000000000006D24000837
:10003000350400080000000069240008712400084D
:10004000530200085302000853020008530200083C
:10005000530200085302000853020008530200082C
:10006000530200085302000853020008530200081C
:10007000530200085302000853020008530200080C
:100080005302000853020008530200080000000059
:100090000000000000000000000000005302000803
:1000A0005302000853020008530200088924000884
:1000B00095240008A1240008AD240008530200087C
:1000C00053020008530200085302000853020008BC
:1000D0005302000853020008530200080000000009
:1000E00053020008530200085302000800000000F9
:1000F00000000000000000000000000053020008A3
:100100000000000053020008B92400085302000850
:1001100000000000000000000000000000000000DF
:10012000530200085302000853020008530200085B
:100130005302000800000000000000000000000062
:100140000000000000000000000000005302000852
:10015000530200085302000853020008530200082B
:1001600053020008530200080000000000000000D5
:10017000000000000000000000000000000000007F
:100180000000000053020008000000000000000012
:10019000530200085302000800F002F800F03CF897
:1001A0000AA090E8000C82448344AAF10107DA45D2
:1001B00001D100F031F8AFF2090EBAE80F0013F0E8
:1001C000010F18BFFB1A43F0010318471C2B000056
:1001D0003C2B0000103A24BF78C878C1FAD85207E7
:1001E00024BF30C830C144BF04680C6070470000B1
:1001F0000023002400250026103A28BF78C1FBD830
:10020000520728BF30C148BF0B6070471FB502F0CE
:1002100040FD1FBD10B510BD00F0D0F81146FFF72E
:10022000F5FF02F0D1F900F0EEF803B4FFF7F2FFAA
:1002300003BC00F0F5F80000094880470948004772
:10024000FEE7FEE7FEE7FEE7FEE7FEE7FEE7FEE786
:10025000FEE7FEE704480549054A064B70470000E3
:100260007524000899010008480200204808002071
:10027000480400204804002053EA020C00F0698082
:100280002DE9F04B4FF00006002B1FBFB3FA83F5AA
:1002900003FA05F424FA05F65E4012BF1643B2FADB
:1002A00082F502FA05F4C5F120051EBF22FA05FC0D
:1002B00044EA0C04203556EA044C4FEA144418BFB3
:1002C000641C4FF000084FF00009904271EB030CE2
:1002D00039D3002919BFB1FA81F701FA07F6B0FA4C
:1002E00080F700FA07F6C7F120071EBF20FA07FCC7
:1002F00046EA0C062037B6FBF4FCA7EB0507103FD7
:1003000007F01F0BCBF120062CFA06F60CFA0BFBBC
:1003100044BFB3460026202FA4BF5E464FF0000B1B
:100320005BEA060C08BF4FF0010B19EB0B0948EB19
:100330000608ABFB027C06FB02CC0BFB03CCC01B0C
:1003400071EB0C01C1E70B46024641464846BDE849
:10035000F08B13B5084318BF4FF0FF300146AFF3E1
:100360000080BDE81C4070474FF0000200B5134606
:1003700094469646203922BFA0E80C50A0E80C50C5
:10038000B1F12001BFF4F7AF090728BFA0E80C5076
:1003900048BF0CC05DF804EB890028BF40F8042B6F
:1003A00008BF704748BF20F8022B11F0804F18BFDC
:1003B00000F8012B7047704770477047754600F092
:1003C0002BF8AE4605006946534620F007008546E7
:1003D00018B020B5FFF73EFFBDE820404FF0000603
:1003E0004FF000074FF000084FF0000BAC46ACE8B0
:1003F000C009ACE8C009ACE8C009ACE8C00921F00C
:1004000007018D46704710B50446AFF300802046C3
:10041000BDE81040FFF709BF0048704720000020EA
:1004200001491820ABBEFEE726000200704700001D
:10043000FEE700007047000070B581B00022009216
:1004400090F83C20012A03D10221084601B070BD7A
:100450000E6801220A2E80F83C2009D3B2B2520065
:10046000D0F800E012FA86F21E3A0EF10C0305E015
:10047000D0F800E006EB46020EF110034FF0070C37
:100480001D680CFA02F4A5431D608D681C6805FA0E
:1004900002F222431A60496806290FD801EB810154
:1004A0004A1F71461F2351F8345F934025EA030326
:1004B0000B60B3B203FA02F214E000BF01EB810358
:1004C0000C29B2B204D8714651F8304F233B03E0F7
:1004D000714651F82C4F413B1F259D4024EA0505EC
:1004E0009A400D600B6842F2043CC4F2010C1A43BE
:1004F000ACF541739E450A6006D0002180F83C109F
:10050000084601B070BD00BF1221112EC1F20001DA
:1005100018BF8E423AD1DCF800208E4222F48002CD
:10052000CCF80020DCF8002042F40002CCF80020D7
:10053000E3D140F21801C2F2000109684DF683626E
:10054000C4F21B32A1FB0212910C01EB81014900A4
:10055000009100990029D0D00099013900910099AB
:100560000029CAD000990139009100990029C4D00E
:1005700000990139009100990029BED000990139F4
:10058000009100990029E7D1B7E700BF122EB4D13E
:10059000DCF8001021F40001CCF80010DCF80010A9
:1005A00041F48001CCF80010A7E70000002804BF48
:1005B0000120704710B50446006C00283ED0206C26
:1005C000C00645D4206C41F202118843023042F249
:1005D00004312064C4F20101086820F4403008604E
:1005E0000A6894E809101A43D4F810E00A604168D8
:1005F000012321F4807141604168C0F6007341EA33
:100600000E214160416821F040714160416841EA3A
:100610000C014160816821F400618160E1688268B9
:1006200011438160A16A8268994222F070628260FF
:10063000826813D122F0405119E000BF204600F03B
:1006400065F80020606484F83C00206CC006B9D5D1
:100650000120002184F83C1010BD00BF11438160CF
:10066000816821F040518160E16A826811438160B4
:10067000816821F0020181608168227E94F8203037
:1006800041EA42018160416883B141F40061416007
:1006900041684EF2000221F460414160616ACFF688
:1006A000FF72436802EB4131194301E021F400611C
:1006B0004160C16A40F2000C21F47001C162E2693C
:1006C0006169CFF6F07CC36A0CEB02521A43C26236
:1006D000826822F40072826094F83020836843EAD2
:1006E00042228260826822F480628260826842EAEA
:1006F0008121816000206064216C012262F301018C
:100700002164002184F83C1010BD000080B586B043
:1007100042F200010068C4F2010100228842059201
:10072000049201D006B080BD43F630000092C4F2BE
:100730000200436943F480734361436903F48073A7
:100740000093009B0092036843F00103036000687C
:1007500000F0010000900098012001900320CDE9F5
:10076000020201F5604001A900F0A8F806B080BDC2
:1007700080B581B00021009190F83C10012903D18F
:10078000022001B080BD00BFD0F800E0012180F858
:100790003C10714651F8083FDB072AD10B684DF633
:1007A000836243F001030B6040F21803C2F20003BE
:1007B0001B68C4F21B32A3FB02239A0C02EB420219
:1007C0000092009AAAB100BF009A013A0092009AE2
:1007D0007AB1009A013A0092009A52B1009A013A15
:1007E0000092009A2AB1009A013A0092009A002AD7
:1007F000EAD10A68036CD2070AD143F01001016400
:1008000000F1440101200A68104308603EE000BF87
:1008100040F2017223EA020202F580720264DEF8FD
:100820000420520504D5026C012363F30D320264E7
:10083000026C4FF0000C0023D20444BF426C22F043
:100840000603436480F83CC06FF02200CEF800003D
:10085000DEF8042042F2000042F0806242F0200202
:10086000C4F20100CEF80420D0F80423D20609D047
:1008700086450BD1806810F0405F07D14FF0804073
:10088000C1E700BF086810F0405FF7D0002001B05A
:1008900080BD0000B0B5044600F0EAF8054640F21D
:1008A0001000C2F200000078611C18BF044400BFB1
:1008B00000F0DEF8401BA042FAD3B0BD2DE9F04FA6
:1008C00082B000F13E4241F2000502F1FF77C4F22E
:1008D0000205072243F6004E4FEAB726A84208BF9A
:1008E0000422C4F2010E042E38BF4FEAB7220125BC
:1008F000002600274FF00008009208E008F10108E8
:100900000437B8F1100F06F1020600F0A7800C685A
:1009100005FA08F914EA090FF0D0D1F804B003225F
:100920000BF0030CACF10104B240012C6FEA020A97
:1009300010D88268CC6802EA0A02B440224382607E
:100940004268CBF3001422EA090204FA08F42243B5
:10095000426005E0BCF1030F02D14FF0030C20E030
:10096000C2688C6802EA0A02B4402243BCF1020F5A
:10097000C26016D16FF0030202EA58020244D2F8B4
:1009800020C007F01C050F230C69AB402CEA0303C1
:1009900004FA05F52B431362D1F804B001250BF0DE
:1009A000030C02680CFA06F302EA0A021A431BF46B
:1009B000403F0260A2D0002243F644030192C4F2F9
:1009C00002031A684FF6084C42F480421A601A6813
:1009D000CFF6FF7C02F480420192019A28F00302D4
:1009E000724452F80C3007F00C050F24AC40A343BE
:1009F000009C04FA05F52B4342F80C30DEF8082081
:100A00004B6842EA090543F60C4CDC0258BF22EA67
:100A10000905CEF80850C4F2010CDCF800209C0255
:100A200042EA090558BF22EA0905CCF80050DEF871
:100A300004209C0342EA090558BF22EA0905CEF8C2
:100A40000450DEF80020DB0342EA090558BF22EA21
:100A50000905CEF80050012550E700BF02B0BDE8FF
:100A6000F08F0000002A08BF090481617047000070
:100A700040F24420C2F200000068704740F21000CB
:100A800040F24421C2F20000C2F2000100780A687C
:100A9000104408607047000080B543F60040C4F27F
:100AA0000200016841F400710160016841F4806155
:100AB0000160016841F480710160032000F088F852
:100AC0000F2000F005F800F027F8002080BD00009E
:100AD00070B540F21006C2F2000640F218013278FA
:100AE000C2F200014FF47A730968B3FBF2F20446D4
:100AF000B1FBF2F1084600F01BFB0F2C4FF0010593
:100B000008D838B94FF0FF3021460022002500F008
:100B100033F87460284670BD82B0002043F640016F
:100B20000190C4F202014A6842F480424A604A6875
:100B300002F480420192019A0090086840F08050CF
:100B40000860086800F080500090009802B070477C
:100B5000002848BF7047C1B200F01F00012202FA0E
:100B600000F04EF20012CEF2000242EAD10121F072
:100B7000030108607047000010B54EF60C5CCEF221
:100B8000000CDCF80030C3F3022E8EF00704042CB6
:100B900028BF0424BEF103034FF0FF3E0EFA04F415
:100BA00038BF0023A14399400EFA03F39A4311433F
:100BB00000F00F0200F160430901043A03F56443B9
:100BC0006244002848BF02F10C03197010BD0000F8
:100BD0004EF60C51CEF200010A684FF6FF031A40A0
:100BE00060F30A2242F0806040F0FD7008607047B8
:100BF0002DE9F041002800F08B8043F60808C4F28C
:100C000002080446D8F8F8030D4600F007008842B1
:100C100007D288F8F853D8F8F80300F00700A84284
:100C200076D12068810717D5410705D5D8F800107F
:100C300041F4E051C8F80010010705D5D8F80010BC
:100C400041F46041C8F80010D8F80010A26821F003
:100C5000F0011143C8F80010C0073FD1D8F8F803DD
:100C600000F00700A84207D988F8F853D8F8F8032D
:100C700000F00700A8424BD12068410707D5D8F8FB
:100C80000010E26821F4E0511143C8F80010000799
:100C900008D5D8F80000216920F4604040EAC1007E
:100CA000C8F8000000F054F8D8F8001042F6AC4242
:100CB000C1F30311C0F60002515C40F2180220FAA1
:100CC00001F140F21400C2F200000068C2F200021A
:100CD0001160FFF7FDFE0020BDE8F0816068811E15
:100CE000022907D258F8081C89015CBF0120BDE821
:100CF000F08111E0012807D158F8081C89035CBF76
:100D00000120BDE8F08107E058F8081C890703D4EA
:100D10000120BDE8F08100BFD8F8001021F00301E8
:100D20000843C8F80000FFF7A3FE064641F28837E3
:100D3000D8F80000616800F00C00B0EB810F8DD096
:100D4000FFF796FE801BB842F2D90320BDE8F08180
:100D500010B543F60404C4F20204606800F00C000D
:100D600008280BD0042819BF42F20040C0F2F4005A
:100D70004BF68020C0F28C1010BD00BF20682168A7
:100D8000236849024BF68021C0F28C1100F03F022B
:100D9000C3F388105CBF42F20041C0F2F401A1FB32
:100DA00000010023FFF768FA21680222C1F3014124
:100DB00002EB4101B0FBF1F010BD00002DE9F04164
:100DC00082B0002868D00446007843F60006C007C9
:100DD000C4F202060BD0B06800F00C00042840F00A
:100DE0009F803068800302D56068002854D0207846
:100DF00080071AD5B06810F00C0F09D0B06800F069
:100E00000C00082840F0A6807068400200F1A28023
:100E10003068800702D5E06801283DD1306821693B
:100E200020F0F80040EAC10030602078000737D495
:100E3000207840074CD4A56955B3B06800F00C0089
:100E4000082840F0BB80012D26D07068E16900F4CD
:100E500080028A4220D1216A00F03F028A421BD1DF
:100E600047F6C071626A0140B1EB821F14D1A16ADA
:100E70004FF6FF73C903994300F44032A1F5803166
:100E80008A4209D1E16A00F07060B0EB016F03D1D2
:100E9000002002B0BDE8F081012002B0BDE8F08181
:100EA0006069002840F20000C4F2472076D001219A
:100EB000C0F8801EFFF7DCFD054600BF706F80079D
:100EC000B6D4FFF7D5FD401B0228F7D9DDE000BFFF
:100ED000306C10F080580AD100200190306C40F046
:100EE00080503064306C00F080500190019847F2DF
:100EF0000007C4F200073868C00541D4386840F4E0
:100F000080703860FFF7B4FD054600BF3868C00543
:100F100036D4FFF7ADFD401B0228F7D9B5E000BF7E
:100F2000B06800F00C00082803D1706840023FF55B
:100F300058AF6068B0F5803F07D0B0F5A02F40F003
:100F40008D80306840F480203060306840F480301C
:100F500030608DE0E068002852D00020C4F24720C5
:100F600001210160FFF784FD054600BF306880075E
:100F70003FF554AFFFF77CFD401B0228F6D984E013
:100F8000A068012805D005284ED1306F40F004003C
:100F90003067306F40F0010030674FE00021C0F84B
:100FA000801EFFF765FD0546706F80077FF540AF37
:100FB000FFF75EFD401B0228F6D966E00027C4F269
:100FC000472700203866FFF753FD022D05460BD159
:100FD000306880015ED5FFF74BFD401B02284FF0C3
:100FE0000300F5D955E700BF306880017FF550AFA9
:100FF000FFF73EFD401B02284FF00300F4D948E7FD
:101000000020C4F2472000210160FFF731FD0546B2
:10101000306880077FF509AFFFF72AFD401B0228E3
:101020004FF00300F4D934E7316F002821F00101BB
:101030003167316F21F0040131674DD0FFF718FDA2
:10104000054641F2883700BF306F800756D4FFF75E
:101050000FFD401BB842F7D917E000BF31680028E8
:1010600021F480313160316821F4802131604FD02A
:10107000FFF7FEFC054600BF306880033FF5B7AEC2
:10108000FFF7F6FC401B6428F6D9032002B0BDE848
:10109000F08100BF04F11C052FCD084340EA821007
:1010A000D9034FF6FF729143A1F5803140EA056004
:1010B0000843706001203866FFF7DAFC044600BF81
:1010C000306880013FF5E4AEFFF7D2FC001B022838
:1010D0004FF00300F4D9DCE6FFF7CAFC054641F205
:1010E000883700BF306F800708D5FFF7C1FC401B71
:1010F000B8424FF00300F5D9CBE600BFB8F1000FBE
:101100007FF499AE306C20F08050306493E600BFDD
:10111000FFF7AEFC054600BF306880037FF567AE81
:10112000FFF7A6FC401B64284FF00300F4D9B0E69B
:10113000411E0020B0EB116F1CBF012070474EF222
:101140001002CEF2000251604EF62351CEF20001A1
:10115000F0230B700721906011607047704700000A
:1011600070470000B0B590F83C20012A04BF02206F
:10117000B0BD01F108053CCDD1E900CE23F47C538C
:1011800022F470521A432EF4F0431A432CF4E04335
:101190001A4324F4C0431A432A43C96922F4804203
:1011A000036811435964002180F83C100846B0BD23
:1011B00010B590F83C20012A4FF002023ED080F892
:1011C0003D200268D2F804E0D2F808C00C682EF086
:1011D0007003234340F6FF34C4F20004A24253607C
:1011E00010DCB2F1804F1ED040F20043C4F2000385
:1011F0009A4218D040F60003C4F200039A4212D07B
:1012000016E000BF40F60043C4F200039A420AD041
:1012100044F20003C4F201039A4204D00023C4F252
:1012200001039A4204D149682CF08003194391606C
:101230000121002280F83D1080F83C20104610BDAE
:10124000002804BF0120704710B5044690F83D0007
:1012500028B9002084F83C00204600F01FF8022046
:1012600084F83D002068211D01F02CF9012084F84C
:10127000460084F83E0084F83F0084F8400084F87B
:10128000410084F8420084F8430084F8440084F864
:10129000450084F83D00002010BD000080B586B0F8
:1012A000006840F2FF71C4F2000188424FF0000173
:1012B0000591CDE90311CDE901112BDD40F60001C7
:1012C000C4F20001884265D040F60041C4F200013A
:1012D000884279D00021C4F20101884240F0A48004
:1012E0000020009043F64000C4F202004168002252
:1012F00041F0010141604068002100F001000090D0
:1013000000981B20FFF738FC1B2006B0BDE880408A
:10131000FFF71EBCB0F1804F00F0888040F2004122
:10132000C4F20001884240F07F80002043F6400173
:101330000090C4F202010A6842F002020A600A68E0
:1013400002F002020092009A009051F8102C42F034
:10135000020241F8102C51F8101C01F0020100911A
:101360000099012101910221CDE90210CDE904018A
:101370000020C4F2020000F5806001A9FFF79EFA88
:101380001D2000210022FFF7F7FB1D20FFF7E0FBE7
:1013900006B080BD0020009043F64000C4F2020079
:1013A0000168002241F0040101600068002100F0A2
:1013B0000400009000981E20FFF7DEFB1E2006B000
:1013C000BDE88040FFF7C4BB002043F64001009019
:1013D000C4F202010A6842F008020A600A6802F0D8
:1013E00008020092009A009051F8102C42F001027D
:1013F00041F8102C51F8101C01F0010100910099E6
:101400000221CDE903000020CDE901110591C4F2CC
:10141000020001A9FFF752FA322000210022FFF753
:10142000ABFB3220FFF794FB06B080BD002000909C
:1014300043F64000C4F202000168002241F00101BD
:1014400001600068002100F00100009000981C205D
:10145000FFF792FB1C2006B0BDE88040FFF778BB89
:1014600090F83D1001291CBF01207047022180F82F
:101470003D10006840F6FF32C168C4F2000290429D
:1014800041F00101C1600FDCB0F1804F1DD040F28E
:101490000041C4F20001884217D040F60001C4F2B6
:1014A0000001884211D017E040F60041C4F200016B
:1014B00088420AD044F20001C4F20101884204D0FB
:1014C0000021C4F20101884206D1816801F00701C0
:1014D000062904BF00207047016841F00101016046
:1014E0000020704780B590F83C20012A4FF002029E
:1014F00000F0C28080F83D20D0F800C04FF677722F
:10150000DCF8083023EA0202CCF808200B684F2BE5
:1015100028DC1F2B44DD202B45D0302B43D0402B23
:1015200040F0AC80D1F804E0C968DCF82030DCF889
:10153000202022F00102CCF82020DCF8182022F034
:10154000F00242EA011123F00A0242EA0E02CCF84C
:101550001810CCF82020DCF8081041F0470121F0E9
:10156000300180E06F2B27DDB3F5005F48D0B3F585
:10157000805F7AD0702B40F08180D1E901E3C968A7
:10158000DCF8082043EA0E0322F47F4243EA0121FB
:101590001143CCF80810DCF8081041F0770162E044
:1015A0000BB1102B6AD1DCF8081021F0700119433F
:1015B00041F0070157E000BF502B35D0602B5DD1C3
:1015C000D1F804E0C968DCF82030DCF8202022F0F3
:1015D0001002CCF82020DCF8182022F4704242EAF5
:1015E000013123F0A00242EA0E12CCF81810CCF818
:1015F0002020DCF8081041F0670121F0100132E0F2
:10160000D1E901E3C968DCF8082043EA0E0322F4BB
:101610007F4243EA01211143CCF80810DCF808109E
:1016200041F480411FE000BFD1F804E0C968DCF854
:101630002030DCF8202022F00102CCF82020DCF859
:10164000182022F0F00242EA011123F00A0242EAD5
:101650000E02CCF81810CCF82020DCF8081041F06D
:10166000570121F02001CCF808100022012180F858
:101670003D10002180F83C10104680BD0122F5E7A6
:10168000B0B50446006840F60041C4F2000188424B
:101690000AD040F20041C4F20001884278D1207F94
:1016A000042875D1082104E0207F022818BFB0BDAE
:1016B000042140F28005C2F20005286960B120468D
:1016C00000F0B0FEA860A868696888420ADDA868D2
:1016D0006968401A15E000BF204600F0A3FE68606C
:1016E000012054E06868A96888420BDD207F4FF62E
:1016F000FF71022808BF4FF0FF316868AA68081A16
:101700001044E860207F022840F20000C2F200008E
:1017100018D14168012903D1E968C9087C2933D867
:10172000E9684FF0FF32B1F57A7F416838BF012296
:1017300011444160E968CA0800217C2A88BF012160
:101740001FE000BF81684268914203D1E968B1F5AA
:101750007A7F19D38168012903D1E968C9087C29F6
:1017600012D8E9684FF0FF32B1F57A7F816838BF4F
:10177000012211448160EA680321B2F57A7F38BF03
:101780000221017001202870216800204862286130
:10179000B0BD0000F0B590F83C30012B04BF022032
:1017A000F0BD4FEAB202032A2CD8DFE802F0033181
:1017B0004F6F00BF0368D1E900C5D1F80CE01C6A87
:1017C0001A6A40F6FF3722F001021A621A4652F8EE
:1017D000186FC4F20007BB4200F37E80B3F1804F64
:1017E00000F08B8040F20047C4F20007BB4200F0DB
:1017F000848040F60007C4F20007BB4200F07D8001
:1018000096E000BF0121002280F83C200846F0BD90
:101810000368D1E900E6D1E902C11C6A1A6A3602FE
:1018200022F010021A621A4652F8185F4FF2FF07B0
:10183000BE4325F4734561F30F3624F0A0040EF087
:101840000A0746EA050144EA07173CE00768D1E9C0
:1018500000C5D1E902313C6A3A6A61F3071522F406
:1018600080723A623A4652F81C6F26F0F30645EA57
:10187000060124F420660CF00A0546EA05261160EC
:101880003E62116821F00C01116047E00368D1E964
:1018900000E6D1E902C11C6A1A6A360222F48052BB
:1018A0001A621A4652F81C5F4FF2FF07BE4325F436
:1018B000734561F30F3624F420440EF00A0746EA1C
:1018C000050144EA073711601F6211684FEA0C23D3
:1018D00021F44061116021E040F60047C4F20007A6
:1018E000BB420AD044F20007C4F20107BB4204D055
:1018F0000027C4F20107BB421AD126F00306354384
:1019000024F00A070CF00A066EF3071537449D61B0
:101910001F629F6927F00C079F618B68116819434C
:1019200011600021002280F83C200846F0BD00BF75
:1019300046F00105E4E70000002804BF01207047DD
:1019400010B5044690F83D0028B9002084F83C000A
:10195000204600F01FF8022084F83D002068211D79
:1019600000F0B0FD012084F8460084F83E0084F8C1
:101970003F0084F8400084F8410084F8420084F875
:10198000430084F8440084F8450084F83D000020BA
:1019900010BD00007047000051B308290AD0042987
:1019A00019BF00F1410200F1450300F13F0200F1CF
:1019B000430303E000F1400200F1440312781B7876
:1019C000012A4FF0010208BF012B01D010467047D9
:1019D0000222082922D004292CD180F83F2080F847
:1019E00043204FEAB103032B4FF00102EED82BE066
:1019F00090F83E2090F84230012A4FF0010208BFD3
:101A0000012BE3D1022280F83E2080F842204FEAE9
:101A1000B103032B4FF00102D8D815E080F8402025
:101A200080F844204FEAB103032B4FF00102CDD8D8
:101A30000AE000BF80F8412080F845204FEAB1035A
:101A4000032B4FF00102C1D842F6BC4C0068C0F62F
:101A5000000C5CF823C0C36801F01F0143EA0C03CB
:101A6000C360036A02FA01F123EA01020262026A18
:101A7000114340F6FF32C4F20002904201620FDCD3
:101A8000B0F1804F1DD040F20041C4F20001884205
:101A900017D040F60001C4F20001884211D017E0CF
:101AA00040F60041C4F2000188420AD044F200012D
:101AB000C4F20101884204D00021C4F2010188422D
:101AC00006D1816801F00701062904BF0020704794
:101AD0000168002241F001010160104670470000DA
:101AE00070B504460068C5680669B10716D515F0DB
:101AF000020113D06FF00201016101212177806999
:101B0000800703D02046FFF7BBFD05E0204600F02C
:101B1000A7F9204600F008FB00202077700719D5B0
:101B200015F0040016D020686FF004010161022155
:101B30002177806910F4407F04D02046FFF7A0FD94
:101B400006E000BF204600F08BF9204600F0ECFADA
:101B500000202077300717D515F0080014D0206832
:101B60006FF00801016104212177C069800703D06B
:101B70002046FFF785FD05E0204600F071F920467C
:101B800000F0D2FA00202077F00619D515F01000E9
:101B900016D020686FF01001016108212177C0691B
:101BA00010F4407F04D02046FFF76AFD06E000BF36
:101BB000204600F055F9204600F0B6FA00202077C4
:101BC000F00718BF15F0010002D1300609D412E069
:101BD00020686FF001010161204600F07BFB3006B8
:101BE00009D515F0800006D020686FF080010161F2
:101BF0002046FFF7B3FA700609D515F0400006D06D
:101C000020686FF040010161204600F025FCB0061D
:101C100058BF70BD15F0200008D021686FF0200279
:101C200020460A61BDE87040FFF79ABA70BD000017
:101C300080B586B000680021B0F1804F0591CDE9F4
:101C400003110291019119D00021C4F201018842CF
:101C500033D10020009043F63000C4F20200016846
:101C600041F00101016000684FF4806100F0010063
:101C7000009000980020C4F2020013E043F6300008
:101C80000091C4F20200016841F0020101600068A5
:101C9000082100F00200009000980020C4F2020029
:101CA00000F580600191022102910021CDE903112C
:101CB0000121059101A9FEF701FE06B080BD0000DB
:101CC0002DE9F04190F83C30012B04BF0220BDE823
:101CD000F0814FEAB202032A30D8DFE802F003377E
:101CE000679700BF02680025146A136AC4F20105F1
:101CF00023F0010313625368D2F818C0AA428D681A
:101D0000D1F800E024F0020444EA05040BD1CD68C8
:101D1000D1E9056723F4407324F00C0425F0040591
:101D200033432C433B432CF0730747EA0E075360C1
:101D300097614968516314628BE000BF0121002262
:101D400080F83C200846BDE8F08100BF026800250D
:101D5000146A136AC4F2010523F010031362536876
:101D6000D2F818C0AA428D68D1F800E024F020040F
:101D700044EA05140FD1CD68D1E905876FF040061C
:101D800024F0C00406EA05152C4323F4406348EA16
:101D9000070543EA85032CF4E64747EA0E2753601C
:101DA000976149689163146253E000BF026800259F
:101DB000146A136AC4F2010523F480731362536832
:101DC000D2F81CC0AA428D68D1F800E024F4007457
:101DD00044EA05240FD1CD68D1E905872D0240F2F0
:101DE000FF4624F44064B5432C4323F4405348EAAF
:101DF000070543EA05132CF0730747EA0E07536003
:101E0000D7614968D163146223E000BF02680026ED
:101E1000D2F820C0136AC4F2010623F4805313627F
:101E20005368D4690D68D1F808E0B24204D14E6914
:101E300023F4804343EA861324F4E64646EA052663
:101E40005360D6612CF40057496847EA0E33116499
:101E500013620021002280F83C200846BDE8F08192
:101E600070470000002804BF0120704710B50446E9
:101E700090F83D0028B9002084F83C00204600F08E
:101E80001FF8022084F83D002068211D00F01AFB95
:101E9000012084F8460084F83E0084F83F0084F86E
:101EA000400084F8410084F8420084F8430084F83C
:101EB000440084F8450084F83D00002010BD000077
:101EC000704700002DE9F04390F83C30012B04BF2F
:101ED0000220BDE8F0834FEAB202032A3AD8DFE8D5
:101EE00002F003417DB900BF036800261D6A1A6A2B
:101EF000C4F2010622F001021A621A465C6852F826
:101F000018CFB3428E68D1F800E025F0020545EA0B
:101F100006050CD1CE68D1E9057824F4407425F08B
:101F20000C0526F004063C43354344EA08042CF033
:101F3000730747EA0E075C609F614F6809695F633A
:101F40001D629F6947F008079F619F6927F004079A
:101F50009F61AEE00121002280F83C200846BDE8E8
:101F6000F08300BF036800261D6A1A6AC4F20106E6
:101F700022F010021A621A46D3F804C052F8184F21
:101F8000B3428E68D1F800E025F0200545EA061539
:101F900010D1CE68D1E9058725F0C0096FF0400562
:101FA00005EA06152CF4406647EA080745EA0905E4
:101FB00046EA870C24F4E64444EA0E27C3F804C03A
:101FC0009F614F6809699F631D629F6947F40067BD
:101FD0009F619F6927F480679F6169E0036800261D
:101FE0001D6A1A6AC4F2010622F480721A621A4645
:101FF000D3F804C052F81CEFB3428E680C6825F485
:10200000007545EA062511D1CE68D1E9058725F48A
:102010004069360240F2FF4526EA05052CF4405699
:1020200047EA080745EA090546EA071C2EF0730748
:102030002743C3F804C0DF614F680969DF631D628D
:10204000DF6947F00807DF61DF6927F00407DF6118
:102050002FE000BF03680027D3F820C01A6AC4F23B
:10206000010722F480521A621A465C6852F81C5F1B
:10207000D1F800E08E68BB4204D14F6924F480445B
:1020800044EA87142CF4005747EA063725F4E6465D
:1020900046EA0E265C60DE614E6809691E641F62B6
:1020A000DF6947F40067DF61DF6927F48067DF617C
:1020B00009021368194311600021002280F83C20B6
:1020C0000846BDE8F0830000002804BF01207047E7
:1020D00010B5044690F83D0028B9002084F83C0073
:1020E000204600F01FF8022084F83D002068211DE2
:1020F00000F0E8F9012084F8460084F83E0084F8F6
:102100003F0084F8400084F8410084F8420084F8DD
:10211000430084F8440084F8450084F83D00002022
:1021200010BD0000704700007047000041B1082951
:1021300010D0042914BF00F1410200F13F020BE06E
:1021400090F83E20012A1CBF01207047022280F82F
:102150003E2013E000F140021278012A1CBF01204A
:1021600070470222082907D0042914BF80F84120B3
:1021700080F83F2002E000BF80F84020006801F0B6
:102180001F010122036A8A4023EA02010162036AF5
:102190004421C4F201011A43A1F1440398420262AE
:1021A00016D040F6FF31C4F2000188421ADCB0F1CB
:1021B000804F28D040F20041C4F20001884222D072
:1021C00040F60001C4F2000188421CD022E000BFAA
:1021D0000A6842F400420A6040F6FF31C4F200018E
:1021E0008842E4DD40F60041C4F2000188420AD092
:1021F00044F20001C4F20101884204D00021C4F27B
:102200000101884206D1816801F00701062904BF57
:1022100000207047016841F0010101600020704713
:1022200080B5026801F01F0C012303FA0CFE136A4B
:1022300040F2440C23EA0E03C4F2010C1362D2F8FC
:1022400020E0ACF144039A42C2F820E013D15CF8DC
:1022500024EC41F211131EEA030F0CD1D2F820E056
:1022600040F244431EEA030F05D1DCF8003023F4AA
:102270000043CCF80030D2F820C041F211131CEA20
:10228000030F06D1D2F820C040F244431CEA030FEA
:1022900014D0082918D004290AD000294FF00101D0
:1022A00014BF80F8411080F83E10002080BD00BFB0
:1022B000012180F83F10002080BD00BF136823F08B
:1022C000010313600829E6D1012180F840100020A5
:1022D00080BD00002DE9F04381B040F20044C4F21B
:1022E00002040068A4F5FE31884203D001B0BDE8C5
:1022F000F08300BF40F20001C2F200014868896823
:1023000000F004FC44F6D351C1F2620150FB01F12C
:102310008A1102EBD17146F26762C6F2666251FB26
:1023200002F39F1007EBD37303EB8303A1EB430688
:1023300048F21F51C5F2EB1150FB01F14B1103EBB9
:10234000D17151FB02F39F1007EBD37303EB8303AF
:10235000A1EB430550FB02F18B1003EBD17151FB54
:1023600002F2931003EBD27202EB8202A1EB42075E
:1023700001EB810142F6DC49A0EB4108C0F60009FF
:1023800096B1204620210022FEF76CFB19F80600CA
:1023900000F0D8FBFE2000F0D5FB204620210122D2
:1023A000FEF760FB01E000BFB5B32046202100220C
:1023B000FEF758FB19F8050000F0C4FBFD2000F003
:1023C000C1FB204620210122FEF74CFB20462021A4
:1023D0000022FEF747FB19F8070000F0B3FBFB20D3
:1023E00000F0B0FB204620210122FEF73BFB2046F7
:1023F00020210022FEF736FB19F8080000F0A2FBAE
:10240000F72000F09FFB20462021012201B0BDE80B
:10241000F043FEF727BB00BF002FD7D1B8F1000F64
:10242000E5D163E74FEAB101032984BF002070477B
:10243000DFE801F0020E060A0068343000687047D9
:1024400000683C30006870470068403000687047A2
:10245000006838300068704770470000FEE70000F1
:10246000FEE70000FEE70000704700007047000034
:10247000FEF704BB4EF68850CEF20000016841F42E
:10248000700101607047000040F2DC00C2F2000001
:10249000FFF726BB40F22410C2F20000FFF720BB7A
:1024A00040F26C10C2F20000FFF71ABB40F2B41009
:1024B000C2F20000FFF714BB40F2FC10C2F20000B1
:1024C000FFF70EBB10B540F2FF7E0368C4F2000EAA
:1024D00040F2000C7045C4F2010C1DDD40F6000214
:1024E000C4F20002904220D060451ED040F6004267
:1024F000C4F20002904218D04FF6FF72C4F20002FC
:1025000090421CDC704525DCB0F1804F3AD040F29F
:102510000042C4F2000233E0B0F1804F05D040F237
:102520000042C4F200029042E6D14A6823F07003F0
:1025300013434FF6FF72C4F200029042E2DD44F210
:10254000FF32C4F20102904210DC60451AD044F21E
:10255000000213E040F60002C4F20002904211D0E3
:1025600040F60042C4F200020AE000BF44F6000256
:10257000C4F20102904205D044F20042C4F20102CA
:10258000904203D1CA6823F44073134323F08002BE
:102590004B69D1F800E08C681A4360450260C46260
:1025A000C0F828E002D10969CCF83010012141615E
:1025B0000169C90708BF10BD016921F0010101616E
:1025C00010BD0000FEE700009AB043F6300547F268
:1025D0000009C4F20205C4F20009FEF75DFA6C4678
:1025E000201D2C21FDF7C0FE00261096CDE90E66B9
:1025F000CDE90C661696286940F08050286128695C
:1026000000F08050169016981696D9F8000040F405
:102610004040C9F80000D9F8000000F4404016908E
:10262000169802200090012003901020049020466C
:102630000696FEF7C3FB18B172B600BFFEE700BFF7
:102640000F20CDE90C060CA80021CDE90E661096EE
:10265000FEF7CEFA10B172B6FEE700BF002704976E
:102660000C97286809F5C83440F080002860286875
:1026700040F2004800F080000C900C980C972868FD
:102680004FF4407140F0010028602868002200F0FB
:1026900001000C900C980C972868C4F2000840F0D8
:1026A0000200286028684FF4407600F002000C9089
:1026B0000C982046FEF7D6F909F5CA3528462021A0
:1026C00000224FF0200AFEF7CDF900966E464FF03B
:1026D000010B20463146CDE901B70397FEF7EEF82E
:1026E00028463146CDE900ABCDE90277FEF7E6F8A2
:1026F00040F26C10C2F200004FF6FF710397CDE973
:102700000177CDE91677C0E90087C0E9027107615A
:102710008761FEF795FD18B172B600BFFEE700BFF6
:102720004FF48050009040F26C10C2F200006946F5
:10273000FEF7D8FE10B172B6FEE700BF40F26C1093
:10274000C2F20000FFF7F8F810B172B6FEE700BF62
:1027500040F26C10C2F2000016A9FEF729FD18B174
:1027600072B600BFFEE700BF00240120CDE90D04D2
:1027700040F26C10C2F200000CA908220C940F94D5
:10278000FFF708F810B172B6FEE700BF40F2B410D0
:1027900008F58061C2F2000063230394CDE901448F
:1027A000CDE90C440F2280E81600C0E903348461AF
:1027B000FEF746FD10B172B6FEE700BF4FF4805041
:1027C000009040F2B410C2F200006946FEF78AFEA3
:1027D00010B172B6FEE700BF40F2B410C2F20000C2
:1027E0000CA9FEF7E5FC18B172B600BFFEE700BF0A
:1027F00040F2FC10002108F50062C2F2000043F62E
:102800007F636FF001070391CDE90111CDE9161146
:10281000C0E90023C0E9021701618161FEF710FDE4
:1028200010B172B6FEE700BF4FF48050009040F246
:10283000FC10C2F200006946FEF754FE10B172B6F9
:10284000FEE700BF40F2FC10C2F20000FFF774F890
:1028500010B172B6FEE700BF40F2FC10C2F20000F9
:1028600016A9FEF7A5FC08B172B6FEE70A200C9087
:1028700001200D9040F2FC100024C2F200000CA9CF
:102880000422CDE90E44FEF785FF08B172B6FEE7DB
:1028900040F22410C2F200004FF0804143F67F6303
:1028A0000F94CDE90D44CDE91644CDE90544CDE9B9
:1028B000034440F2E73280E81600C0E90334846143
:1028C000FEF7BEFC10B172B6FEE700BF4FF48050B9
:1028D0000C9040F22410C2F200000CA9FEF702FE98
:1028E00010B172B6FEE700BF40F22410C2F2000041
:1028F000FFF7EAFB10B172B6FEE700BF40F224100A
:10290000C2F2000016A9FEF753FC08B172B6FEE74A
:102910006020009040F224100025C2F200006946B9
:102920000422CDE901550495FFF7CCFA10B172B637
:10293000FEE700BF40F2241AC2F2000A5046FFF739
:1029400077F940F28006C2F2000609F530413046C0
:1029500040F8141F4FF080514FF00072012403958E
:10296000057680F82050C0E90A21C46180F8305013
:10297000C0E90155C0E903554461FDF717FE08B1F0
:1029800072B6FEE706F11405002769462846CDE930
:1029900000740294FDF750FD10B172B6FEE700BF5F
:1029A00040F2DC0009F51041C2F2000064231997DF
:1029B000CDE91777CDE91477069743F67F6280E873
:1029C0008600C0E90337C0E90577FEF739FC08B196
:1029D00072B6FEE74FF48050169040F2DC00C2F26F
:1029E000000016A9FEF77EFD10B172B6FEE700BF2B
:1029F00040F2DC00C2F20000FFF734FA10B172B608
:102A0000FEE700BF40F2DC00C2F2000014A9FEF7AE
:102A1000CFFB08B172B6FEE740F2DC000027C2F23D
:102A200000000CA908221297CDE91077CDE90E77A6
:102A3000CDE90C77FFF744F910B172B6FEE700BF9D
:102A40004FF40050059040F2DC00C2F200006946ED
:102A50000497CDE90277CDE900770797FEF782FB6F
:102A600010B172B6FEE700BF40F2DC00C2F2000017
:102A7000FFF7DEF840F2B410C2F20000FEF7F0FCFF
:102A800040F2FC10C2F200000421FEF785FF40F284
:102A90006C10C2F200000821FEF77EFF2846FDF709
:102AA00067FE40F20007C2F200074FF47A784FF059
:102AB000000911E04FF4C875DAF80010886250463A
:102AC0000421FFF733FB2846FDF7E4FE50460421BE
:102AD000FFF7A6FB86F8009030780128FCD1C7F8F4
:102AE0000C8038780328F5D8DFE800F004080C02E1
:102AF000F868DFE7F868C8254008DDE7F8684008AF
:102B0000D8E700BFF868C825D6E70000F0B581B067
:102B1000054601294FF0010012D00C468D420FD01E
:102B2000002700BF6E1E30462146FFF7EFFF611EF3
:102B30000129074403D0A5420C463546F2D1781C42
:102B400001B0F0BDF0B581B00024C4F20204054626
:102B500047B220464FF4807100220026FDF782FF25
:102B6000B7F1FF3FC8BF012620464FF4007132463F
:102B7000FDF778FF20464FF4807101220126FDF712
:102B800071FF20464FF480710022FDF76BFF26EAAB
:102B9000951220464FF40071FDF764FF20464FF474
:102BA00080710122FDF75EFF20464FF48071002204
:102BB000FDF758FF26EA551220464FF40071FDF745
:102BC00051FF20464FF480710122FDF74BFF204654
:102BD0004FF480710022FDF745FF26EA15122046CA
:102BE0004FF40071FDF73EFF20464FF48071012243
:102BF000FDF738FF20464FF480710022FDF732FFC9
:102C000026EAD50220464FF40071FDF72BFF20463F
:102C10004FF480710122FDF725FF20464FF48071AB
:102C20000022FDF71FFF26EA950220464FF40071AF
:102C3000FDF718FF20464FF480710122FDF712FFC7
:102C400020464FF480710022FDF70CFF26EA550262
:102C500020464FF40071FDF705FF20464FF48071C8
:102C60000122FDF7FFFE20464FF480710022FDF7A0
:102C7000F9FE26EA050220464FF40071FDF7F2FE48
:102C800020464FF48071012201B0BDE8F040FDF70D
:102C9000E9BEF1EE100A4FF6FF71C0F2C03120EA32
:102CA000010040F04070E1EE100A704700000000A3
:102CB00000000000010203040607080902000000EA
:102CC000040000000800000010000000FDFFFFFFEE
:102CD000FBFFFFFFF7FFFFFFEFFFFFFF3F065B4F2D
:102CE000666D7D077F6F0000082D00080000002042
:102CF00020000000D4010008282D0008200000203A
:102D000028080000F0010008FF0000000700000094
:102D100005000000E80300000100000010000000B2
:082D20000024F4000000000093
:040000050800019955
:00000001FF
