:020000040800F2
:100000003808002039020008111E0008091E0008E7
:100010000D1E000831040008351F00080000000014
:10002000000000000000000000000000191E000891
:100030003504000800000000151E00081D1E000801
:10004000530200085302000853020008530200083C
:10005000530200085302000853020008530200082C
:10006000530200085302000853020008530200081C
:10007000530200085302000853020008530200080C
:100080005302000853020008530200080000000059
:100090000000000000000000000000005302000803
:1000A00053020008530200085302000853020008DC
:1000B00053020008530200085302000853020008CC
:1000C00053020008530200085302000853020008BC
:1000D0005302000853020008530200080000000009
:1000E00053020008530200085302000800000000F9
:1000F00000000000000000000000000053020008A3
:1001000000000000530200085302000853020008D8
:1001100000000000000000000000000000000000DF
:10012000530200085302000853020008530200085B
:100130005302000800000000000000000000000062
:100140000000000000000000000000005302000852
:10015000530200085302000853020008530200082B
:1001600053020008530200080000000000000000D5
:10017000000000000000000000000000000000007F
:100180000000000053020008000000000000000012
:10019000530200085302000800F002F800F03CF897
:1001A0000AA090E8000C82448344AAF10107DA45D2
:1001B00001D100F031F8AFF2090EBAE80F0013F0E8
:1001C000010F18BFFB1A43F0010318477C220000FF
:1001D0009C220000103A24BF78C878C1FAD8520790
:1001E00024BF30C830C144BF04680C6070470000B1
:1001F0000023002400250026103A28BF78C1FBD830
:10020000520728BF30C148BF0B6070471FB502F0CE
:10021000F6F81FBD10B510BD00F0D0F81146FFF77D
:10022000F5FF01F089FE00F0EEF803B4FFF7F2FFEE
:1002300003BC00F0F5F80000094880470948004772
:10024000FEE7FEE7FEE7FEE7FEE7FEE7FEE7FEE786
:10025000FEE7FEE704480549054A064B70470000E3
:10026000211E0008990100083802002038080020EB
:10027000380400203804002053EA020C00F06980A2
:100280002DE9F04B4FF00006002B1FBFB3FA83F5AA
:1002900003FA05F424FA05F65E4012BF1643B2FADB
:1002A00082F502FA05F4C5F120051EBF22FA05FC0D
:1002B00044EA0C04203556EA044C4FEA144418BFB3
:1002C000641C4FF000084FF00009904271EB030CE2
:1002D00039D3002919BFB1FA81F701FA07F6B0FA4C
:1002E00080F700FA07F6C7F120071EBF20FA07FCC7
:1002F00046EA0C062037B6FBF4FCA7EB0507103FD7
:1003000007F01F0BCBF120062CFA06F60CFA0BFBBC
:1003100044BFB3460026202FA4BF5E464FF0000B1B
:100320005BEA060C08BF4FF0010B19EB0B0948EB19
:100330000608ABFB027C06FB02CC0BFB03CCC01B0C
:1003400071EB0C01C1E70B46024641464846BDE849
:10035000F08B13B5084318BF4FF0FF300146AFF3E1
:100360000080BDE81C4070474FF0000200B5134606
:1003700094469646203922BFA0E80C50A0E80C50C5
:10038000B1F12001BFF4F7AF090728BFA0E80C5076
:1003900048BF0CC05DF804EB890028BF40F8042B6F
:1003A00008BF704748BF20F8022B11F0804F18BFDC
:1003B00000F8012B7047704770477047754600F092
:1003C0002BF8AE4605006946534620F007008546E7
:1003D00018B020B5FFF73EFFBDE820404FF0000603
:1003E0004FF000074FF000084FF0000BAC46ACE8B0
:1003F000C009ACE8C009ACE8C009ACE8C00921F00C
:1004000007018D46704710B50446AFF300802046C3
:10041000BDE81040FFF709BF0048704710000020FA
:1004200001491820ABBEFEE726000200704700001D
:10043000FEE700007047000070B581B00022009216
:1004400090F83C20012A03D10221084601B070BD7A
:100450000E6801220A2E80F83C2009D3B2B2520065
:10046000D0F800E012FA86F21E3A0EF10C0305E015
:10047000D0F800E006EB46020EF110034FF0070C37
:100480001D680CFA02F4A5431D608D681C6805FA0E
:1004900002F222431A60496806290FD801EB810154
:1004A0004A1F71461F2351F8345F934025EA030326
:1004B0000B60B3B203FA02F214E000BF01EB810358
:1004C0000C29B2B204D8714651F8304F233B03E0F7
:1004D000714651F82C4F413B1F259D4024EA0505EC
:1004E0009A400D600B6842F2043CC4F2010C1A43BE
:1004F000ACF541739E450A6006D0002180F83C109F
:10050000084601B070BD00BF1221112EC1F20001DA
:1005100018BF8E423AD1DCF800208E4222F48002CD
:10052000CCF80020DCF8002042F40002CCF80020D7
:10053000E3D140F20801C2F2000109684DF683627E
:10054000C4F21B32A1FB0212910C01EB81014900A4
:10055000009100990029D0D00099013900910099AB
:100560000029CAD000990139009100990029C4D00E
:1005700000990139009100990029BED000990139F4
:10058000009100990029E7D1B7E700BF122EB4D13E
:10059000DCF8001021F40001CCF80010DCF80010A9
:1005A00041F48001CCF80010A7E70000002804BF48
:1005B0000120704710B50446006C00283ED0206C26
:1005C000C00645D4206C41F202118843023042F249
:1005D00004312064C4F20101086820F4403008604E
:1005E0000A6894E809101A43D4F810E00A604168D8
:1005F000012321F4807141604168C0F6007341EA33
:100600000E214160416821F040714160416841EA3A
:100610000C014160816821F400618160E1688268B9
:1006200011438160A16A8268994222F070628260FF
:10063000826813D122F0405119E000BF204600F03B
:1006400065F80020606484F83C00206CC006B9D5D1
:100650000120002184F83C1010BD00BF11438160CF
:10066000816821F040518160E16A826811438160B4
:10067000816821F0020181608168227E94F8203037
:1006800041EA42018160416883B141F40061416007
:1006900041684EF2000221F460414160616ACFF688
:1006A000FF72436802EB4131194301E021F400611C
:1006B0004160C16A40F2000C21F47001C162E2693C
:1006C0006169CFF6F07CC36A0CEB02521A43C26236
:1006D000826822F40072826094F83020836843EAD2
:1006E00042228260826822F480628260826842EAEA
:1006F0008121816000206064216C012262F301018C
:100700002164002184F83C1010BD000080B586B043
:1007100042F200010068C4F2010100228842059201
:10072000049201D006B080BD43F630000092C4F2BE
:100730000200436943F480734361436903F48073A7
:100740000093009B0092036843F00103036000687C
:1007500000F0010000900098012001900320CDE9F5
:10076000020201F5604001A900F094F806B080BDD6
:1007700080B581B00021009190F83C10012903D18F
:10078000022001B080BD00BFD0F800E0012180F858
:100790003C10714651F8083FDB072AD10B684DF633
:1007A000836243F001030B6040F20803C2F20003CE
:1007B0001B68C4F21B32A3FB02239A0C02EB420219
:1007C0000092009AAAB100BF009A013A0092009AE2
:1007D0007AB1009A013A0092009A52B1009A013A15
:1007E0000092009A2AB1009A013A0092009A002AD7
:1007F000EAD10A68036CD2070AD143F01001016400
:1008000000F1440101200A68104308603EE000BF87
:1008100040F2017223EA020202F580720264DEF8FD
:100820000420520504D5026C012363F30D320264E7
:10083000026C4FF0000C0023D20444BF426C22F043
:100840000603436480F83CC06FF02200CEF800003D
:10085000DEF8042042F2000042F0806242F0200202
:10086000C4F20100CEF80420D0F80423D20609D047
:1008700086450BD1806810F0405F07D14FF0804073
:10088000C1E700BF086810F0405FF7D0002001B05A
:1008900080BD00002DE9F04F82B000F13E4241F2F0
:1008A000000502F1FF77C4F20205072243F6004E6D
:1008B0004FEAB726A84208BF0422C4F2010E042E54
:1008C00038BF4FEAB7220125002600274FF0000865
:1008D000009208E008F101080437B8F1100F06F1A2
:1008E000020600F0A7800C6805FA08F914EA090F5F
:1008F000F0D0D1F804B003220BF0030CACF10104EA
:10090000B240012C6FEA020A10D88268CC6802EA71
:100910000A02B440224382604268CBF3001422EA08
:10092000090204FA08F42243426005E0BCF1030F17
:1009300002D14FF0030C20E0C2688C6802EA0A0280
:10094000B4402243BCF1020FC26016D16FF0030223
:1009500002EA58020244D2F820C007F01C050F2317
:100960000C69AB402CEA030304FA05F52B43136230
:10097000D1F804B001250BF0030C02680CFA06F361
:1009800002EA0A021A431BF4403F0260A2D000228E
:1009900043F644030192C4F202031A684FF6084C6E
:1009A00042F480421A601A68CFF6FF7C02F480425B
:1009B0000192019A28F00302724452F80C3007F0B9
:1009C0000C050F24AC40A343009C04FA05F52B430F
:1009D00042F80C30DEF808204B6842EA090543F67D
:1009E0000C4CDC0258BF22EA0905CEF80850C4F2CC
:1009F000010CDCF800209C0242EA090558BF22EAFB
:100A00000905CCF80050DEF804209C0342EA0905F1
:100A100058BF22EA0905CEF80450DEF80020DB03B7
:100A200042EA090558BF22EA0905CEF8005001251F
:100A300050E700BF02B0BDE8F08F0000002A08BFF9
:100A4000090481617047000040F23020C2F20000CA
:100A50000068704740F2000040F23021C2F200000E
:100A6000C2F2000100780A68104408607047000074
:100A700080B543F60040C4F20200016841F4007101
:100A80000160016841F480610160016841F4807196
:100A90000160032000F074F80F2000F005F800F06A
:100AA00027F8002080BD000070B540F20006C2F2B9
:100AB000000640F208013278C2F200014FF47A7366
:100AC0000968B3FBF2F20446B1FBF2F1084600F00C
:100AD00007FB0F2C4FF0010508D838B94FF0FF3055
:100AE00021460022002500F01FF87460284670BDE2
:100AF00082B0002043F640010190C4F202014A682E
:100B000042F480424A604A6802F480420192019AAB
:100B10000090086840F080500860086800F080503D
:100B20000090009802B0704710B54EF60C5CCEF203
:100B3000000CDCF80030C3F3022E8EF00704042C06
:100B400028BF0424BEF103034FF0FF3E0EFA04F465
:100B500038BF0023A14399400EFA03F39A4311438F
:100B600000F00F0200F160430901043A03F5644309
:100B70006244002848BF02F10C03197010BD000048
:100B80004EF60C51CEF200010A684FF6FF031A40F0
:100B900060F30A2242F0806040F0FD700860704708
:100BA0002DE9F041002800F08B8043F60808C4F2DC
:100BB00002080446D8F8F8030D4600F00700884202
:100BC00007D288F8F853D8F8F80300F00700A842D5
:100BD00076D12068810717D5410705D5D8F80010D0
:100BE00041F4E051C8F80010010705D5D8F800100D
:100BF00041F46041C8F80010D8F80010A26821F054
:100C0000F0011143C8F80010C0073FD1D8F8F8032D
:100C100000F00700A84207D988F8F853D8F8F8037D
:100C200000F00700A8424BD12068410707D5D8F84B
:100C30000010E26821F4E0511143C8F800100007E9
:100C400008D5D8F80000216920F4604040EAC100CE
:100C5000C8F8000000F054F8D8F8001042F218422A
:100C6000C1F30311C0F60002515C40F2080220FA01
:100C700001F140F20400C2F200000068C2F200027A
:100C80001160FFF711FF0020BDE8F0816068811E50
:100C9000022907D258F8081C89015CBF0120BDE871
:100CA000F08111E0012807D158F8081C89035CBFC6
:100CB0000120BDE8F08107E058F8081C890703D43B
:100CC0000120BDE8F08100BFD8F8001021F0030139
:100CD0000843C8F80000FFF7B7FE064641F2883720
:100CE000D8F80000616800F00C00B0EB810F8DD0E7
:100CF000FFF7AAFE801BB842F2D90320BDE8F081BD
:100D000010B543F60404C4F20204606800F00C005D
:100D100008280BD0042819BF42F20040C0F2F400AA
:100D20004BF68020C0F28C1010BD00BF20682168F7
:100D3000236849024BF68021C0F28C1100F03F027B
:100D4000C3F388105CBF42F20041C0F2F401A1FB82
:100D500000010023FFF790FA21680222C1F301414C
:100D600002EB4101B0FBF1F010BD00002DE9F041B4
:100D700082B0002868D00446007843F60006C00719
:100D8000C4F202060BD0B06800F00C00042840F05A
:100D90009F803068800302D56068002854D0207896
:100DA00080071AD5B06810F00C0F09D0B06800F0B9
:100DB0000C00082840F0A6807068400200F1A28074
:100DC0003068800702D5E06801283DD1306821698C
:100DD00020F0F80040EAC10030602078000737D4E6
:100DE000207840074CD4A56955B3B06800F00C00DA
:100DF000082840F0BB80012D26D07068E16900F41E
:100E000080028A4220D1216A00F03F028A421BD12F
:100E100047F6C071626A0140B1EB821F14D1A16A2A
:100E20004FF6FF73C903994300F44032A1F58031B6
:100E30008A4209D1E16A00F07060B0EB016F03D122
:100E4000002002B0BDE8F081012002B0BDE8F081D1
:100E50006069002840F20000C4F2472076D00121EA
:100E6000C0F8801EFFF7F0FD054600BF706F8007D9
:100E7000B6D4FFF7E9FD401B0228F7D9DDE000BF3B
:100E8000306C10F080580AD100200190306C40F096
:100E900080503064306C00F080500190019847F22F
:100EA0000007C4F200073868C00541D4386840F430
:100EB00080703860FFF7C8FD054600BF3868C00580
:100EC00036D4FFF7C1FD401B0228F7D9B5E000BFBB
:100ED000B06800F00C00082803D1706840023FF5AC
:100EE00058AF6068B0F5803F07D0B0F5A02F40F054
:100EF0008D80306840F480203060306840F480306D
:100F000030608DE0E068002852D00020C4F2472015
:100F100001210160FFF798FD054600BF306880079A
:100F20003FF554AFFFF790FD401B0228F6D984E04F
:100F3000A068012805D005284ED1306F40F004008C
:100F40003067306F40F0010030674FE00021C0F89B
:100F5000801EFFF779FD0546706F80077FF540AF73
:100F6000FFF772FD401B0228F6D966E00027C4F2A5
:100F7000472700203866FFF767FD022D05460BD195
:100F8000306880015ED5FFF75FFD401B02284FF0FF
:100F90000300F5D955E700BF306880017FF550AFF9
:100FA000FFF752FD401B02284FF00300F4D948E739
:100FB0000020C4F2472000210160FFF745FD0546EF
:100FC000306880077FF509AFFFF73EFD401B022820
:100FD0004FF00300F4D934E7316F002821F001010C
:100FE0003167316F21F0040131674DD0FFF72CFDDF
:100FF000054641F2883700BF306F800756D4FFF7AF
:1010000023FD401BB842F7D917E000BF3168002824
:1010100021F480313160316821F4802131604FD07A
:10102000FFF712FD054600BF306880033FF5B7AEFD
:10103000FFF70AFD401B6428F6D9032002B0BDE883
:10104000F08100BF04F11C052FCD084340EA821057
:10105000D9034FF6FF729143A1F5803140EA056054
:101060000843706001203866FFF7EEFC044600BFBD
:10107000306880013FF5E4AEFFF7E6FC001B022874
:101080004FF00300F4D9DCE6FFF7DEFC054641F241
:10109000883700BF306F800708D5FFF7D5FC401BAD
:1010A000B8424FF00300F5D9CBE600BFB8F1000F0E
:1010B0007FF499AE306C20F08050306493E600BF2E
:1010C000FFF7C2FC054600BF306880037FF567AEBE
:1010D000FFF7BAFC401B64284FF00300F4D9B0E6D8
:1010E000411E0020B0EB116F1CBF012070474EF273
:1010F0001002CEF2000251604EF62351CEF20001F2
:10110000F0230B700721906011607047B0B590F824
:101110003C20012A04BF0220B0BD01F108053CCDEE
:10112000D1E900CE23F47C5322F470521A432EF4FA
:10113000F0431A432CF4E0431A4324F4C0431A4307
:101140002A43C96922F4804203681143596400218B
:1011500080F83C100846B0BD10B590F83C20012A3C
:101160004FF002023ED080F83D200268D2F804E041
:10117000D2F808C00C682EF07003234340F6FF3409
:10118000C4F20004A242536010DCB2F1804F1ED0C2
:1011900040F20043C4F200039A4218D040F6000324
:1011A000C4F200039A4212D016E000BF40F600439A
:1011B000C4F200039A420AD044F20003C4F20103CD
:1011C0009A4204D00023C4F201039A4204D1496830
:1011D0002CF08003194391600121002280F83D101A
:1011E00080F83C20104610BD002804BF0120704745
:1011F00010B5044690F83D0028B9002084F83C0062
:10120000204600F01FF8022084F83D002068211DD0
:1012100000F010FE012084F8460084F83E0084F8B7
:101220003F0084F8400084F8410084F8420084F8CC
:10123000430084F8440084F8450084F83D00002011
:1012400010BD000080B586B0006840F2FF71C4F2A6
:10125000000188424FF000010591CDE90311CDE96D
:1012600001111DDD40F60001C4F2000188424DD09D
:1012700040F60041C4F20001884259D00021C4F276
:10128000010188427CD10020009043F64000C4F266
:101290000200416841F00101416040687DE000BF0B
:1012A000B0F1804F6ED040F20041C4F2000188429C
:1012B00066D1002043F640010090C4F202010A68A2
:1012C00042F002020A600A6802F002020092009AEA
:1012D000009051F8102C42F0020241F8102C51F805
:1012E000101C01F0020100910099012101910221DD
:1012F000CDE90210CDE904010020C4F2020000F59E
:10130000806001A9FFF7C6FA06B080BD00200090FA
:1013100043F64000C4F20200016841F0040101609C
:10132000006800F004000090009806B080BD00BF87
:10133000002043F640010090C4F202010A6842F026
:1013400008020A600A6802F008020092009A0090FF
:1013500051F8102C42F0010241F8102C51F8101CE9
:1013600001F00101009100990221CDE90300002064
:10137000CDE901110591C4F2020001A9FFF78AFA33
:1013800006B080BD0020009043F64000C4F2020089
:10139000016841F001010160006800F00100009067
:1013A000009806B080BD000090F83D1001291CBFD8
:1013B00001207047022180F83D10006840F6FF329E
:1013C000C168C4F20002904241F00101C1600FDC2B
:1013D000B0F1804F1DD040F20041C4F200018842BC
:1013E00017D040F60001C4F20001884211D017E086
:1013F00040F60041C4F2000188420AD044F20001E4
:10140000C4F20101884204D00021C4F201018842E3
:1014100006D1816801F00701062904BF002070474A
:10142000016841F0010101600020704780B590F82B
:101430003C20012A4FF0020200F0C28080F83D20DB
:10144000D0F800C04FF67772DCF8083023EA0202C9
:10145000CCF808200B684F2B28DC1F2B44DD202BF9
:1014600045D0302B43D0402B40F0AC80D1F804E085
:10147000C968DCF82030DCF8202022F00102CCF82A
:101480002020DCF8182022F0F00242EA011123F0BB
:101490000A0242EA0E02CCF81810CCF82020DCF840
:1014A000081041F0470121F0300180E06F2B27DD6B
:1014B000B3F5005F48D0B3F5805F7AD0702B40F071
:1014C0008180D1E901E3C968DCF8082043EA0E0312
:1014D00022F47F4243EA01211143CCF80810DCF8E2
:1014E000081041F0770162E00BB1102B6AD1DCF8F3
:1014F000081021F07001194341F0070157E000BFC7
:10150000502B35D0602B5DD1D1F804E0C968DCF8F0
:101510002030DCF8202022F01002CCF82020DCF86B
:10152000182022F4704242EA013123F0A00242EA7C
:101530000E12CCF81810CCF82020DCF8081041F07E
:10154000670121F0100132E0D1E901E3C968DCF85C
:10155000082043EA0E0322F47F4243EA01211143AB
:10156000CCF80810DCF8081041F480411FE000BFFF
:10157000D1F804E0C968DCF82030DCF8202022F043
:101580000102CCF82020DCF8182022F0F00242EA18
:10159000011123F00A0242EA0E02CCF81810CCF82E
:1015A0002020DCF8081041F0570121F02001CCF890
:1015B00008100022012180F83D10002180F83C1025
:1015C000104680BD0122F5E7F0B590F83C30012BC4
:1015D00004BF0220F0BD4FEAB202032A2CD8DFE894
:1015E00002F003314F6F00BF0368D1E900C5D1F8A5
:1015F0000CE01C6A1A6A40F6FF3722F001021A62F8
:101600001A4652F8186FC4F20007BB4200F37E80FE
:10161000B3F1804F00F08B8040F20047C4F2000726
:10162000BB4200F0848040F60007C4F20007BB42D2
:1016300000F07D8096E000BF0121002280F83C2070
:101640000846F0BD0368D1E900E6D1E902C11C6A91
:101650001A6A360222F010021A621A4652F8185F0D
:101660004FF2FF07BE4325F4734561F30F3624F0B4
:10167000A0040EF00A0746EA050144EA07173CE019
:101680000768D1E900C5D1E902313C6A3A6A61F3E1
:10169000071522F480723A623A4652F81C6F26F01F
:1016A000F30645EA060124F420660CF00A0546EA32
:1016B000052611603E62116821F00C01116047E0BF
:1016C0000368D1E900E6D1E902C11C6A1A6A360250
:1016D00022F480521A621A4652F81C5F4FF2FF073A
:1016E000BE4325F4734561F30F3624F420440EF015
:1016F0000A0746EA050144EA073711601F621168CC
:101700004FEA0C2321F44061116021E040F60047CC
:10171000C4F20007BB420AD044F20007C4F201073A
:10172000BB4204D00027C4F20107BB421AD126F005
:101730000306354324F00A070CF00A066EF307157A
:1017400037449D611F629F6927F00C079F618B687A
:101750001168194311600021002280F83C200846DE
:10176000F0BD00BF46F00105E4E70000002804BF1B
:101770000120704710B5044690F83D0028B90020BC
:1017800084F83C00204600F01FF8022084F83D0059
:101790002068211D00F04EFB012084F8460084F8EB
:1017A0003E0084F83F0084F8400084F8410084F84B
:1017B000420084F8430084F8440084F8450084F82B
:1017C0003D00002010BD00007047000051B3082903
:1017D0000AD0042919BF00F1410200F1450300F1CC
:1017E0003F0200F1430303E000F1400200F1440333
:1017F00012781B78012A4FF0010208BF012B01D09B
:10180000104670470222082922D004292CD180F8E2
:101810003F2080F843204FEAB103032B4FF0010231
:10182000EED82BE090F83E2090F84230012A4FF09D
:10183000010208BF012BE3D1022280F83E2080F88C
:1018400042204FEAB103032B4FF00102D8D815E034
:1018500080F8402080F844204FEAB103032B4FF07A
:101860000102CDD80AE000BF80F8412080F8452071
:101870004FEAB103032B4FF00102C1D842F2284CCA
:101880000068C0F6000C5CF823C0C36801F01F01BB
:1018900043EA0C03C360036A02FA01F123EA01027E
:1018A0000262026A114340F6FF32C4F20002904223
:1018B00001620FDCB0F1804F1DD040F20041C4F254
:1018C0000001884217D040F60001C4F200018842AE
:1018D00011D017E040F60041C4F2000188420AD05E
:1018E00044F20001C4F20101884204D00021C4F294
:1018F0000101884206D1816801F00701062904BF71
:10190000002070470168002241F00101016010468B
:101910007047000080B586B000680021B0F1804FAC
:101920000591CDE903110291019119D00021C4F272
:101930000101884233D10020009043F63000C4F208
:101940000200016841F00101016000684FF480610C
:1019500000F00100009000980020C4F2020013E0A3
:1019600043F630000091C4F20200016841F0020128
:1019700001600068082100F002000090009800203B
:10198000C4F2020000F58060019102210291002161
:10199000CDE903110121059101A9FEF77BFF06B0F6
:1019A00080BD00002DE9F04190F83C30012B04BFD0
:1019B0000220BDE8F0814FEAB202032A30D8DFE806
:1019C00002F00337679700BF02680025146A136AA4
:1019D000C4F2010523F0010313625368D2F818C062
:1019E000AA428D68D1F800E024F0020444EA05041C
:1019F0000BD1CD68D1E9056723F4407324F00C04C2
:101A000025F0040533432C433B432CF0730747EA8E
:101A10000E07536097614968516314628BE000BF01
:101A20000121002280F83C200846BDE8F08100BF7B
:101A300002680025146A136AC4F2010523F010033A
:101A400013625368D2F818C0AA428D68D1F800E03A
:101A500024F0200444EA05140FD1CD68D1E90587AC
:101A60006FF0400624F0C00406EA05152C4323F469
:101A7000406348EA070543EA85032CF4E64747EA52
:101A80000E275360976149689163146253E000BF69
:101A900002680025146A136AC4F2010523F48073F6
:101AA00013625368D2F81CC0AA428D68D1F800E0D6
:101AB00024F4007444EA05240FD1CD68D1E90587E8
:101AC0002D0240F2FF4624F44064B5432C4323F436
:101AD000405348EA070543EA05132CF0730747EA29
:101AE0000E075360D7614968D163146223E000BFD9
:101AF00002680026D2F820C0136AC4F2010623F45B
:101B0000805313625368D4690D68D1F808E0B2427B
:101B100004D14E6923F4804343EA861324F4E64655
:101B200046EA05265360D6612CF40057496847EA17
:101B30000E33116413620021002280F83C20084615
:101B4000BDE8F081002804BF0120704710B50446AD
:101B500090F83D0028B9002084F83C00204600F0B1
:101B60001FF8022084F83D002068211D00F062F972
:101B7000012084F8460084F83E0084F83F0084F891
:101B8000400084F8410084F8420084F8430084F85F
:101B9000440084F8450084F83D00002010BD00009A
:101BA000704700002DE9F04390F83C30012B04BF52
:101BB0000220BDE8F0834FEAB202032A3AD8DFE8F8
:101BC00002F003417DB900BF036800261D6A1A6A4E
:101BD000C4F2010622F001021A621A465C6852F849
:101BE00018CFB3428E68D1F800E025F0020545EA2F
:101BF00006050CD1CE68D1E9057824F4407425F0AF
:101C00000C0526F004063C43354344EA08042CF056
:101C1000730747EA0E075C609F614F6809695F635D
:101C20001D629F6947F008079F619F6927F00407BD
:101C30009F61AEE00121002280F83C200846BDE80B
:101C4000F08300BF036800261D6A1A6AC4F2010609
:101C500022F010021A621A46D3F804C052F8184F44
:101C6000B3428E68D1F800E025F0200545EA06155C
:101C700010D1CE68D1E9058725F0C0096FF0400585
:101C800005EA06152CF4406647EA080745EA090507
:101C900046EA870C24F4E64444EA0E27C3F804C05D
:101CA0009F614F6809699F631D629F6947F40067E0
:101CB0009F619F6927F480679F6169E00368002640
:101CC0001D6A1A6AC4F2010622F480721A621A4668
:101CD000D3F804C052F81CEFB3428E680C6825F4A8
:101CE000007545EA062511D1CE68D1E9058725F4AE
:101CF0004069360240F2FF4526EA05052CF44056BD
:101D000047EA080745EA090546EA071C2EF073076B
:101D10002743C3F804C0DF614F680969DF631D62B0
:101D2000DF6947F00807DF61DF6927F00407DF613B
:101D30002FE000BF03680027D3F820C01A6AC4F25E
:101D4000010722F480521A621A465C6852F81C5F3E
:101D5000D1F800E08E68BB4204D14F6924F480447E
:101D600044EA87142CF4005747EA063725F4E64680
:101D700046EA0E265C60DE614E6809691E641F62D9
:101D8000DF6947F40067DF61DF6927F48067DF619F
:101D900009021368194311600021002280F83C20D9
:101DA0000846BDE8F0830000002804BF012070470A
:101DB00010B5044690F83D0028B9002084F83C0096
:101DC000204600F01FF8022084F83D002068211D05
:101DD00000F030F8012084F8460084F83E0084F8D2
:101DE0003F0084F8400084F8410084F8420084F801
:101DF000430084F8440084F8450084F83D00002046
:101E000010BD000070470000FEE70000FEE7000084
:101E1000FEE700007047000070470000FEF71ABEA2
:101E20004EF68850CEF20000016841F47001016066
:101E30007047000010B540F2FF7E0368C4F2000E48
:101E400040F2000C7045C4F2010C1DDD40F60002AA
:101E5000C4F20002904220D060451ED040F60042FD
:101E6000C4F20002904218D04FF6FF72C4F2000292
:101E700090421CDC704525DCB0F1804F3AD040F236
:101E80000042C4F2000233E0B0F1804F05D040F2CE
:101E90000042C4F200029042E6D14A6823F0700387
:101EA00013434FF6FF72C4F200029042E2DD44F2A7
:101EB000FF32C4F20102904210DC60451AD044F2B5
:101EC000000213E040F60002C4F20002904211D07A
:101ED00040F60042C4F200020AE000BF44F60002ED
:101EE000C4F20102904205D044F20042C4F2010261
:101EF000904203D1CA6823F44073134323F0800255
:101F00004B69D1F800E08C681A4360450260C462F6
:101F1000C0F828E002D10969CCF8301001214161F4
:101F20000169C90708BF10BD016921F00101016104
:101F300010BD0000FEE700009AB043F6300547F2FE
:101F40000009C4F20205C4F20009FEF791FD6C46D7
:101F5000201D2C21FEF708FA00261096CDE90E660A
:101F6000CDE90C661696286940F0805028612869F2
:101F700000F08050169016981696D9F8000040F49C
:101F80004040C9F80000D9F8000000F44040169025
:101F90001698022000900120039010200490204603
:101FA0000696FEF7E3FE18B172B600BFFEE700BF6B
:101FB0000F20CDE90C060CA80021CDE90E66109685
:101FC000FEF7EEFD10B172B6FEE700BF00270497E2
:101FD0000C97286809F5C83440F08000286028680C
:101FE00040F2004800F080000C900C980C97286894
:101FF0004FF4407140F0010028602868002200F092
:1020000001000C900C980C972868C4F2000840F06E
:102010000200286028684FF4407600F002000C901F
:102020000C982046FEF70AFD09F5CA3528462021FE
:1020300000224FF0200AFEF701FD00966E464FF099
:10204000010B20463146CDE901B70397FEF722FC8C
:1020500028463146CDE900ABCDE90277FEF71AFC00
:1020600040F25810C2F200004FF6FF710397CDE91D
:102070000177CDE91677C0E90087C0E902710761F1
:102080008761FFF7B1F818B172B600BFFEE700BF75
:102090004FF48050009040F25810C2F200006946A0
:1020A000FFF7C4F910B172B6FEE700BF40F2581056
:1020B000C2F20000FFF75AFB10B172B6FEE700BF94
:1020C00040F25810C2F2000016A9FFF745F818B107
:1020D00072B600BFFEE700BF00240120CDE90D0469
:1020E00040F25810C2F200000CA908220C940F9480
:1020F000FFF76AFA10B172B6FEE700BF40F2A01017
:1021000008F58061C2F2000063230394CDE9014425
:10211000CDE90C440F2280E81600C0E90334846145
:10212000FFF762F810B172B6FEE700BF4FF48050BF
:10213000009040F2A010C2F200006946FFF776F965
:1021400010B172B6FEE700BF40F2A010C2F200006C
:102150000CA9FFF701F818B172B600BFFEE700BF87
:1021600040F2E810002108F50062C2F2000043F6D8
:102170007F636FF001070391CDE90111CDE91611DD
:10218000C0E90023C0E9021701618161FFF72CF863
:1021900010B172B6FEE700BF4FF48050009040F2DD
:1021A000E810C2F200006946FFF740F910B172B6BC
:1021B000FEE700BF40F2E810C2F20000FFF7D6FAD7
:1021C00010B172B6FEE700BF40F2E810C2F20000A4
:1021D00016A9FEF7C1FF08B172B6FEE70A200C90FF
:1021E00001200D9040F2E8100024C2F200000CA97A
:1021F0000422CDE90E44FFF7E7F908B172B6FEE715
:1022000040F27005C2F200054FF08041284640F8C8
:10221000101F40F2E73143F67F620F94CDE90D4481
:10222000CDE91644CDE90544CDE90344C0E90114E4
:10223000C0E903248461FEF7D7FF08B172B6FEE758
:102240004FF4805005F110040C900CA92046FFF7C4
:10225000EDF808B172B6FEE72046FFF7A5FD08B11C
:1022600072B6FEE716A92046FEF776FF10B172B6E9
:10227000FEE700BF602000904FF4FA500190002567
:1022800069462046042202950495FFF78BFC08B1AD
:1022900072B6FEE72046FFF73DFB40F2C80009F5A5
:1022A0003041C2F200004FF080524FF0007301261F
:1022B0000395057680F82050C0E90A32C66180F89F
:1022C0003050C0E90015C0E90255C0E90456FEF7D8
:1022D0006DF908B172B6FEE740F2C8000024C2F200
:1022E00000006946CDE900460296FEF7A5F808B160
:1022F00072B6FEE740F2101009F51041C2F200007C
:1023000064231994CDE91744CDE91444069443F6A7
:102310007F6280E81600C0E90334C0E90544FEF797
:1023200063FF08B172B6FEE74FF48050169040F29A
:102330001010C2F2000016A9FFF778F810B172B6BB
:10234000FEE700BF40F21010C2F20000FFF7FAFBF8
:1023500010B172B6FEE700BF40F21010C2F20000EA
:1023600014A9FEF7F9FE08B172B6FEE740F21010AC
:102370000024C2F200000CA908221294CDE91044F6
:10238000CDE90E44CDE90C44FFF70CFB10B172B659
:10239000FEE700BF4FF40050059040F21010C2F26B
:1023A000000069460494CDE90244CDE90044079455
:1023B000FEF7ACFE10B172B6FEE700BF40F210109F
:1023C000C2F20000FFF7A6FA40F2A010C2F200002D
:1023D000FEF7EAFF40F2E810C2F200000421FFF726
:1023E000F5F940F25810C2F200000821FFF7EEF9AB
:1023F00040F2C800C2F20000FEF7BAF9FEE7F1EEC3
:10240000100A4FF6FF71C0F2C03120EA010040F01F
:102410004070E1EE100A704700000000000000006C
:10242000010203040607080902000000040000007E
:102430000800000010000000FDFFFFFFFBFFFFFF92
:10244000F7FFFFFFEFFFFFFF6824000800000020F8
:1024500010000000D40100087824000810000020BB
:1024600028080000F0010008010000001000000032
:082470000024F400000000004C
:040000050800019955
:00000001FF
