:020000040800F2
:100000000008002039020008971F0008451C00085E
:10001000951F000859050008632300080000000030
:100020000000000000000000000000009B1F00080E
:100030005B05000800000000991F00089D1F0008D4
:10004000530200085302000853020008530200083C
:10005000530200085302000853020008530200082C
:10006000530200085302000853020008530200081C
:10007000530200085302000853020008530200080C
:100080005302000853020008530200080000000059
:100090000000000000000000000000005302000803
:1000A00053020008530200085302000853020008DC
:1000B0002D200008392000084520000853020008C0
:1000C00053020008530200085302000853020008BC
:1000D0005302000853020008530200080000000009
:1000E00053020008530200085302000800000000F9
:1000F00000000000000000000000000053020008A3
:1001000000000000530200085120000853020008BC
:1001100000000000000000000000000000000000DF
:10012000530200085302000853020008530200085B
:100130005302000800000000000000000000000062
:100140000000000000000000000000005302000852
:10015000530200085302000853020008530200082B
:1001600053020008530200080000000000000000D5
:10017000000000000000000000000000000000007F
:100180000000000053020008000000000000000012
:10019000530200085302000800F002F800F03CF897
:1001A0000AA090E8000C82448344AAF10107DA45D2
:1001B00001D100F031F8AFF2090EBAE80F0013F0E8
:1001C000010F18BFFB1A43F00103184798220000E3
:1001D000B8220000103A24BF78C878C1FAD8520774
:1001E00024BF30C830C144BF04680C6070470000B1
:1001F0000023002400250026103A28BF78C1FBD830
:10020000520728BF30C148BF0B6070471FB502F0CE
:1002100015F91FBD10B510BD00F0CFF81146FFF75E
:10022000F5FF02F0AFF800F0EDF803B4FFF7F2FFCE
:1002300003BC00F0F5F80000094880470948004772
:10024000FEE7FEE7FEE7FEE7FEE7FEE7FEE7FEE786
:10025000FEE7FEE704480549054A064B70470000E3
:100260001D2000089901000800020020000800205D
:10027000000400200004002053EA020C00F0698012
:100280002DE9F04B4FF00006002B1FBFB3FA83F5AA
:1002900003FA05F424FA05F65E4012BF1643B2FADB
:1002A00082F502FA05F4C5F120051EBF22FA05FC0D
:1002B00044EA0C04203556EA044C4FEA144418BFB3
:1002C000641C4FF000084FF00009904271EB030CE2
:1002D00039D3002919BFB1FA81F701FA07F6B0FA4C
:1002E00080F700FA07F6C7F120071EBF20FA07FCC7
:1002F00046EA0C062037B6FBF4FCA7EB0507103FD7
:1003000007F01F0BCBF120060CFA0BFB2CFA06F6BC
:1003100044BFB3460026202FA4BF5E464FF0000B1B
:100320005BEA060C08BF4FF0010B19EB0B09ABFBA6
:10033000027C48EB0608C01B06FB02CC0BFB03CC7F
:1003400071EB0C01C1E70B46024641464846BDE849
:10035000F08B13B54FF000004FF00001AFF30080B9
:10036000BDE81C4070474FF0000200B513469446AC
:100370009646203922BFA0E80C50A0E80C50B1F1FD
:100380002001BFF4F7AF090728BFA0E80C5048BF11
:100390000CC05DF804EB890028BF40F8042B08BFAF
:1003A000704748BF20F8022B11F0804F18BF00F8AB
:1003B000012B7047704770477047754600F02CF866
:1003C000AE4605006946534620F00700854618B042
:1003D00020B5FFF73FFFBDE820404FF000064FF08B
:1003E00000074FF000084FF0000B21F00701AC466A
:1003F000ACE8C009ACE8C009ACE8C009ACE8C00989
:100400008D46704710B50446AFF300802046BDE826
:100410001040FFF70ABF0000004870479C01002011
:1004200001491820ABBEFEE726000200704700001D
:10043000464910B54A6822F440324A604A68436827
:100440001A434A6001684A6822F480724A6001686F
:100450004A68036942EA03224A6001684A6822F056
:1004600040724A6001684A6883681A434A600168BA
:100470008A6822F400628A6001688A68C3681A4345
:100480008A60816A6FF07062D14201688A6822F0E6
:1004900070628A6001688A680CD0836A1A438A6035
:1004A00001688A6822F040528A6001688A68C36ADB
:1004B0001A4301E022F040528A6001688A6822F003
:1004C00002028A6001688A68037E42EA43028A6007
:1004D00090F82010002901684A680FD042F40062A9
:1004E0004A6001684A6822F460424A6001684A68CA
:1004F000174C436A04EB43331A4301E022F40062D1
:100500004A600168CA6A22F47002CA620168CA6A53
:10051000838B104C04EB03531A43CA6201688A6848
:1005200022F400728A6001688A6890F8303042EAEA
:1005300043228A6001688A6822F480628A600168C6
:100540008A68406942EA8020886010BD002301402B
:1005500000E0FFFF0000F0FFFEE7704778B50024E1
:10056000009490F83C20012A19D0012280F83C2008
:100570000A6807230568092A13D9EE680A3A02EBCC
:10058000420293409E43EE600B788A680A3B03EB7D
:1005900043039A400368DD682A43DA6010E00220D2
:1005A00078BD2E6902EB420293409E432E610B7888
:1005B0008A6803EB43039A4003681D692A431A6162
:1005C0004A681F23072A13D205686E6B521E02EB7E
:1005D000820293409E436E630A8893B20A79521E48
:1005E00002EB820293400268556B2B43536327E072
:1005F00005680D2A12D22E6BD21F02EB82029340A5
:100600009E432E630B790A88DB1F92B203EB8303B0
:100610009A4003681D6B2A431A6311E0EE6A0D3A93
:1006200002EB820293409E43EE620B790A880D3BF7
:1006300092B203EB83039A400368DD6A2A43DA62CD
:100640001B4B0568194A9D420AD10D68122D07D12E
:10065000556825F400055560556845F480055560DA
:1006600005689D421DD1134D0B68AB4201D0112B83
:1006700017D1536823F480035360536843F4000395
:1006800053600968A9420CD10B490C4A0968B1FBB7
:10069000F2F101EB8101490000E0491E00910029BF
:1006A000FBD180F83C40002078BD000000230140D1
:1006B00000200140120000103000002040420F00D6
:1006C00070B504004FF0000503D0206C002610B177
:1006D00007E0012070BD204600F01CF8666484F835
:1006E0003C60206CC00610D4206C20F4885040F090
:1006F000020020642046FFF79BFE6664206C20F019
:10070000020040F00100206400E0012584F83C6014
:10071000284670BD10B586B0044614216846FFF720
:1007200022FE1149206888421CD11048002102682D
:1007300042F480720260006800F4807005900B48FB
:100740001438026842F001020260006800F0010003
:100750000590012000900320CDE90101694604487D
:1007600000F076F806B010BD002001404438024089
:100770000000024018B50021009190F83C20012AA9
:1007800007D0012280F83C2002689368DB0702D082
:1007900011E0022018BD936843F001039360274ADB
:1007A000274B1268B2FBF3F202EB420200E0521E4A
:1007B0000092002AFBD102689368DB0733D0036CF8
:1007C00040F20164A34343F48073036453685B0500
:1007D00005D5036C23F4005343F480530364036C86
:1007E000DB0404D5436C23F00603436400E041645A
:1007F00080F83C10134B6FF02201116001684A68C9
:10080000114C22434A6059680068C90602D00F495A
:10081000884210D1816811F0405F0CD1816841F0AD
:100820008041816007E0016C41F010010164416C7E
:1008300041F001014164002018BD0000300000209B
:1008400040420F000023014020000004002001402E
:100850002DE9F84FDFF8B8A10022012403254FF05D
:100860000F090AF1040BAAF1040E00BF0B6804FA89
:1008700002F63340B34273D10F7907F00307012F1B
:1008800001D0022F16D187684FEA420805FA08FC0A
:1008900027EA0C07D1F80CC00CFA08FC4CEA070C4C
:1008A000C0F808C04768B7430E79C6F300169640F3
:1008B0003E4346600E79F643B6070DD0C768560032
:1008C00005FA06FC27EA0C07D1F808C00CFA06FC6A
:1008D0004CEA070CC0F80CC00E7906F00306022E95
:1008E00010D1D60800EB8608D8F8206057074FEAE9
:1008F000D76C09FA0CF7BE430F6907FA0CF73743B8
:10090000C8F8207006684FEA420C05FA0CF7BE439F
:100910000F7907F0030707FA0CF7374307604E68B3
:1009200016F4403F6DD03B4E376847F48047376040
:10093000366822F0030706F480460096364E07EB31
:10094000060CDCF8086897073F0F09FA07F826EA53
:100950000806DFF8C880404503D14FF000081EE0CC
:100960004FE0DFF8BC80404502D14FF0010816E0AF
:10097000DFF8B080404502D14FF002080FE0DFF809
:10098000A880404502D14FF0030808E0DFF89C80C2
:10099000404502D14FF0040801E04FF0070808FA83
:1009A00007F848EA0608CCF80888DAF800605746E5
:1009B000D1F804C09E435FEACC2C00D51E433E60B4
:1009C000DBF800605F46D1F804C09E435FEA8C2CE0
:1009D00000D51E433E60DEF800607746D1F804C0C3
:1009E0009E435FEA8C3C00D51E433E60084F083FA3
:1009F0003E68D1F804C09E435FEACC3C00D51E435C
:100A00003E60521C102AFFF431AFBDE8F88F0000A1
:100A1000083C0140443802400030014000000240E0
:100A20000004024000080240000C02400010024096
:100A30000AB1816170470904FBE700000148806842
:100A400070470000240000200248816802781144A9
:100A500081607047240000200B4810B5016841F404
:100A600000710160016841F480610160016841F436
:100A700080710160032000F06FF80F2000F006F88D
:100A800000F024F8002010BD003C024070B50D4D70
:100A900004464FF47A712878B1FBF0F00A490968EE
:100AA000B1FBF0F000F0ECFA48B9102C07D20022AC
:100AB0002146501E00F030F800206C6070BD01200F
:100AC00070BD000024000020300000200A4808B556
:100AD000016841F480410160006800F480400090AA
:100AE0000548001F016841F080510160006800F076
:100AF0008050009008BD000044380240002809DB07
:100B000000F01F02012191404009800000F1E02027
:100B1000C0F8001170470000F0B40E4B1B680C4683
:100B2000C3F30223C3F10705042D00D90425191DC1
:100B3000072901D2002300E0DB1E012606FA05F199
:100B4000491E214099409E40761E16403143F0BC1C
:100B500001F008BC0CED00E0064900F0070208684F
:100B60004FF6FF03184040EA0220034A1043086092
:100B7000704700000CED00E00000FA052DE9F04799
:100B80000E46050065D0DFF81481D8F80000F7B2F2
:100B900000F00700B04207D288F80070D8F80000D3
:100BA00000F00700B04254D128683D4C810712D5AF
:100BB000400703D5206840F4E05020602878000703
:100BC00003D5206840F4604020602068A96820F0C8
:100BD000F000084320602878C0072DD030496868AD
:100BE0000839012812D0022813D0032811D009682F
:100BF000890700292DDA216821F0030101432160D2
:100C0000FFF71CFF814641F2883A0EE0096889032C
:100C1000EFE709688901ECE7FFF710FFA0EB090196
:100C2000514502D90320BDE8F0872068696800F0CB
:100C30000C00B0EB810FEFD1D8F80010404601F066
:100C40000701B14207D90770006800F00700B04201
:100C500001D00120E7E72878400705D52068E9683A
:100C600020F4E050084320602878000706D520686B
:100C7000296920F4604040EAC100206000F018F8C3
:100C80002168084AC1F30311515CC8400649086055
:100C900006480068FFF7FAFE0020C4E7003C024067
:100CA00008380240542400083000002028000020AA
:100CB000154810B5006810F00C02144813D0144900
:100CC000042A0FD0082A0ED10F4C241F2268236853
:100CD00002F03F025B0207D52068C0F38810A0FB3A
:100CE000010106E0084610BD2168C1F38811A1FB8F
:100CF00000010023FFF7C0FA2168C1F30141491C3C
:100D00004900B0FBF1F010BD083802400024F400A7
:100D100080BA8C012DE9F84F04006ED02078DFF8FE
:100D20004C93C007A9F104054AD009F104000168F9
:100D3000C1F38101012908D00068C0F381000228B5
:100D40000AD1D9F80000400206D52868800337D5BB
:100D500060680028E1D033E06068B0F5803F10D0D3
:100D6000B0F5A02F286810D020F4803028602868C3
:100D700020F4802028606068A8B1FFF75FFE064677
:100D80000DE0286840F48030F4E740F480202860CB
:100D9000F7E700BFFFF752FE801B642873D828686E
:100DA0008003F7D50CE0FFF749FE064605E000BFDB
:100DB000FFF744FE801B6428F0D828688003F7D42E
:100DC0002078DFF8AC8280074FF0000A3ED5A748B4
:100DD000001D016811F00C0F08D00068C0F38100FD
:100DE00002280BD1D9F80000400207D428688007F8
:100DF00016D5E068012800D112E033E1E068B8B10F
:100E00000120C8F80000FFF719FE064605E000BF04
:100E1000FFF714FE801B0228C0D828688007F7D58A
:100E20002868216920F0F80040EAC10028600DE040
:100E3000C8F800A0FFF702FE064604E0FFF7FEFD3B
:100E4000801B02281FD828688007F7D42078000765
:100E500022D5864F87486169703771B101210160E1
:100E6000FFF7ECFD064604E0FFF7E8FD801B0228D3
:100E700009D838688007F7D50EE0C0F800A0FFF762
:100E8000DDFD064605E082E0FFF7D8FD801B022865
:100E90007DD838688007F7D42078400768D5DFF818
:100EA000CCB100270BF13C0BDBF80000C0000BD4E9
:100EB000DBF8001041F08051CBF80010DBF80000A7
:100EC000012700F0805000906B4E3068C00510D4B0
:100ED000306840F480703060FFF7B0FD009005E0AE
:100EE000FFF7ACFD0099401A022850D83068C005C1
:100EF000F6D55E4EA0686C3601280FD00528306804
:100F000010D020F001003060306820F00400306024
:100F1000A068B8B1FFF792FD00900FE0306840F094
:100F20000100F4E740F004003060F7E7FFF786FDCA
:100F30000099411A41F28830814266D830688007B2
:100F4000F4D50EE0FFF77AFD009007E0FFF776FD9D
:100F50000099411A41F28830814256D830688007A2
:100F6000F4D42FB1DBF8001021F08051CBF8001041
:100F7000A069C8B33D49091D0968C1F3810102296F
:100F80004AD00228504607D0C8F8600000E03CE094
:100F9000FFF754FD04463BE04746C8F86000FFF702
:100FA0004DFD064605E000BFFFF748FD801B022807
:100FB0002BD828688001F7D4D4E907010843A16A37
:100FC0002E4A490802EB0141626A41EA8211084354
:100FD00094F82C1040EA0161C9F80010012038662D
:100FE000FFF72CFD044606E03EE000BFFFF726FDBC
:100FF000001B022809D828688001F7D534E000BF1B
:10100000FFF71CFD001B022802D90320BDE8F88F62
:1010100028688001F4D427E00128F7D0D9F800002F
:10102000E26900F4800191421CD1226A00F03F0184
:10103000914217D147F6C071626A0140B1EB821F3D
:1010400010D1A26A4FF0FF3300F4403103EB52029B
:10105000B1EB024F06D194F82C1000F07060B0EBA9
:10106000016F01D00120D1E70020CFE70438024012
:1010700000004742800E4742007000400000FFFF22
:1010800010B5401EB0F1807F01D3012010BD4FF09C
:10109000E02460610F21601701F064F90020A06175
:1010A00007202061002010BD7047704770B590F890
:1010B0003C20012A2CD0012480F83C40022280F8F8
:1010C0003D2003685A689D6822F070060A68324322
:1010D0005A60104B02689A420ED0B2F1804F0BD08A
:1010E0000D4B9A4208D00D4B9A4205D00C4B9A42B8
:1010F00002D00C4B9A4204D1496825F08003194371
:10110000916080F83D40002180F83C10084670BD99
:10111000022070BD000001400004004000080040B3
:10112000000C00400040014010B5040003D094F8CA
:101130003D0010B107E0012010BD002084F83C0004
:10114000204600F01FF8022084F83D00211D206891
:1011500000F084FF012084F8460084F83E0084F803
:101160003F0084F8400084F8410084F8420084F88D
:10117000430084F8440084F8450084F83D000020D2
:1011800010BD000030B587B0044614216846FFF753
:10119000EAF8236800243848B3F1804F28D0364A53
:1011A000364D103A0221AB4231D1036843F00203BD
:1011B0000360006800F002000590106840F0020033
:1011C0001060106800F00200059001208DE8130007
:1011D000CDE9034169462A48FFF73AFB0022114650
:1011E0001D20FFF799FC1D20FFF788FC07B030BDDC
:1011F000016841F0010101600068002200F0010077
:10120000059011461C20FFF787FC1C20ECE71D4DC4
:10121000AB420ED1016841F0040101600068002278
:1012200000F00400059011461E20FFF775FC1E20FB
:10123000DAE7154DAB42D9D1036843F008030360E8
:10124000006800F008000590106840F00100106090
:1012500010680091CDE9011400F00100CDE90410FF
:10126000039469460948FFF7F3FA00221146322039
:10127000FFF752FC3220B7E740380240000400403C
:101280000004024000080040000C00400000024042
:1012900090F83D10012901D001207047022180F80B
:1012A0003D100168CA6842F00102CA6000680E4938
:1012B00088420ED0B0F1804F0BD00C49884208D044
:1012C0000B49884205D00B49884202D00A4988421E
:1012D00004D1816801F00701062903D0016841F0BB
:1012E000010101600020704700000140000400403F
:1012F00000080040000C00400040014070B504466A
:1013000090F83C000025012817D0012684F83C60A5
:10131000022084F83D002068826822F0770222F4DF
:101320007F4282600868502838D00DDC20284FD0DA
:1013300005DC90B3102811D14AE0022070BD30289E
:1013400046D040280AD13BE060282FD070280DD02D
:10135000B0F5805F03D0B0F5005F12D0012584F8AE
:101360003D60002084F83C00284670BDCB68D1E980
:101370000121206800F0CBFE2068816841F07701F0
:1013800009E0CB68D1E90121206800F0C0FE2068A7
:10139000816841F480418160E1E719E0CA684968E9
:1013A000206800F069FF5021206806E0CA6849689B
:1013B000206800F0A9FF6021206800F0B2FECEE7AF
:1013C000CA684968206800F057FF40212068F4E7A8
:1013D000226801461046F0E770B5054600683749B7
:1013E000884202D1297F042905D0354988421ED17F
:1013F000287F02281BD1334C0126A0690028287FB2
:101400000DD0022816D00821284600F005FCE06027
:10141000A1684FF0FF3288420EDD401A15E0022825
:1014200006D00821284600F0F7FBA661A06070BD39
:101430000421F7E70421E7E7814207DD2B7F022B38
:101440001FD04FF6FF73591A08442061297F4FF4CB
:101450007A70022917D061682368994202D1216904
:10146000814209D361680129216924D0814200D2D7
:101470000122606810446060296800204862A06111
:1014800070BD1346DFE721680129216910D0814230
:1014900000D2012220681044206060690A49400897
:1014A000096888620421084800F0BCFAE661E3E7B5
:1014B0008142EED3F1E78142DAD3DDE70004004058
:1014C000000C0040000000207C0000202DE9F041CD
:1014D000054690F83C0000260C46012810D001205B
:1014E00085F83C0072B1042A1CD0082A2CD00C2AA2
:1014F00050D00126002085F83C003046BDE8F08140
:101500000220FBE7D4E90012E368286800F0C6FE79
:101510002868816921F00C01816128688169A268CD
:1015200011430FE0D4E90012E368286800F0FEFEE2
:101530002868816921F44061816128688169A26815
:1015400041EA02218161D5E72868D4E9002C277B94
:10155000016A21F480710162C169036A21F003010B
:1015600041EA0C0121F0F00C39074FF420674CEAF6
:10157000116123F4206307EA02221A43C161026267
:101580002868C16921F00C01C1612868C169A2689D
:10159000114328E02868D4E90027E168036A23F4AE
:1015A00080530362D0F81CC0036A2CF4407C4CEAE0
:1015B00007274FF6FF7C27F470470CEA01313943C7
:1015C0004FF4204723F4204307EA02321A43C16153
:1015D00002622868C16921F44061C1612868C1695B
:1015E000A26841EA0221C16184E710B5040003D07A
:1015F00094F83D0010B107E0012010BD002084F8F0
:101600003C00204600F01EF8022084F83D00211D19
:10161000206800F023FD012084F8460084F83E0095
:1016200084F83F0084F8400084F8410084F84200C8
:1016300084F8430084F8440084F8450084F83D00B1
:10164000002010BD7047000030B50446002551B1A0
:1016500004290DD0082910D094F8412094F84500B1
:10166000012A11D10EE094F83E2094F84200F7E7E9
:1016700094F83F2094F84300F2E794F8402094F85F
:101680004400EDE7012801D0012030BD022059B10E
:10169000042912D0082919D084F8410084F84500A3
:1016A0000C293ED001253AE084F83E0084F842003F
:1016B0002068C26842F0020210E084F83F0084F81B
:1016C00043002068C26842F0040207E084F840004A
:1016D00084F844002068C26842F00802C260012217
:1016E000206800F007FD1149206888420ED0B0F153
:1016F000804F0BD00E49884208D00E49884205D051
:101700000D49884202D00D49884204D1816801F018
:101710000701062903D0016841F001010160284654
:1017200030BD2068C26842F01002D7E700000140D7
:101730000004004000080040000C00400040014050
:1017400070B50446006801694FF00005C943890778
:1017500015D4C168C943890711D4E91E016101206C
:101760002077206880698007204602D0FFF734FE8A
:1017700004E000F0C1F8204600F053F92577206816
:101780000169C943490717D4C168C943490713D43C
:101790006FF004010161022020772068806910F455
:1017A000407F204602D0FFF717FE04E000F0A4F8C7
:1017B000204600F036F9257720680169C9430907FA
:1017C00016D4C168C943090712D46FF0080101613A
:1017D000042020772068C0698007204602D0FFF7E8
:1017E000FBFD04E000F088F8204600F01AF92577A8
:1017F00020680169C943C90617D4C168C943C9062D
:1018000013D46FF010010161082020772068C069AF
:1018100010F4407F204602D0FFF7DEFD04E000F028
:101820006BF8204600F0FDF8257720680169C94370
:10183000C90708D1C168C943C90704D1891E01611C
:10184000204600F07FF920680169C943090609D4E0
:10185000C168C943090605D46FF0800101612046C3
:10186000FFF722FC20680169C943490609D4C16811
:10187000C943490605D46FF040010161204600F0DC
:10188000E0F920680169C94389060BD4C168C943DE
:10189000890607D46FF0200101612046BDE8704041
:1018A000FFF703BC70BD000010B586B004461421DC
:1018B0006846FEF758FD2068B0F1804F15D10C48FE
:1018C0000021026842F002020260006800F002009B
:1018D0000590082000900220CDE901010120CDE90A
:1018E000031069460348FEF7B3FF06B010BD0000C1
:1018F0003038024000040240704770B5044690F84A
:101900003C0000260D4601280FD0012084F83C0041
:101910006AB1042A1DD0082A2FD00C2A3FD00126F4
:10192000002084F83C00304670BD022070BD206865
:1019300000F000FC2068816941F0080181612068A5
:10194000816921F004018161206881692A6911435C
:1019500011E0206800F016FC2068816941F4006104
:1019600081612068816921F48061816120688169D9
:101970002A6941EA02218161D2E7206800F02EFC49
:101980002068C16941F00801C1612068C16921F086
:101990000401C1612068C1692A69114311E020680E
:1019A00000F048FC2068C16941F40061C161206811
:1019B000C16921F48061C1612068C1692A6941EA75
:1019C0000221C161ACE710B5040003D094F83D00DA
:1019D00010B107E0012010BD002084F83C00204633
:1019E00000F01EF8022084F83D00211D206800F060
:1019F00035FB012084F8460084F83E0084F83F005F
:101A000084F8400084F8410084F8420084F84300E0
:101A100084F8440084F8450084F83D00002010BD9F
:101A20007047704710B50446022249B104290ED010
:101A3000082913D094F84100012816D0012010BDC8
:101A400094F83E000128F9D184F83E200FE094F884
:101A50003F000128F2D184F83F2008E094F84000CC
:101A60000128EBD184F8402001E084F841200122D4
:101A7000206800F03FFB12492068884203D1426C85
:101A800042F400424264206888420ED0B0F1804F98
:101A90000BD00C49884208D00B49884205D00B492D
:101AA000884202D00A49884204D1816801F00701C6
:101AB000062903D0016841F001010160002010BD3A
:101AC000000001400004004000080040000C0040FD
:101AD0000040014030B504460D460068002200F089
:101AE00009FB174B41F2111120688A10984209D165
:101AF000036A0B4206D1036A134203D1436C23F4F9
:101B0000004343642068036A0B4206D1016A114214
:101B100003D1016821F00101016001203DB1042DD4
:101B200008D0082D09D084F84100002030BD84F889
:101B30003E00FAE784F83F00F7E784F84000F4E756
:101B4000000001402DE9FF4700682E49884257D127
:101B50002D4CE06901280CD1206A401CA0F59C4165
:101B60002062203905D104212848FFF7B3FF002067
:101B700020626168206800F029FC4FF47A7190FBC4
:101B8000F1F20A2192FBF1F301FB1322009264228D
:101B900090FBF2F292FBF1F301FB1322019290FB16
:101BA000F1F292FBF1F301FB1322029290FBF1F2AE
:101BB00001FB1200DFF85C80002634466D46144FAE
:101BC000A8F10409039000E016B955F82400A0B16B
:101BD0000126002220213846FEF72AFF55F824105E
:101BE00018F8010000F006FC19F8040000F002FCEF
:101BF000012220213846FEF71BFF641C042CE3DB86
:101C0000BDE8FF8700080040000000207C000020A5
:101C1000000402404A2400080246002041B1042981
:101C200009D008290AD00C2901D11068006C70472E
:101C30001068406B70471068806B70471068C06B0D
:101C400070477047FEE700007FB5002415480094F8
:101C50000194029412490394C0E900148460046161
:101C6000047680F820404FF08051C1620125C561A3
:101C7000C910C460816280F830404561FEF720FDE4
:101C800008B172B6FEE7CDE9004569460548029500
:101C9000FEF764FC002801D072B6FEE77FBD0000AD
:101CA0000020014034000020F0B587B014216846C0
:101CB000FEF759FB1D480024016841F080010160D6
:101CC000016801F080010591016841F001010160A6
:101CD000016801F001010591016841F00201016014
:101CE0000068134E00F002004FF45075059000227A
:101CF00029463046FEF79CFE0E4F00222021384632
:101D0000FEF796FE00950125CDE90154694630465F
:101D10000394FEF79DFD20200090CDE90154694613
:101D200038460394FEF794FD07B0F0BD303802400A
:101D3000000002400004024010B58EB00024079459
:101D4000089409940A940B941C2168460C94FEF79D
:101D50000AFB1F484FF08041016040F2E731C0E9C3
:101D6000011443F67F61C0E903148461FFF7DCF9D5
:101D700008B172B6FEE74FF48050079007A91448E7
:101D8000FFF7BCFA08B172B6FEE71148FFF71BFE79
:101D900008B172B6FEE70B940BA90D480C94FFF73F
:101DA00085F908B172B6FEE7602000904FF4FA5052
:101DB000CDE901040422694605480494FFF79DFD1E
:101DC00008B172B6FEE70248FFF76EFD0EB010BD17
:101DD0007C00002010B58AB00024224804940594A9
:101DE00006940794089409940094019402941C4961
:101DF0000394C0E900144FF6FF71C0E90241046189
:101E00008461FFF791F908B172B6FEE74FF4805094
:101E1000049004A91348FFF771FA08B172B6FEE7FF
:101E20001048FFF7E2FB08B172B6FEE7089408A974
:101E30000C480994FFF73AF908B172B6FEE70120A1
:101E4000CDE9004002940822694606480394FFF752
:101E50003DFB002801D072B6FEE70AB010BD0000BD
:101E600000040040C400002010B58EB00024079488
:101E7000089409940A940B941C2168460C94FEF76C
:101E800072FA1D481B4901600F21C0E9011463214A
:101E9000C0E903148461FFF747F908B172B6FEE7A1
:101EA0004FF48050079007A91348FFF727FA08B1AD
:101EB00072B6FEE71048FFF786FD08B172B6FEE77E
:101EC0000B940BA90C480C94FFF7F0F808B172B60C
:101ED000FEE76020CDE9000402940C226946064822
:101EE0000494FFF70AFD002801D072B6FEE70EB099
:101EF00010BD0000000800400C01002010B58AB0A1
:101F000000242348049405940694079408940994A3
:101F10000094019402941D490394016043F67F618B
:101F2000C0E90114A11EC0E903148461FFF7FCF8A5
:101F300008B172B6FEE74FF48050049004A914482B
:101F4000FFF7DCF908B172B6FEE71148FFF74DFB69
:101F500008B172B6FEE7089408A90D480994FFF786
:101F6000A5F808B172B6FEE70A2000900120CDE97D
:101F700001040422694606480394FFF7A7FA0028E3
:101F800001D072B6FEE70AB010BD0000000C0040A0
:101F900054010020FEE7FEE770477047FEF754BD8E
:101FA00010B592B030216846FEF7DDF914210CA877
:101FB000FEF7D9F917480024016841F0805101600B
:101FC000006800F0805011901348016841F44041CE
:101FD00001600068069400F44040119002200090D7
:101FE00001200390102004906846FEF793FE08B18C
:101FF00072B6FEE70F20CDE90C040E940F94002179
:102000000CA81094FEF7BAFD002801D072B6FEE7C6
:1020100012B010BD40380240007000400248016814
:1020200041F470010160704788ED00E00148FFF75E
:1020300087BB00007C0000200148FFF781BB000047
:10204000C40000200148FFF77BBB00000C0100200A
:102050000148FFF775BB000054010020F0B502688D
:102060001D4B1E4C9F031E4D1E4E984207D0B8427A
:1020700005D0A04203D0A84201D0B04204D122F042
:10208000700C4A6842EA0C02984210D0B8420ED056
:10209000A0420CD0A8420AD0B04208D0124CA042B4
:1020A00005D0124CA04202D0114CA04203D122F420
:1020B0004074CA6822434C6922F0800222430260C5
:1020C0008A68C2620A688262984201D10969016322
:1020D00001214161F0BD000000000140000400400A
:1020E00000080040000C0040004001400044014056
:1020F0000048014010B501F01F030121046A994016
:102100008C430462016A9A401143016210BD10B50C
:10211000846842EA032224F47F440A432243826013
:1021200010BD826822F070020A4342F0070181600C
:102130007047000030B5026A22F001020262026AB2
:102140004368846924F073050C682C4322F002056F
:102150008A682A430A4DA8420BD122F00805CA68B2
:1021600023F440732A434D6922F004021D438B6916
:102170002B434360846149684163026230BD0000C3
:102180000000014030B5026A22F010020262026AC9
:10219000436884690D6824F4E64444EA05248D68A4
:1021A00022F0200242EA05120B4DA8420ED1CD6862
:1021B00022F0800242EA05124D6923F4406343EAAB
:1021C00085038D6922F0400243EA85034360846100
:1021D00049688163026230BD0000014030B5026A87
:1021E00022F480720262036A4268C46923F40073B5
:1021F00024F073050C682C438D6843EA05230C4DCD
:10220000A8420ED1CD6823F4006343EA05234D694B
:1022100022F4405242EA05128D6923F4806342EAB7
:1022200005124260C4614968C163036230BD0000A9
:102230000000014030B5026A22F480520262046A52
:102240004268C3690D6823F4E64343EA05238D68B9
:1022500024F4005444EA0534064DA84204D14D69E3
:1022600022F4804242EA85124260C36149680164F7
:10227000046230BD0000014010B5036A046A24F016
:1022800001040462846924F0F00444EA021423F097
:102290000A020A438461026210BD000070B5046A3C
:1022A00024F0010404628469056A124EB0420ED023
:1022B000B0F1804F0BD0104EB04208D00F4EB0425C
:1022C00005D00F4EB04202D00E4EB04203D124F0E2
:1022D0000304144301E044F001041A0724F0F0045D
:1022E00044EA126225F00A0301F00A0119438261EF
:1022F000016270BD00000140000400400008004081
:10230000000C00400040014010B5036A23F01003A8
:1023100003628369046A23F4704343EA023224F0BF
:10232000A00343EA01118261016210BD30B5046A65
:1023300024F0100404628469056A24F4407444EAB9
:10234000022222F470444FF6FF7202EA0332224363
:10235000A02425F0A00304EA01111943826101625F
:1023600030BDFEE70907090E002804DB00F1E0207C
:1023700080F80014704700F00F0000F1E02080F8B2
:10238000141D7047FEF768FBFFF70AFEFFF78CFC91
:10239000FFF720FDFFF768FDFFF7B0FDFFF7CCFC6E
:1023A000FFF752FC0848FEF773FF07480421483046
:1023B000FFF74AF9044808214838FFF745F9024871
:1023C000D838FEF7D7F9FEE70C01002070B50546B6
:1023D0000C46012901D0A54201D1012070BD681E23
:1023E000FFF7F4FF0646611E681EFFF7EFFF30445B
:1023F00070BD00002DE9F0410F4F054607244FF452
:1024000000784FF48076002231463846FEF710FB04
:1024100025FA04F0C0070DD0002241463846FEF7E9
:1024200007FB012231463846FEF702FB641EEAD55F
:10243000BDE8F0810122F0E7000002404FF040705B
:10244000E1EE100A7047FEFDFBF73F065B4F666D3D
:102450007D077F6F00000000000000000102030400
:10246000060708098424000800000020340000004A
:10247000D4010008B824000834000020CC07000074
:10248000F001000807000000050000000000000047
:102490000000000000000000E80300000000000051
:1024A000010000000000000001000000100000001A
:0824B000000000000024F4000C
:040000050800019955
:00000001FF
