:020000040800F2
:10000000F80E002039020008751D00086D1D00085B
:10001000711D000831040008AD2000080000000038
:100020000000000000000000000000007D1D00082E
:100030003504000800000000791D0008811D00083B
:10004000530200085302000853020008530200083C
:10005000530200085302000853020008530200082C
:10006000530200085302000853020008530200081C
:10007000530200085302000853020008530200080C
:100080005302000853020008530200080000000059
:100090000000000000000000000000005302000803
:1000A00053020008530200085302000853020008DC
:1000B000991D00085302000853020008530200086B
:1000C00053020008530200085302000853020008BC
:1000D00053020008A120000853020008000000009D
:1000E00053020008530200085302000800000000F9
:1000F00000000000000000000000000053020008A3
:1001000000000000530200085302000853020008D8
:1001100000000000000000000000000000000000DF
:10012000530200085302000853020008530200085B
:100130005302000800000000000000000000000062
:100140000000000000000000000000005302000852
:10015000530200085302000853020008530200082B
:1001600053020008530200080000000000000000D5
:10017000000000000000000000000000000000007F
:100180000000000053020008000000000000000012
:10019000530200085302000800F002F800F03CF897
:1001A0000AA090E8000C82448344AAF10107DA45D2
:1001B00001D100F031F8AFF2090EBAE80F0013F0E8
:1001C000010F18BFFB1A43F001031847302100004C
:1001D00050210000103A24BF78C878C1FAD85207DD
:1001E00024BF30C830C144BF04680C6070470000B1
:1001F0000023002400250026103A28BF78C1FBD830
:10020000520728BF30C148BF0B6070471FB502F0CE
:100210005BF81FBD10B510BD00F0D0F81146FFF718
:10022000F5FF01F045FF00F0EEF803B4FFF7F2FF31
:1002300003BC00F0F5F80000094880470948004772
:10024000FEE7FEE7FEE7FEE7FEE7FEE7FEE7FEE786
:10025000FEE7FEE704480549054A064B70470000E3
:10026000851D000899010008F8080020F80E0020FC
:10027000F80A0020F80A002053EA020C00F0698016
:100280002DE9F04B4FF00006002B1FBFB3FA83F5AA
:1002900003FA05F424FA05F65E4012BF1643B2FADB
:1002A00082F502FA05F4C5F120051EBF22FA05FC0D
:1002B00044EA0C04203556EA044C4FEA144418BFB3
:1002C000641C4FF000084FF00009904271EB030CE2
:1002D00039D3002919BFB1FA81F701FA07F6B0FA4C
:1002E00080F700FA07F6C7F120071EBF20FA07FCC7
:1002F00046EA0C062037B6FBF4FCA7EB0507103FD7
:1003000007F01F0BCBF120062CFA06F60CFA0BFBBC
:1003100044BFB3460026202FA4BF5E464FF0000B1B
:100320005BEA060C08BF4FF0010B19EB0B0948EB19
:100330000608ABFB027C06FB02CC0BFB03CCC01B0C
:1003400071EB0C01C1E70B46024641464846BDE849
:10035000F08B13B5084318BF4FF0FF300146AFF3E1
:100360000080BDE81C4070474FF0000200B5134606
:1003700094469646203922BFA0E80C50A0E80C50C5
:10038000B1F12001BFF4F7AF090728BFA0E80C5076
:1003900048BF0CC05DF804EB890028BF40F8042B6F
:1003A00008BF704748BF20F8022B11F0804F18BFDC
:1003B00000F8012B7047704770477047754600F092
:1003C0002BF8AE4605006946534620F007008546E7
:1003D00018B020B5FFF73EFFBDE820404FF0000603
:1003E0004FF000074FF000084FF0000BAC46ACE8B0
:1003F000C009ACE8C009ACE8C009ACE8C00921F00C
:1004000007018D46704710B50446AFF300802046C3
:10041000BDE81040FFF709BF0048704710000020FA
:1004200001491820ABBEFEE726000200704700001D
:10043000FEE700007047000070B5866D044600F0CE
:1004400029F994F83510022928D105462068216C35
:10045000026822F016020260426922F080024261C4
:1004600009B9A16C19B1016821F0080101600168A6
:1004700021F00101016000BF20680068C00715D0AD
:1004800000F008F9401B0628F6D320206065032001
:1004900084F83500002184F8341070BD8020606538
:1004A0000120002184F8341070BD00BFE06D3F21B1
:1004B00001FA00F0B060012084F83500002000212E
:1004C00084F8341070BD000090F83510022909D16D
:1004D000052180F835100068016821F001010160F4
:1004E0000020704780214165012070472DE9F04FC1
:1004F00082B000F13E4241F2000502F1FF77C4F202
:100500000205072243F6004E4FEAB726A84208BF6D
:100510000422C4F2010E042E38BF4FEAB72201258F
:10052000002600274FF00008009208E008F10108BB
:100530000437B8F1100F06F1020600F0A7800C682E
:1005400005FA08F914EA090FF0D0D1F804B0032233
:100550000BF0030CACF10104B240012C6FEA020A6B
:1005600010D88268CC6802EA0A02B4402243826052
:100570004268CBF3001422EA090204FA08F4224389
:10058000426005E0BCF1030F02D14FF0030C20E004
:10059000C2688C6802EA0A02B4402243BCF1020F2E
:1005A000C26016D16FF0030202EA58020244D2F888
:1005B00020C007F01C050F230C69AB402CEA030395
:1005C00004FA05F52B431362D1F804B001250BF0B2
:1005D000030C02680CFA06F302EA0A021A431BF43F
:1005E000403F0260A2D0002243F644030192C4F2CD
:1005F00002031A684FF6084C42F480421A601A68E7
:10060000CFF6FF7C02F480420192019A28F00302A7
:10061000724452F80C3007F00C050F24AC40A34391
:10062000009C04FA05F52B4342F80C30DEF8082054
:100630004B6842EA090543F60C4CDC0258BF22EA3B
:100640000905CEF80850C4F2010CDCF800209C0229
:1006500042EA090558BF22EA0905CCF80050DEF845
:1006600004209C0342EA090558BF22EA0905CEF896
:100670000450DEF80020DB0342EA090558BF22EAF5
:100680000905CEF80050012550E700BF02B0BDE8D3
:10069000F08F000040F22010C2F2000000687047A6
:1006A00040F2000040F22011C2F20000C2F200014C
:1006B00000780A68104408607047000080B543F66F
:1006C0000040C4F20200016841F400710160016859
:1006D00041F480610160016841F480710160032090
:1006E00000F088F80F2000F005F800F027F800204F
:1006F00080BD000070B540F20006C2F2000640F274
:1007000008013278C2F200014FF47A730968B3FB32
:10071000F2F20446B1FBF2F1084600F043FB0F2C65
:100720004FF0010508D838B94FF0FF3021460022BC
:10073000002500F033F87460284670BD82B00020B8
:1007400043F640010190C4F202014A6842F480423B
:100750004A604A6802F480420192019A0090086857
:1007600040F080500860086800F0805000900098C9
:1007700002B07047002848BF7047C1B200F01F00A8
:10078000012202FA00F04EF20012CEF2000242EA1A
:10079000D10121F0030108607047000010B54EF64A
:1007A0000C5CCEF2000CDCF80030C3F3022E8EF0AD
:1007B0000704042C28BF0424BEF103034FF0FF3EBE
:1007C0000EFA04F438BF0023A14399400EFA03F354
:1007D0009A43114300F00F0200F160430901043A0B
:1007E00003F564436244002848BF02F10C0319700A
:1007F00010BD00004EF60C51CEF200010A684FF613
:10080000FF031A4060F30A2242F0806040F0FD705E
:10081000086070472DE9F041002800F08B8043F616
:100820000808C4F202080446D8F8F8030D4600F0A0
:100830000700884207D288F8F853D8F8F80300F088
:100840000700A84276D12068810717D5410705D552
:10085000D8F8001041F4E051C8F80010010705D5A0
:10086000D8F8001041F46041C8F80010D8F8001022
:10087000A26821F0F0011143C8F80010C0073FD171
:10088000D8F8F80300F00700A84207D988F8F85311
:10089000D8F8F80300F00700A8424BD120684107C0
:1008A00007D5D8F80010E26821F4E0511143C8F8E8
:1008B0000010000708D5D8F80000216920F4604036
:1008C00040EAC100C8F8000000F07CF8D8F8001039
:1008D00042F2E222C1F30311C0F60002515C40F281
:1008E000080220FA01F140F20400C2F200000068A0
:1008F000C2F200021160FFF7FDFE0020BDE8F081AA
:100900006068811E022907D258F8081C89015CBF63
:100910000120BDE8F08111E0012807D158F8081C3A
:1009200089035CBF0120BDE8F08107E058F8081C8E
:10093000890703D40120BDE8F08100BFD8F800107A
:1009400021F003010843C8F80000FFF7A3FE0646A4
:1009500041F28837D8F80000616800F00C00B0EB75
:10096000810F8DD0FFF796FE801BB842F2D903208D
:10097000BDE8F08140F2080043F60801C2F2000031
:10098000C4F202010068096842F2F222C1F3822136
:10099000C0F60002515CC8407047000040F20800F9
:1009A00043F60801C2F20000C4F2020100680968BF
:1009B00042F2F222C1F34231C0F60002515CC8405B
:1009C0007047000010B543F60404C4F202046068E6
:1009D00000F00C0008280BD0042819BF42F2004098
:1009E000C0F2F40047F64000C0F27D1010BD00BF19
:1009F000206821682368490247F64001C0F27D1152
:100A000000F03F02C3F388105CBF42F20041C0F225
:100A1000F401A1FB00010023FFF72EFC2168022254
:100A2000C1F3014102EB4101B0FBF1F010BD000048
:100A30002DE9F04182B0002868D00446007843F6E2
:100A40000006C007C4F202060BD0B06800F00C002C
:100A5000042840F09F803068800302D56068002839
:100A600054D0207880071AD5B06810F00C0F09D048
:100A7000B06800F00C00082840F0A68070684002C2
:100A800000F1A2803068800702D5E06801283DD1DE
:100A90003068216920F0F80040EAC1003060207819
:100AA000000737D4207840074CD4A56955B3B06807
:100AB00000F00C00082840F0BB80012D26D07068A3
:100AC000E16900F480028A4220D1216A00F03F02ED
:100AD0008A421BD147F6C071626A0140B1EB821FA6
:100AE00014D1A16A4FF6FF73C903994300F4403251
:100AF000A1F580318A4209D1E16A00F07060B0EB63
:100B0000016F03D1002002B0BDE8F081012002B0E6
:100B1000BDE8F0816069002840F20000C4F247207F
:100B200076D00121C0F8801EFFF7B4FD054600BF56
:100B3000706F8007B6D4FFF7ADFD401B0228F7D9D0
:100B4000DDE000BF306C10F080580AD10020019029
:100B5000306C40F080503064306C00F08050019078
:100B6000019847F20007C4F200073868C00541D475
:100B7000386840F480703860FFF78CFD054600BF90
:100B80003868C00536D4FFF785FD401B0228F7D929
:100B9000B5E000BFB06800F00C00082803D1706811
:100BA00040023FF558AF6068B0F5803F07D0B0F520
:100BB000A02F40F08D80306840F480203060306895
:100BC00040F4803030608DE0E068002852D0002092
:100BD000C4F2472001210160FFF75CFD054600BF1C
:100BE000306880073FF554AFFFF754FD401B0228E3
:100BF000F6D984E0A068012805D005284ED1306FD1
:100C000040F004003067306F40F0010030674FE083
:100C10000021C0F8801EFFF73DFD0546706F80077C
:100C20007FF540AFFFF736FD401B0228F6D966E09E
:100C30000027C4F2472700203866FFF72BFD022D5E
:100C400005460BD1306880015ED5FFF723FD401BC0
:100C500002284FF00300F5D955E700BF3068800146
:100C60007FF550AFFFF716FD401B02284FF0030041
:100C7000F4D948E70020C4F2472000210160FFF7C3
:100C800009FD0546306880077FF509AFFFF702FDD3
:100C9000401B02284FF00300F4D934E7316F0028DD
:100CA00021F001013167316F21F0040131674DD02E
:100CB000FFF7F0FC054641F2883700BF306F800730
:100CC00056D4FFF7E7FC401BB842F7D917E000BF46
:100CD0003168002821F480313160316821F48021AD
:100CE00031604FD0FFF7D6FC054600BF3068800367
:100CF0003FF5B7AEFFF7CEFC401B6428F6D90320C2
:100D000002B0BDE8F08100BF04F11C052FCD0843FF
:100D100040EA8210D9034FF6FF729143A1F580316A
:100D200040EA05600843706001203866FFF7B2FCB6
:100D3000044600BF306880013FF5E4AEFFF7AAFC2F
:100D4000001B02284FF00300F4D9DCE6FFF7A2FCF9
:100D5000054641F2883700BF306F800708D5FFF79E
:100D600099FC401BB8424FF00300F5D9CBE600BF19
:100D7000B8F1000F7FF499AE306C20F080503064F1
:100D800093E600BFFFF786FC054600BF306880038E
:100D90007FF567AEFFF77EFC401B64284FF0030031
:100DA000F4D9B0E6411E0020B0EB116F1CBF01204A
:100DB00070474EF21002CEF2000251604EF62351FF
:100DC000CEF20001F0230B70072190601160704794
:100DD000704700007047000010B590F83C20012AD1
:100DE0004FF002023ED080F83D200268D2F804E0C5
:100DF000D2F808C00C682EF07003234340F6FF348D
:100E0000C4F20004A242536010DCB2F1804F1ED045
:100E100040F20043C4F200039A4218D040F60003A7
:100E2000C4F200039A4212D016E000BF40F600431D
:100E3000C4F200039A420AD044F20003C4F2010350
:100E40009A4204D00023C4F201039A4204D14968B3
:100E50002CF08003194391600121002280F83D109D
:100E600080F83C20104610BD002804BF01207047C8
:100E700010B5044690F83D0028B9002084F83C00E5
:100E8000204600F01FF8022084F83D002068211D54
:100E900000F088FF012084F8460084F83E0084F8C2
:100EA0003F0084F8400084F8410084F8420084F850
:100EB000430084F8440084F8450084F83D00002095
:100EC00010BD000080B582B00068B0F1804F1CBF3B
:100ED00002B080BD0020019043F64000C4F2020041
:100EE0000168002241F0010101600068002100F06A
:100EF0000100019001981C20FFF750FC1C2002B05B
:100F0000BDE88040FFF736BC90F83D1001291CBFBA
:100F100001207047022180F83D10006840F6FF3242
:100F2000C168C4F20002904241F00101C1600FDCCF
:100F3000B0F1804F1DD040F20041C4F20001884260
:100F400017D040F60001C4F20001884211D017E02A
:100F500040F60041C4F2000188420AD044F2000188
:100F6000C4F20101884204D00021C4F20101884288
:100F700006D1816801F00701062904BF00207047EF
:100F8000016841F0010101600020704780B590F8D0
:100F90003C20012A4FF0020200F0C28080F83D2080
:100FA000D0F800C04FF67772DCF8083023EA02026E
:100FB000CCF808200B684F2B28DC1F2B44DD202B9E
:100FC00045D0302B43D0402B40F0AC80D1F804E02A
:100FD000C968DCF82030DCF8202022F00102CCF8CF
:100FE0002020DCF8182022F0F00242EA011123F060
:100FF0000A0242EA0E02CCF81810CCF82020DCF8E5
:10100000081041F0470121F0300180E06F2B27DD0F
:10101000B3F5005F48D0B3F5805F7AD0702B40F015
:101020008180D1E901E3C968DCF8082043EA0E03B6
:1010300022F47F4243EA01211143CCF80810DCF886
:10104000081041F0770162E00BB1102B6AD1DCF897
:10105000081021F07001194341F0070157E000BF6B
:10106000502B35D0602B5DD1D1F804E0C968DCF895
:101070002030DCF8202022F01002CCF82020DCF810
:10108000182022F4704242EA013123F0A00242EA21
:101090000E12CCF81810CCF82020DCF8081041F023
:1010A000670121F0100132E0D1E901E3C968DCF801
:1010B000082043EA0E0322F47F4243EA0121114350
:1010C000CCF80810DCF8081041F480411FE000BFA4
:1010D000D1F804E0C968DCF82030DCF8202022F0E8
:1010E0000102CCF82020DCF8182022F0F00242EABD
:1010F000011123F00A0242EA0E02CCF81810CCF8D3
:101100002020DCF8081041F0570121F02001CCF834
:1011100008100022012180F83D10002180F83C10C9
:10112000104680BD0122F5E77047000070B5044607
:101130000068C5680669B10716D515F0020113D01D
:101140006FF002010161012121778069800703D0DE
:101150002046FFF7E9FF05E0204600F08FF8204623
:1011600000F08EF800202077700719D515F00400E4
:1011700016D020686FF00401016102212177806997
:1011800010F4407F04D02046FFF7CEFF06E000BFFA
:10119000204600F073F8204600F072F80020207717
:1011A000300717D515F0080014D020686FF008013B
:1011B000016104212177C069800703D02046FFF731
:1011C000B3FF05E0204600F059F8204600F058F83B
:1011D00000202077F00619D515F0100016D02068F1
:1011E0006FF01001016108212177C06910F4407F80
:1011F00004D02046FFF798FF06E000BF204600F02D
:101200003DF8204600F03CF800202077F00718BF9A
:1012100015F0010002D1300609D412E020686FF009
:1012200001010161204600F02DF8300609D515F0C6
:10123000800006D020686FF0800101612046FFF732
:10124000C7FD700609D515F0400006D020686FF084
:1012500040010161204600F0B1F9B00658BF70BDF1
:1012600015F0200008D021686FF0200220460A61A6
:10127000BDE87040FFF7AEBD70BD000070470000D4
:10128000704700002DE9F04F85B00068B0F1804F45
:1012900002D005B0BDE8F08F40F20C0040F27007BC
:1012A000C2F20000C2F20007D0F800C0B86884455E
:1012B000EFDCB86840F22414A0EB0C010129C2F263
:1012C000000433DB481E032801F0030018D321F08B
:1012D000030120223B68043903F101063E60E25419
:1012E0003B6803F101063E60E2543B6803F10106EE
:1012F0003E60E2543B6803F101063E60E254E9D1EE
:10130000A0B13A68012802F1010139604FF02001D3
:10131000A1540BD03A68022802F101033B60A154AA
:1013200004D03868411C396020212154BCF1010FE0
:10133000C0F2DA800DF10A0046F2676948F21F58E0
:1013400044F6D35A48F6AD3B811E02300126C6F260
:101350006669C5F2EB18C1F2620AC6F6DB0B0091B2
:1013600001900BE03868664500F1010139604FF0EB
:10137000200106F10106215400F0B6806046314696
:10138000654600F085FF48B303210246AC4600BF26
:1013900002F10903132B27D352FB09F39D1005EB30
:1013A000D3730933132B21D352FB08F35D1105EBE3
:1013B000D3730933132B1AD352FB0AF39D1105EB98
:1013C000D37352FB0BF21513093305EBD272132BB7
:1013D00001F10401DCD2033909E000BF3021ADF88E
:1013E0000A10AC465CE000BF023900E001390DF1A3
:1013F0000A0200235354009A114400BF50FB09F223
:10140000931003EBD27200F10903132B02EB82035A
:10141000A0EB430303F130034B703CD352FB09F3C1
:101420009D0805EBD37303EB8303A2EB430309325F
:101430003033132A0B702ED350FB08F2531103EBF9
:10144000D27252FB09F39D0805EBD37303EB8303C0
:10145000A2EB430309323033132A01F8013C1AD3BB
:1014600050FB0AF2931103EBD27252FB09F39D0871
:1014700005EBD37303EB8303A2EB4303303350FB41
:101480000BF001F8023C0313093203EBD070122A6F
:10149000A1F10401B2D89DF80A1000293FF462AF0F
:1014A000019800BF3B685A1C3A6010F8012CE154C7
:1014B000002A3FF457AF3B68591C39600178E25469
:1014C00000293FF44FAF3B685A1C3A604278E15420
:1014D000002A3FF447AF3B68591C396081780430DB
:1014E0000029E254DED13DE738684FF00D08411C79
:1014F000396004F8008038680A26411C3960265497
:10150000386807F1200582B22846214600F00AFC1F
:1015100040F20C09C2F20009D9F80000411CC9F8D8
:101520000010B9688842FFF6B4AE3868411C3960D3
:1015300004F800803868411C396026543868411C22
:101540003960452121543868411C39606E2121548D
:101550003868411C3960742121543868411C396055
:10156000652121543868411C396072212154386842
:10157000411C3960202121543868421C3A604E22B7
:1015800022543868421C3A603A2222543868421C7D
:101590003A6021543868214682B2284600F0C2FBE6
:1015A00007F10C0128460122012400F02DFB002048
:1015B000C9F80040B86005B0BDE8F08F7047000082
:1015C0007047000070470000B0B582B00446006864
:1015D0000168C368426901F02F05202D03F0200542
:1015E00006D12DB1204602B0BDE8B04000F060BC8D
:1015F0005FEA017C1EBF02F0010E03F4907212EB51
:101600000E0253D1226B012A05D111F0100218BF2E
:1016100013F0100236D10A0622D513F080021FD033
:1016200094F8411021293FD1A168B1F5805F03D121
:101630002169002900F07282216A4A1C226209781D
:101640004160E18C01390A04E1842DD1C16821F0A7
:101650008001C160C16841F04001C16002B0B0BD0D
:10166000490621D513F040011ED0C16821F0400188
:10167000C1602021204684F8411002B0BDE8B0408E
:1016800000F06CBB0021019101680191416801915A
:1016900001994069400613D4A08DE18DE28D002AA6
:1016A00018BF884240F0BC8102B0B0BDCA0718BF65
:1016B00013F4807240F0B8804A0700F1BB80C0E0AC
:1016C000E06B016849688AB2002AEDD0A38D9A4286
:1016D000EAD2E185C069B0F5807F00F09C80206887
:1016E00050E8030F216820F4807041E80302DAB16A
:1016F000206850E8030F216820F4807041E803025D
:1017000092B1206850E8030F216820F4807041E80E
:1017100003024AB1206850E8030F216820F480706A
:1017200041E80302002ADAD1206850E8050F216859
:1017300020F0010041E80502DAB1206850E8050F09
:10174000216820F0010041E8050292B1206850E8CC
:10175000050F216820F0010041E805024AB1206828
:1017600050E8050F216820F0010041E80502002A39
:10177000DAD1206850E8050F216820F0400041E8E8
:101780000502DAB1206850E8050F216820F040001A
:1017900041E8050292B1206850E8050F216820F069
:1017A000400041E805024AB1206850E8050F216871
:1017B00020F0400041E80502002ADAD1202084F818
:1017C000420000202063206850E8030F216820F0C9
:1017D000100041E80302DAB1206850E8030F2168E5
:1017E00020F0100041E8030292B1206850E8030F96
:1017F000216820F0100041E803024AB1206850E857
:10180000030F216820F0100041E80302002ADAD11A
:10181000E06BFEF711FE02206063A08DE18D401A9F
:1018200081B2204675E100BF626C42F00102626441
:101830004A0706D5BEF1000F03D0626C42F00202E7
:1018400062648A0706D5BEF1000F03D0626C42F0D5
:1018500004026264BCF1000F09D545EA0E02B2FA37
:1018600082F2520903D1626C42F008026264626C37
:10187000002A3FF419AF11F0200118BF002D03D04A
:10188000204600F015FB20684069616C00F04000C4
:1018900001F00801401800F0B58000BF206850E852
:1018A000030F216820F4907041E80302BAB3206866
:1018B00050E8030F216820F4907041E8030272B3EE
:1018C000206850E8030F216820F4907041E803027B
:1018D0002AB3206850E8030F216820F4907041E893
:1018E0000302002ADAD11AE0206850E8050F2168C7
:1018F00020F0010041E80502DAB1206850E8050F48
:10190000216820F0010041E8050292B1206850E80A
:10191000050F216820F0010041E805024AB1206866
:1019200050E8050F216820F0010041E80502002A77
:10193000DAD1206B012824D1206850E8030F2168F8
:1019400020F0100041E80302DAB1206850E8030FEC
:10195000216820F0100041E8030292B1206850E8AD
:10196000030F216820F0100041E803024AB120680B
:1019700050E8030F216820F0100041E80302002A1C
:10198000DAD1202084F842000020206320684069DA
:1019900040063FD5206850E8050F216820F0400040
:1019A00041E80502DAB1206850E8050F216820F00F
:1019B000400041E8050292B1206850E8050F216817
:1019C00020F0400041E805024AB1206850E8050FC8
:1019D000216820F0400041E80502002ADAD1E06BDE
:1019E000C0B141F6A561C0F600010165FEF76CFDCE
:1019F00000283FF459AEE06B016D02B0BDE8B04085
:101A0000084700BF2046FFF7DDFD0020606402B0FC
:101A1000B0BD00BF204602B0BDE8B040FFF7D2BD68
:101A2000401A216851E8031F226821F4907142E8AE
:101A30000313DBB1216851E8031F226821F4907180
:101A400042E8031393B1216851E8031F226821F48F
:101A5000907142E803134BB1216851E8031F2268DB
:101A600021F4907142E80313002BDAD1216851E888
:101A7000051F226821F0010142E80513DBB121684E
:101A800051E8051F226821F0010142E8051393B1D6
:101A9000216851E8051F226821F0010142E8051381
:101AA0004BB1216851E8051F226821F0010142E88D
:101AB0000513002BDAD1202184F842100021216384
:101AC000216851E8031F226821F0100142E8031346
:101AD000DBB1216851E8031F226821F0100142E8C0
:101AE000031393B1216851E8031F226821F010010C
:101AF00042E803134BB1216851E8031F226821F02B
:101B0000100142E80313002BDAD1022281B22046F1
:101B1000626302B0BDE8B040FFF752BD216A31F800
:101B2000022B6FF35F22426021628AE5002804BF26
:101B30000120704710B5044690F8410028B90020F4
:101B400084F84000204600F021F8242084F8410069
:101B50002068C16821F40051C160204600F028FAD5
:101B60002068016921F490410161416921F02A0155
:101B70004161C16841F40051C160002020216064CE
:101B800084F8411084F84210606310BD80B586B0BF
:101B9000016841F20000C4F20100814202D006B0A7
:101BA00080BD00BF002143F630020191C4F2020261
:101BB000536900F5704043F010035361536903F01B
:101BC00010030193019B0191136843F0010313601B
:101BD000126802F001020192019A4FF4C062019270
:101BE0000222CDE90221032104910721059101A9D7
:101BF000FEF77CFC252000210022FEF7CFFD2520EA
:101C0000FEF7B8FD06B080BD90F84230202B1CBF17
:101C10000220704700294FF0010318BF002A01D1AC
:101C20001846704700230363816222218285C285A2
:101C3000436480F842100169006819B1C16841F439
:101C40008071C1604169002341F001014161C168B7
:101C500041F02001C160184670470000B0B540F265
:101C60007000C2F20000017B42680D2946D100F1EC
:101C7000160300219954837D416043B300F11A0299
:101C8000002100BF01EB810112F8035C03EB41016D
:101C9000A1F13001DDB101EB810112F8023C05EB4D
:101CA0004101A1F1300193B101EB810112F8015C16
:101CB00003EB4101A1F130014DB101EB810112F8BB
:101CC000043B05EB4101002BA1F13001DAD1816029
:101CD00002680D23511C016040F22411C2F2000180
:101CE0008B540268531C03600A238B540268203013
:101CF00092B2BDE8B04000F015B800BF531C0244DA
:101D000000F1200400F10C0543609175204629463E
:101D1000012200F007F8204629460122BDE8B04024
:101D2000FFF772BF034690F8410020281CBF022035
:101D3000704700294FF0010018BF002A00D17047FA
:101D40001962002021219A84DA84586483F84110B2
:101D50001968CA6842F08002CA60704740F2700099
:101D6000C2F200000021016070470000FEE70000A1
:101D7000FEE70000FEE7000070470000704700002B
:101D8000FEF78EBC4EF68850CEF20000016841F49A
:101D9000700101607047000040F2D800C2F20000FC
:101DA000FFF7C4B910B540F2FF7E0368C4F2000E1D
:101DB00040F2000C7045C4F2010C1DDD40F600023B
:101DC000C4F20002904220D060451ED040F600428E
:101DD000C4F20002904218D04FF6FF72C4F2000223
:101DE00090421CDC704525DCB0F1804F3AD040F2C7
:101DF0000042C4F2000233E0B0F1804F05D040F25F
:101E00000042C4F200029042E6D14A6823F0700317
:101E100013434FF6FF72C4F200029042E2DD44F237
:101E2000FF32C4F20102904210DC60451AD044F245
:101E3000000213E040F60002C4F20002904211D00A
:101E400040F60042C4F200020AE000BF44F600027D
:101E5000C4F20102904205D044F20042C4F20102F1
:101E6000904203D1CA6823F44073134323F08002E5
:101E70004B69D1F800E08C681A4360450260C46287
:101E8000C0F828E002D10969CCF830100121416185
:101E90000169C90708BF10BD016921F00101016195
:101EA00010BD0000806B0021C185C184FFF78ABB93
:101EB00081B090F84210222921D183680246B3F5FF
:101EC000805F09D152F8281F52F8183C002B63D0CC
:101ED00003685B680AE000BF52F8281F13B9036962
:101EE000002BF5D003685B6803F07F030B7011686B
:101EF00001311160C18D01390A04C18502D001B0E0
:101F0000704700BF0168CA6822F02002CA60CA6830
:101F100022F48072CA604A6922F001024A612021DB
:101F200080F8421000214163026B012A3CD1016319
:101F3000016851E8031F026821F0100142E8031311
:101F4000DBB1016851E8031F026821F0100142E88B
:101F5000031393B1016851E8031F026821F01001D7
:101F600042E803134BB1016851E8031F026821F0F6
:101F7000100142E80313002BDAD101680A68D20687
:101F800006D5002200920A680092496800910099E3
:101F9000818D01B0FFF714BB026852686FF35F22B6
:101FA00021F8022B8162A5E701B0FFF757BE0000C0
:101FB00010B504460068D4E902C22369016921F41E
:101FC000405111430161626943EA0C01E369114325
:101FD000C268194349F20C639A431143C1604169D5
:101FE000A26921F4407141F20043114340F4806240
:101FF000C4F201039A42416102D1FEF7CFFC01E035
:10200000FEF7B8FCE16963681922B1F5004FA0FB47
:10201000020123D15A00DB0FFEF72EF948F21F51BF
:10202000C5F2EB11A0FB01235A094FF69C73C0F6D1
:10203000FF7303F1805302FB0300322303EBC00064
:10204000A0FB01014FF4F87000EA111000EB021040
:10205000C1F3421108442168886010BD9A009B0FAB
:10206000FEF70AF948F21F51C5F2EB11A0FB01235C
:102070005A094FF69C73C0F6FF7302FB030032232C
:1020800003EB0010A0FB0101F02000EA511000EB6F
:102090000210C1F3431108442168886010BD00009C
:1020A00040F29000C2F20000FFF78EBAFEE7000097
:1020B00094B043F6300647F20005C4F20206C4F2BB
:1020C0000005FEF7FBFA08AC201D2C21FEF74CF9A9
:1020D00000270697CDE90477CDE9027701973069AB
:1020E00040F080503061306900F0805001900198DC
:1020F0000197286840F440402860286800F4404078
:10210000019001980220089001200B9010200C9063
:1021100020460E97FEF78CFC10B172B6FEE700BFAA
:102120000F20CDE9020702A80021CDE90477069728
:10213000FEF770FB10B172B6FEE700BF00210891F8
:1021400030684FF0804240F080003060306843F6E5
:102150007F6300F08000089008980891306840F292
:10216000E73740F001003060306800F0010008906F
:10217000089840F2D800C2F200000B91CDE9091195
:10218000CDE90211C0E90023C0E9021701618161B4
:10219000FEF76AFE10B172B6FEE700BF4FF4805042
:1021A000089040F2D800C2F2000008A9FEF7EEFE47
:1021B00010B172B6FEE700BF40F2D800C2F20000D4
:1021C00002A9FEF709FE18B172B600BFFEE700BF14
:1021D00040F27004C2F2000405F52041204640F8A8
:1021E000201F4FF4165100220C23C0E90112C0E950
:1021F0000322C0E90532C261FFF798FC10B172B644
:10220000FEE700BF20684522411C216040F22411F6
:10221000C2F200010A5420682546421C22606E2248
:102220000A542068421C226074220A542068421C0E
:10223000226065220A542068421C226072220A54DD
:102240002068421C226020220A542068431C23601C
:102250004E230B542068431C23603A230B54206800
:10226000431C45F80C3B0A5454F8200B82B220461C
:10227000FFF758FD204629460122FFF7C5FC40F232
:10228000D800C2F20000FEF73FFE00BFFEE70000EC
:10229000F0B581B0054601294FF0010012D00C467F
:1022A0008D420FD0002700BF6E1E30462146FFF73B
:1022B000EFFF611E0129074403D0A5420C463546B5
:1022C000F2D1781C01B0F0BDF1EE100A4FF6FF71AB
:1022D000C0F2C03120EA010040F04070E1EE100A87
:1022E0007047000000000000000001020304060720
:1022F0000809000000000102030400002023000878
:102300000000002010000000D40100083023000865
:1023100010000020E80E0000F0010008000000009E
:1023200001000000100000000024F4000100000083
:040000050800019955
:00000001FF
