:020000040800F2
:10000000B0060020350200083D0200083F0200084B
:1000100041020008430200084502000800000000F9
:10002000000000000000000000000000470200087F
:1000300049020008000000004B0200084D020008C1
:100040004F0200084F0200084F0200084F0200084C
:100050004F0200084F0200084F0200084F0200083C
:100060004F0200084F0200084F0200084F0200082C
:100070004F0200084F0200084F0200084F0200081C
:100080004F0200084F0200084F0200080000000065
:100090000000000000000000000000004F02000807
:1000A0004F0200084F0200084F0200084F020008EC
:1000B0004F0200084F0200084F0200084F020008DC
:1000C0004F0200084F0200084F0200084F020008CC
:1000D0004F0200084F0200084F0200080000000015
:1000E000910300084F0200084F02000800000000C2
:1000F0000000000000000000000000004F020008A7
:10010000000000004F0200084F0200084F020008E4
:1001100000000000000000000000000000000000DF
:100120004F0200084F0200084F0200084F0200086B
:100130004F02000800000000000000000000000066
:100140000000000000000000000000004F02000856
:100150004F0200084F0200084F0200084F0200083B
:100160004F0200084F0200080000000000000000DD
:10017000000000000000000000000000000000007F
:10018000000000004F020008000000000000000016
:100190004F02000800F002F800F03CF80AA090E8D6
:1001A000000C82448344AAF10107DA4501D100F032
:1001B00031F8AFF2090EBAE80F0013F0010F18BFC3
:1001C000FB1A43F00103184790090000B009000032
:1001D000103A24BF78C878C1FAD8520724BF30C873
:1001E00030C144BF04680C60704700000023002445
:1001F00000250026103A28BF78C1FBD8520728BF37
:1002000030C148BF0B6070471FB500F093FC1FBDA5
:1002100010B510BD00F031F81146FFF7F5FF00F002
:10022000C1FB00F04FF803B4FFF7F2FF03BC00F08E
:1002300057F800000948804709480047FEE7FEE7F5
:10024000FEE7FEE7FEE7FEE7FEE7FEE7FEE7FEE786
:1002500004480549054A064B704700005508000848
:1002600095010008B0000020B0060020B002002078
:10027000B0020020704770477047754600F02CF8B8
:10028000AE4605006946534620F00700854618B083
:1002900020B5FFF7DDFFBDE820404FF000064FF02E
:1002A00000074FF000084FF0000BAC46ACE8C00967
:1002B000ACE8C009ACE8C009ACE8C00921F007010E
:1002C0008D46704710B50446AFF300802046BDE868
:1002D0001040FFF7A8BF000000487047180000203A
:1002E00001491820ABBEFEE726000200704700005F
:1002F00083B0029001918DF803200298019AD117E2
:1003000002EB917121F00301521A920000FA02F3FC
:1003100043F60802C4F20102885818438850019934
:10032000012000FA01F243F60041C4F2010108681D
:10033000104308609DF80300012805D0FFE79DF8F1
:10034000030003280CD1FFE70199012000FA01F214
:1003500043F60C41C4F20101086810430860FFE74E
:100360009DF80300022805D0FFE79DF8030003284D
:100370000CD1FFE70199012000FA01F243F6084190
:10038000C4F20101086810430860FFE703B070473A
:1003900080B588B043F61441C4F20101086840F406
:1003A00000500860282000F05FFA02200D2100F0C4
:1003B000CBF900285FD1FFE740F2A800C2F20000AD
:1003C0000068002857D1FFE740F2A401C2F2000103
:1003D000002008608DF81F00FFE79DF81F0003282C
:1003E00017DCFFE79DF81F10012000F0ADF99DF824
:1003F0001F1000FA01F240F2A401C2F200010868E5
:1004000010430860FFE79DF81F0001308DF81F00C2
:10041000E3E705208DF81E00FFE79DF81E000B287E
:1004200021DCFFE79DF81E00029040F2A400C2F21A
:100430000000006800F082FA0299024640F64E3051
:10044000C0F60000805C9DF81E20053AD04000F008
:100450000102002000F090F9FFE79DF81E00013036
:100460008DF81E00D9E740F2A801C2F20001086829
:1004700001300860D1E002200D2100F065F901286B
:100480005ED1FFE740F2A800C2F200000068012838
:1004900056D1FFE740F2A001C2F20001002008603F
:1004A0008DF81D00FFE79DF81D00032817DCFFE70E
:1004B0009DF81D10012000F047F99DF81D1000FA6D
:1004C00001F240F2A001C2F2000108681043086086
:1004D000FFE79DF81D0001308DF81D00E3E70020C7
:1004E0008DF81C00FFE79DF81C00062820DCFFE7C4
:1004F0009DF81C00019040F2A000C2F200000068CC
:1005000000F01CFA0199024640F64E30C0F6000099
:10051000805C9DF81C20D04000F00102022000F019
:100520002BF9FFE79DF81C0001308DF81C00DAE77D
:1005300040F2A801C2F200010868013008606BE0D7
:1005400002200D2100F000F9012864D1FFE740F2FC
:10055000A800C2F20000006802285CD1FFE740F268
:10056000A400C2F20000006840F2A001C2F2000143
:10057000096800F02DF900F0E1F98DF81B009DF8F5
:100580001B0000F00F0005909DF81B00000904906F
:1005900005208DF80F00FFE79DF80F000B2815DCF4
:1005A000FFE79DF80F10059A40F64E30C0F60000A8
:1005B000805CC84000F00102002000F0DDF8FFE799
:1005C0009DF80F0001308DF80F00E5E700208DF851
:1005D0000E00FFE79DF80E00062815DCFFE79DF8EA
:1005E0000E10049A40F64E30C0F60000805CC84001
:1005F00000F00102022000F0BFF8FFE79DF80E00B6
:1006000001308DF80E00E5E740F2A801C2F20001CA
:1006100000200860FFE7FFE7FFE708B080BD0000AB
:1006200043F64401C4F20201086840F480400860C7
:100630007047000081B00090009940F20C00C2F2B7
:10064000000050F8212043F63001C4F2020108688E
:100650001043086001B0704784B003908DF80B1010
:100660008DF80A208DF809309DF80A0001460191A5
:1006700020B1FFE70198012811D021E09DF80B007F
:100680004100032000FA01F2039940F20000C2F297
:10069000000050F8211008689043086010E09DF8B1
:1006A0000B004100012000FA01F2039940F2000022
:1006B000C2F2000050F82110086810430860FFE7FC
:1006C0009DF809000146009150B3FFE70098022809
:1006D00004D0FFE70098042811D032E09DF80B0009
:1006E0004100012000FA01F2039940F20000C2F239
:1006F000000050F82110C8681043C86021E09DF840
:100700000B004100022000FA01F2039940F20000C0
:10071000C2F2000050F82110C8681043C86010E011
:100720009DF80B004100032000FA01F2039940F20A
:100730000000C2F2000050F82110C8689043C86061
:10074000FFE704B07047000083B002908DF80710F7
:1007500000200090029940F20000C2F2000050F820
:10076000210000699DF8071001228A401040C8400E
:100770000090009803B0704782B001908DF803108C
:100780008DF802209DF8020080B1FFE79DF803106C
:10079000012000FA01F2019940F20000C2F20000CB
:1007A00050F821104869104348610FE09DF803108C
:1007B000012000FA01F2019940F20000C2F20000AB
:1007C00050F82110486990434861FFE702B0704734
:1007D00080B582B001900091019800F009F800996D
:1007E00040F27800C2F2000050F8210002B080BD53
:1007F00080B582B0019001200090FFE70098019938
:10080000884210DCFFE70198009900F06FF9009A28
:1008100040F27801C2F2000141F82200FFE700989F
:1008200001300090EAE702B080BD000080B582B0E0
:10083000019000919DF90400009900F05DF89DF988
:10084000040000F029F89DF9040000F03DF802B022
:1008500080BD00004EF68851CEF20001086840F4D9
:10086000700008607047000081B08DF803009DF9AA
:10087000030000280ED4FFE79DF9031001F01F02CA
:10088000012090404A094EF28021CEF2000141F849
:100890002200FFE701B0704781B08DF803009DF999
:1008A000030000280ED4FFE79DF9031001F01F029A
:1008B000012090404A094EF28021CEF2000141F819
:1008C0002200FFE701B0704781B08DF803009DF969
:1008D000030000280ED4FFE79DF9031001F01F026A
:1008E000012090404A094EF20011CEF2000141F879
:1008F0002200FFE701B0704782B08DF80700009139
:100900009DF9070000280AD4FFE7009800019DF92F
:1009100007104EF20042CEF2000288540BE000981D
:1009200000019DF8071001F00F014EF61452CEF2AF
:1009300000028854FFE702B07047000084B00390C3
:1009400000208DF80B00039901910090FFE70098BB
:10095000012823DCFFE7019846F26761C6F2666171
:1009600050FB01F39A0802EBD37202EB8202A0EB78
:100970004200009A920000FA02F29DF80B00104328
:100980008DF80B00019850FB01F1881000EBD1703D
:100990000190FFE7009801300090D8E79DF80B0028
:1009A00004B0704780B586B000200590FFF742FE86
:1009B0000220FFF73FFE05208DF81300FFE79DF8AA
:1009C00013000B280EDCFFE79DF813100122002313
:1009D0001846FFF741FEFFE79DF8130001308DF840
:1009E0001300ECE700208DF81200FFE79DF81200DD
:1009F00006280EDCFFE79DF81210022001220023DA
:100A0000FFF72AFEFFE79DF8120001308DF8120073
:100A1000ECE70120FFF70EFE00208DF81100FFE744
:100A20009DF8110003280EDCFFE79DF8111001204E
:100A300000231A46FFF710FEFFE79DF81100013072
:100A40008DF81100ECE70D210191002202920223A2
:100A500000931846FFF700FEFFF7E2FD00980199AA
:100A60000322FFF745FC029962B62820FFF7DEFE5D
:100A700005208DF81000FFE79DF810000B2815DC0D
:100A8000FFE79DF8101040F64E30C0F600000078E9
:100A90004A1FD04000F001020020FFF76DFEFFE783
:100AA0009DF8100001308DF81000E5E700208DF86A
:100AB0000F00FFE79DF80F00062814DCFFE79DF804
:100AC0000F1040F64E30C0F600000078C84000F02D
:100AD00001020220FFF750FEFFE79DF80F000130F2
:100AE0008DF80F00E6E7FFE7FEE7000080B584B071
:100AF000029001910198012805D0FFE70298019921
:100B0000884203D1FFE70120039010E002980138EA
:100B10000199FFF7EBFF0090029801380199013924
:100B2000FFF7E4FF0146009808440390FFE70398AD
:100B300004B080BDF1EE100A4FF6FF71C0F2C03173
:100B400020EA010040F04070E1EE100A70473F06D5
:100B50005B4F666D7D077F6F780B000800000020FB
:100B600018000000D0010008900B000818000020B9
:100B700098060000EC01000800000240000402405A
:100B80000008024001000000020000000400000014
:040000050800019559
:00000001FF
