:020000040800F2
:10000000B0060020350200083D0200083F0200084B
:1000100041020008430200084502000800000000F9
:10002000000000000000000000000000470200087F
:1000300049020008000000004B0200084D020008C1
:100040004F0200084F0200084F0200084F0200084C
:100050004F0200084F0200084F0200084F0200083C
:100060004F0200084F0200084F0200084F0200082C
:100070004F0200084F0200084F0200084F0200081C
:100080004F0200084F0200084F0200080000000065
:100090000000000000000000000000004F02000807
:1000A0004F0200084F0200084F0200084F020008EC
:1000B0004F0200084F0200084F0200084F020008DC
:1000C0004F0200084F0200084F0200084F020008CC
:1000D0004F0200084F0200084F0200080000000015
:1000E0004F0200084F0200084F0200080000000005
:1000F0000000000000000000000000004F020008A7
:10010000000000004F0200084F0200084F020008E4
:1001100000000000000000000000000000000000DF
:100120004F0200084F0200084F0200084F0200086B
:100130004F02000800000000000000000000000066
:100140000000000000000000000000004F02000856
:100150004F0200084F0200084F0200084F0200083B
:100160004F0200084F0200080000000000000000DD
:10017000000000000000000000000000000000007F
:10018000000000004F020008000000000000000016
:100190004F02000800F002F800F03CF80AA090E8D6
:1001A000000C82448344AAF10107DA4501D100F032
:1001B00031F8AFF2090EBAE80F0013F0010F18BFC3
:1001C000FB1A43F0010318473C0700005C070000DE
:1001D000103A24BF78C878C1FAD8520724BF30C873
:1001E00030C144BF04680C60704700000023002445
:1001F00000250026103A28BF78C1FBD8520728BF37
:1002000030C148BF0B6070471FB500F069FB1FBDD0
:1002100010B510BD00F031F81146FFF7F5FF00F002
:100220005DF900F04FF803B4FFF7F2FF03BC00F0F4
:1002300057F800000948804709480047FEE7FEE7F5
:10024000FEE7FEE7FEE7FEE7FEE7FEE7FEE7FEE786
:1002500004480549054A064B704700006104000840
:1002600095010008B0000020B0060020B002002078
:10027000B0020020704770477047754600F02CF8B8
:10028000AE4605006946534620F00700854618B083
:1002900020B5FFF7DDFFBDE820404FF000064FF02E
:1002A00000074FF000084FF0000BAC46ACE8C00967
:1002B000ACE8C009ACE8C009ACE8C00921F007010E
:1002C0008D46704710B50446AFF300802046BDE868
:1002D0001040FFF7A8BF000000487047180000203A
:1002E00001491820ABBEFEE726000200704700005F
:1002F00081B00090009940F20C00C2F2000050F86A
:10030000212043F63001C4F202010868104308605E
:1003100001B0704783B002908DF807108DF8062069
:100320009DF806000146009120B1FFE700980128E2
:1003300011D021E09DF807004100032000FA01F2EE
:10034000029940F20000C2F2000050F82110086843
:100350009043086010E09DF807004100012000FA7A
:1003600001F2029940F20000C2F2000050F82110A0
:10037000086810430860FFE703B0704783B002903D
:100380008DF8071000200090029940F20000C2F2A0
:10039000000050F8210000699DF8071001228A40F2
:1003A0001040C8400090009803B0704782B00190A0
:1003B0008DF803108DF802209DF8020080B1FFE750
:1003C0009DF80310012000FA01F2019940F20000AB
:1003D000C2F2000050F821104869104348610FE054
:1003E0009DF80310012000FA01F2019940F200008B
:1003F000C2F2000050F82110486990434861FFE7BD
:1004000002B0704780B582B001900091019800F071
:1004100009F8009940F27800C2F2000050F821007B
:1004200002B080BD80B582B0019001200090FFE74E
:1004300000980199884210DCFFE70198009900F0CC
:100440002BFA009A40F27801C2F2000141F8220032
:10045000FFE7009801300090EAE702B080BD00009D
:100460004EF68851CEF20001086840F47000086032
:100470007047000084B0039000208DF80B000399B2
:1004800001910090FFE70098012823DCFFE7019825
:1004900046F26761C6F2666150FB01F39A0802EB0F
:1004A000D37202EB8202A0EB4200009A920000FAA3
:1004B00002F29DF80B0010438DF80B00019850FBE1
:1004C00001F1881000EBD1700190FFE70098013036
:1004D0000090D8E79DF80B0004B0704780B58CB051
:1004E000002003900B90FFF703FF0220FFF700FFAF
:1004F00003988DF82B00FFE79DF82B0006280DDCF4
:10050000FFE79DF82B1000200122FFF703FFFFE714
:100510009DF82B0001308DF82B00EDE700208DF8C1
:100520002A00FFE79DF82A0006280DDCFFE79DF86A
:100530002A1002200122FFF7EDFEFFE79DF82A00B6
:1005400001308DF82A00EDE70120FFF7D1FE0020F1
:100550008DF82900FFE79DF8290003280DDCFFE74F
:100560009DF8291001200022FFF7D4FEFFE79DF837
:10057000290001308DF82900EDE702200D2100222D
:100580000292FFF7C7FE02988DF82800FFE79DF85A
:100590002800062814DCFFE79DF8281040F6FA0032
:1005A000C0F600000078C84000F001020020FFF70C
:1005B000FDFEFFE79DF8280001308DF82800E6E7F2
:1005C00000208DF82700FFE79DF82700062814DC9F
:1005D000FFE79DF8271040F6FA00C0F6000000780B
:1005E000C84000F001020220FFF7E0FEFFE79DF89F
:1005F000270001308DF82700E6E7FFE702200D21F4
:10060000FFF7BCFE01285ED1FFE740F2A800C2F26E
:1006100000000068002856D1FFE740F2A401C2F2B2
:100620000001002008608DF82600FFE79DF82600F5
:10063000032817DCFFE79DF826100120FFF79EFE38
:100640009DF8261000FA01F240F2A401C2F2000166
:10065000086810430860FFE79DF8260001308DF818
:100660002600E3E700208DF82500FFE79DF8250030
:10067000062820DCFFE79DF82500019040F2A40049
:10068000C2F200000068FFF7F5FE0199024640F64D
:10069000FA00C0F60000805C9DF82520D04000F0F4
:1006A00001020020FFF782FEFFE79DF825000130E0
:1006B0008DF82500DAE740F2A801C2F200010868CF
:1006C00001300860D6E002200D21FFF757FE012817
:1006D00063D1FFE740F2A800C2F2000000680128E1
:1006E0005BD1FFE740F2A001C2F2000100200860E8
:1006F0008DF82400FFE79DF82400032817DCFFE7AE
:100700009DF824100120FFF739FE9DF8241000FA0F
:1007100001F240F2A001C2F2000108681043086033
:10072000FFE79DF8240001308DF82400E3E7002066
:100730008DF82300FFE79DF82300062820DCFFE763
:100740009DF82300009040F2A000C2F20000006873
:10075000FFF790FE0099024640F6FA00C0F600004E
:10076000805C9DF82320D04000F001020220FFF7BA
:100770001DFEFFE79DF8230001308DF82300DAE726
:10078000022000210122FFF711FE40F2A801C2F26F
:1007900000010868013008606BE002200D21FFF7BE
:1007A000EDFD012864D1FFE740F2A800C2F200008D
:1007B000006802285CD1FFE740F2A400C2F200000A
:1007C000006840F2A001C2F200010968FFF71AFEBA
:1007D000FFF750FE8DF822009DF8220000F00F0078
:1007E00007909DF822000009069000208DF8170060
:1007F000FFE79DF81700062815DCFFE79DF81710A6
:10080000079A40F6FA00C0F60000805CC84000F08D
:1008100001020020FFF7CAFDFFE79DF81700013035
:100820008DF81700E5E700208DF81600FFE79DF82A
:100830001600062815DCFFE79DF81610069A40F60C
:10084000FA00C0F60000805CC84000F001020220FF
:10085000FFF7ACFDFFE79DF8160001308DF816009C
:10086000E5E740F2A801C2F2000100200860FFE7BE
:10087000FFE7FFE700200490FFE7049844F23F21E0
:10088000C0F20F01884205DCFFE7FFE70498013062
:100890000490F2E7B2E6000080B584B002900191C6
:1008A0000198012805D0FFE702980199884203D1F9
:1008B000FFE70120039010E0029801380199FFF74B
:1008C000EBFF00900298013801990139FFF7E4FF2E
:1008D0000146009808440390FFE7039804B080BDE8
:1008E000F1EE100A4FF6FF71C0F2C03120EA0100AC
:1008F00040F04070E1EE100A70473F065B4F666DB6
:100900007D077F6F28090008000000201800000004
:10091000D0010008400900081800002098060000D7
:10092000EC0100080000000000000240000402404A
:100930000008024001000000020000000400000066
:040000050800019559
:00000001FF
