:020000040800F2
:10000000B0060020350200083D0200083F0200084B
:1000100041020008430200084502000800000000F9
:10002000000000000000000000000000470200087F
:1000300049020008000000004B0200084D020008C1
:100040004F0200084F0200084F0200084F0200084C
:100050004F0200084F0200084F0200084F0200083C
:100060004F0200084F0200084F0200084F0200082C
:100070004F0200084F0200084F0200084F0200081C
:100080004F0200084F0200084F0200080000000065
:100090000000000000000000000000004F02000807
:1000A0004F0200084F0200084F0200084F020008EC
:1000B0004F0200084F0200084F0200084F020008DC
:1000C0004F0200084F0200084F0200084F020008CC
:1000D0004F0200084F0200084F0200080000000015
:1000E0004F0200084F0200084F0200080000000005
:1000F0000000000000000000000000004F020008A7
:10010000000000004F0200084F0200084F020008E4
:1001100000000000000000000000000000000000DF
:100120004F0200084F0200084F0200084F0200086B
:100130004F02000800000000000000000000000066
:100140000000000000000000000000004F02000856
:100150004F0200084F0200084F0200084F0200083B
:100160004F0200084F0200080000000000000000DD
:10017000000000000000000000000000000000007F
:10018000000000004F020008000000000000000016
:100190004F02000800F002F800F03CF80AA090E8D6
:1001A000000C82448344AAF10107DA4501D100F032
:1001B00031F8AFF2090EBAE80F0013F0010F18BFC3
:1001C000FB1A43F001031847200700004007000016
:1001D000103A24BF78C878C1FAD8520724BF30C873
:1001E00030C144BF04680C60704700000023002445
:1001F00000250026103A28BF78C1FBD8520728BF37
:1002000030C148BF0B6070471FB500F05BFB1FBDDE
:1002100010B510BD00F031F81146FFF7F5FF00F002
:100220005DF900F04FF803B4FFF7F2FF03BC00F0F4
:1002300057F800000948804709480047FEE7FEE7F5
:10024000FEE7FEE7FEE7FEE7FEE7FEE7FEE7FEE786
:1002500004480549054A064B704700006104000840
:1002600095010008B0000020B0060020B002002078
:10027000B0020020704770477047754600F02CF8B8
:10028000AE4605006946534620F00700854618B083
:1002900020B5FFF7DDFFBDE820404FF000064FF02E
:1002A00000074FF000084FF0000BAC46ACE8C00967
:1002B000ACE8C009ACE8C009ACE8C00921F007010E
:1002C0008D46704710B50446AFF300802046BDE868
:1002D0001040FFF7A8BF000000487047180000203A
:1002E00001491820ABBEFEE726000200704700005F
:1002F00081B00090009940F20C00C2F2000050F86A
:10030000212043F63001C4F202010868104308605E
:1003100001B0704783B002908DF807108DF8062069
:100320009DF806000146009120B1FFE700980128E2
:1003300011D021E09DF807004100032000FA01F2EE
:10034000029940F20000C2F2000050F82110086843
:100350009043086010E09DF807004100012000FA7A
:1003600001F2029940F20000C2F2000050F82110A0
:10037000086810430860FFE703B0704783B002903D
:100380008DF8071000200090029940F20000C2F2A0
:10039000000050F8210000699DF8071001228A40F2
:1003A0001040C8400090009803B0704782B00190A0
:1003B0008DF803108DF802209DF8020080B1FFE750
:1003C0009DF80310012000FA01F2019940F20000AB
:1003D000C2F2000050F821104869104348610FE054
:1003E0009DF80310012000FA01F2019940F200008B
:1003F000C2F2000050F82110486990434861FFE7BD
:1004000002B0704780B582B001900091019800F071
:1004100009F8009940F27800C2F2000050F821007B
:1004200002B080BD80B582B0019001200090FFE74E
:1004300000980199884210DCFFE70198009900F0CC
:100440001DFA009A40F27801C2F2000141F8220040
:10045000FFE7009801300090EAE702B080BD00009D
:100460004EF68851CEF20001086840F47000086032
:100470007047000084B0039000208DF80B000399B2
:1004800001910090FFE70098012823DCFFE7019825
:1004900046F26761C6F2666150FB01F39A0802EB0F
:1004A000D37202EB8202A0EB4200009A920000FAA3
:1004B00002F29DF80B0010438DF80B00019850FBE1
:1004C00001F1881000EBD1700190FFE70098013036
:1004D0000090D8E79DF80B0004B0704780B58EB04F
:1004E000002005900D90FFF703FF05988DF833006D
:1004F000FFE79DF833000D280DDCFFE79DF8331072
:1005000000200122FFF706FFFFE79DF833000130CE
:100510008DF83300EDE70120FFF7EAFE00208DF8AB
:100520003200FFE79DF8320003280DDCFFE79DF85D
:10053000321001200022FFF7EDFEFFE79DF83200A8
:1005400001308DF83200EDE702200390FFF7D0FE76
:100550000398002204921146FFF7DCFE04988DF800
:100560003100FFE79DF83100062814DCFFE79DF815
:10057000311040F6DE00C0F600000078C84000F000
:1005800001020020FFF712FFFFE79DF83100013064
:100590008DF83100E6E700208DF83000FFE79DF888
:1005A0003000062816DCFFE79DF83020D01D40F60D
:1005B000DE01C0F600010978D14001F00102C1B2AC
:1005C0000020FFF7F3FEFFE79DF8300001308DF8C3
:1005D0003000E4E702200290FFF78AFE02980D2126
:1005E0000022FFF797FEFFE702200D21FFF7C6FE6E
:1005F00001285ED1FFE740F2A800C2F200000068C7
:10060000002856D1FFE740F2A401C2F20001002009
:1006100008608DF82F00FFE79DF82F00032817DCF6
:10062000FFE79DF82F100120FFF7A8FE9DF82F107F
:1006300000FA01F240F2A401C2F20001086810437E
:100640000860FFE79DF82F0001308DF82F00E3E7E9
:1006500000208DF82E00FFE79DF82E00062820DCF4
:10066000FFE79DF82E00019040F2A400C2F20000C6
:100670000068FFF7FFFE0199024640F6DE00C0F673
:100680000000805C9DF82E20D04000F00102002088
:10069000FFF78CFEFFE79DF82E0001308DF82E004D
:1006A000DAE740F2A801C2F20001086801300860F0
:1006B000D5E002200D21FFF761FE012860D1FFE7A0
:1006C00040F2A800C2F200000068012858D1FFE7FC
:1006D00040F2A001C2F20001002008608DF82D0058
:1006E000FFE79DF82D00032817DCFFE79DF82D108C
:1006F0000120FFF743FE9DF82D1000FA01F240F2B1
:10070000A001C2F20001086810430860FFE79DF8ED
:100710002D0001308DF82D00E3E700208DF82C002E
:10072000FFE79DF82C00062822DCFFE79DF82C004F
:100730000730009040F2A000C2F200000068FFF70E
:1007400099FE0246009840F6DE01C0F60001895C81
:100750009DF82C20D14001F00102C1B20020FFF72A
:1007600025FEFFE79DF82C0001308DF82C00D8E71E
:1007700040F2A801C2F200010868013008606DE093
:1007800002200D21FFF7FAFD012866D1FFE740F2B4
:10079000A800C2F20000006802285ED1FFE740F224
:1007A000A400C2F20000006840F2A001C2F2000101
:1007B0000968FFF727FEFFF75DFE8DF82B009DF817
:1007C0002B0000F00F0009909DF82B000009089005
:1007D00000208DF81F00FFE79DF81F00062815DC9C
:1007E000FFE79DF81F10099A40F6DE00C0F60000F2
:1007F000805CC84000F001020020FFF7D7FDFFE752
:100800009DF81F0001308DF81F00E5E700208DF8EE
:100810001E00FFE79DF81E00062817DCFFE79DF885
:100820001E20D01D089B40F6DE01C0F60001C95C09
:10083000D14001F00102C1B20020FFF7B7FDFFE790
:100840009DF81E0001308DF81E00E3E740F2A8017C
:10085000C2F2000100200860FFE7FFE7FFE7002089
:100860000690FFE7069842F20F71884205DCFFE729
:10087000FFE7069801300690F4E7B5E680B584B04E
:10088000029001910198012805D0FFE70298019993
:10089000884203D1FFE70120039010E0029801385D
:1008A0000199FFF7EBFF0090029801380199013997
:1008B000FFF7E4FF0146009808440390FFE7039820
:1008C00004B080BDF1EE100A4FF6FF71C0F2C031E6
:1008D00020EA010040F04070E1EE100A70473F0648
:1008E0005B4F666D7D077F6F0809000800000020E0
:1008F00018000000D001000820090008180000209E
:1009000098060000EC0100080000024000040240CC
:100910000008024001000000020000000400000086
:040000050800019559
:00000001FF
