:020000040800F2
:1000000080060020E9020008F1020008F30200085F
:10001000F5020008F7020008F902000800000000DD
:10002000000000000000000000000000FB020008CB
:10003000FD02000800000000FF02000801030008A4
:100040000303000803030008030300080303000878
:100050000303000803030008030300080303000868
:100060000303000803030008030300080303000858
:100070000303000803030008030300080303000848
:100080000303000803030008030300080000000046
:100090000000000000000000000000000303000852
:1000A0000303000803030008030300080303000818
:1000B000BD1B000803030008030300080303000836
:1000C00003030008030300080303000803030008F8
:1000D00003030008030300080303000800000000F6
:1000E000F9160008030300080303000800000000DD
:1000F00000000000000000000000000003030008F2
:1001000000000000030300080303000803030008C5
:1001100000000000000000000000000000000000DF
:100120000303000803030008030300080303000897
:1001300003030008000000000000000000000000B1
:1001400000000000000000000000000003030008A1
:100150000303000803030008030300080303000867
:100160000303000803030008000000000000000073
:10017000000000000000000000000000000000007F
:100180000000000003030008000000000000000061
:100190000303000800F002F800F096F80AA090E8C7
:1001A000000C82448344AAF10107DA4501D100F032
:1001B0008BF8AFF2090EBAE80F0013F0010F18BF69
:1001C000FB1A43F001031847BC270000DC2700009E
:1001D000103A24BF78C878C1FAD8520724BF30C873
:1001E00030C144BF04680C60704700000023002445
:1001F00000250026103A28BF78C1FBD8520728BF37
:1002000030C148BF0B6070476E2900F0EF81702944
:1002100000F03183662902F02E83652902F02B83DA
:10022000672902F02883612902F0278303681B0AEB
:1002300028BF41F08001692900F09C81642900F009
:100240009981752900F096816F2900F0BF82782985
:1002500000F0FD82E92900F05982E42900F056827D
:10026000F52900F05382EF2900F0BC82F82900F054
:10027000FC820368DB0928BF41F08001632901F09B
:100280001B80732901F02080E32901F02B80F329E2
:1002900001F03080002070471FB502F0DAFA9DE8C7
:1002A000030000F0A7F801F083F80400002000210B
:1002B00002F03AFA401C60600020002102F01EFAB1
:1002C000E0601FBD10B510BD01F044F81146FFF706
:1002D000E3FF01F06FFD01F021F903B4FFF7F2FF36
:1002E00003BC01F051F90000094880470948004764
:1002F000FEE7FEE7FEE7FEE7FEE7FEE7FEE7FEE7D6
:10030000FEE7FEE704480549054A064B7047000032
:10031000A91B00089501000880000020800600202D
:10032000800200208002002070B5064600F046F8EA
:10033000056806F10B0020F00704B4429CBF0020C2
:1003400070BD2B466A68BAB11068A04210D304F1A0
:10035000080188423CBF5068586007D351681019A3
:1003600041601168091B016058601460101D70BD68
:1003700013465268002AE7D12146284600F026F8A5
:100380000028DED170BD00000FB41CB5084B06AAD2
:100390007B4469460090059800F041F9044600202E
:1003A000694600F04FF920461CBC5DF814FB0000C4
:1003B000B102000070477047704700000048704766
:1003C00028000020704770477047704738B50446D2
:1003D0000A4600206946AFF30080002808BF38BDF8
:1003E00002460099204600F019FB012038BD01208B
:1003F00000F0A8BFF8B5AFF30080054600200C461A
:10040000102000BF0646A819A0420DD93246694601
:100410000020AFF30080070008BF00F093FF0098B2
:10042000A04218BF0546C419FFF7C8FF056007467C
:10043000F01D20F007004619284600F00AF8B442E3
:1004400008BFF8BDA21B31463868BDE8F84000F08F
:10045000E5BA00210160C0E9011070471020704723
:1004600070B50446051FFFF7A9FF0068002C14BFF4
:10047000446870BD002C18BFAC423CBF2046646885
:10048000F8D301680A18AA4218BF456003D12A6848
:1004900005461144016028684119A1421CBF6C60E7
:1004A00070BD6168696021680844286070BD70B5DE
:1004B000044685690068C10601D5302600E0202683
:1004C000C00707D070BDD4E9012130469047206AAB
:1004D000401C20626D1EF6D570BD70B5044685695E
:1004E0000078C00707D170BDD4E9012120209047D2
:1004F000206A401C20626D1EF6D570BD09684A0551
:1005000001D540B27047C905FCD500B270470968F3
:100510004A0501D5C0B27047C905FCD580B2704705
:1005200070B50C460546012A05D02878800600D50E
:10053000EA69002302E0012305E05B1C934202D23A
:10054000E05C0028F9D1A869E618C01AA861286AF9
:10055000184428622846FFF7AAFF04E0D5E90121E4
:1005600014F8010B9047B442F8D32846FFF7B5FFC3
:1005700070BD00002DE9F041064600241068752981
:10058000314616A510D0FFF7B9FF002802DA404225
:1005900013A507E031688A0701D512A502E04907D3
:1005A00004D511A5012401E0FFF7B1FF00210A22C3
:1005B00006F1240709E0B0FBF2FCB0FBF2F302FB0A
:1005C0001C00303078541846491C0028F3D12346CB
:1005D0002A463046BDE8F04100F07FBA0000000036
:1005E0002D0000002B0000002000000011680268B0
:1005F000006A530501D508700AE0D30501D50880CB
:1006000006E0130603D5C217C1E9000200E0086046
:100610000120704701694A1C02610878704700B5E3
:100620008FB0CDE901310021059105497944CDE92B
:1006300003101146684600F029F90FB000BD000014
:10064000E5FFFFFF0A6802F8010B0A60704700002F
:100650002DE9FF5F15468A460446DFF8AC80F84472
:100660000027D8E900103E46CDE9001010E03AF826
:1006700016106A4602A800F041FE411C07D02178FE
:10068000890603D5E269391891420DD80744761CD2
:100690002078800602D5E069B84205DDAE42E6DB8F
:1006A0003AF816000028E2D1A069C01BA0612046DC
:1006B000FFF7FDFED8E90010CDE90010002017E09B
:1006C0003AF818106A4602A800F018FEB0F1FF3F91
:1006D00081460BD000250DF1080B05E0D4E901217E
:1006E0001BF8050090476D1C4D45F7D308F101003C
:1006F000B0428046E4DB206A384420622046FFF79F
:10070000ECFEBDE8FF9F00001E2200002DE9F04135
:100710008046D21D22F007020025D2E90002F52909
:1007200015A614D0011E72F1000106DA0023D0EBE9
:10073000030063EB020211A608E0D8F800108B0753
:1007400001D50FA602E0490701D50EA601251146E5
:10075000002408F1240704E000F07AF930323A5519
:10076000641C50EA0102F7D12B463246214640462E
:10077000BDE8F04100F0B1B9000000002D0000001C
:100780002B0000002000000030B4002100F1240400
:1007900008E002F00705D208303542EA4372DB0870
:1007A0006554491C52EA0305F3D10468002310A2E2
:1007B000250708D504F020040C4304D0C4690123A4
:1007C0000CA2641EC46130BC00F087B910B50446A9
:1007D00021461068FFF79BFE02462046BDE8104008
:1007E0000023D1E7D21D22F00701D1E90023CBE796
:1007F0000000000030000000F0B40D46018809053B
:1008000002D5214C7C4402E01F4C7C440E34002174
:1008100000F1240608E002F00F071209E75D42EA42
:1008200003721B097754491C52EA0307F3D102787B
:100830000023120704D5702D06D009B1022311340C
:100840002246F0BC00F049B901231034F8E770B536
:1008500004460D4621461068FFF759FE0246294618
:100860002046BDE870400023C6E7D21D22F00703F2
:10087000D3E90023C0E70368126843F02003036054
:100880000823C3610023B7E7802000002DE9F05F53
:10089000894604464FF0000ADFF874B1FB44C0F803
:1008A00020A02046E1688847002874D0252806D07B
:1008B000D4E901219047206A401C2062F1E700261C
:1008C0005F462046E16888472028054607DB312D32
:1008D00005D2781910F8200C08B10643F1E7B007EB
:1008E00001D526F00406C4F81CA00027C4F818A0FF
:1008F0002A2D09D0284601F0F9FE38B304EB870809
:10090000303DC8F8185019E059F8041B204604EB94
:1009100087029161E1688847012F054618D1E06997
:10092000002820DA26F020061DE0D8F8180000EB99
:10093000800005EB40003038C8F818002046E16818
:100940008847054601F0D2FE0028EED1012F0AD0DB
:100950002E2D08D12046E16888477F1C0546022FCE
:1009600046F02006C4DBA069002803DA404246F0C6
:100970000106A061F00701D026F010066C2D0BD007
:10098000682D09D04C2D39D06A2D35D0742D35D035
:100990007A2D33D016E038E0E1682F4620468847AC
:1009A000B842054609D16C2F26D04FF48060E1682B
:1009B000064320468847054604E06C2F1AD04FF4C2
:1009C000807006430DB3A5F14100192802D82035E7
:1009D00046F400664A462946204626604E46FFF702
:1009E00013FC80B101280BD0F61D26F0070000F1A2
:1009F000080956E74020E4E78020D8E70020D6E742
:100A000006F104094DE7284652E7206ABDE8F09F49
:100A10001020000000487047200000200346406876
:100A20008C46002818BF88423CBF03464068F8D374
:100A300018681844884207D00CF1030020F0070022
:100A4000001D411A521A0146081D0A60FFF708BD31
:100A500030B5B0F10A0271F100034FEA900E4EEA90
:100A6000817EB0EB0E0061EB91014FEA101E4EEA61
:100A7000017E10EB0E0041EB11114FEA102E4EEAF1
:100A8000016E10EB0E0041EB11214FEA104E4EEAC1
:100A9000014E10EB0E0041EB1141401841F10001F5
:100AA0004FEAD00040EA41704FEAD1014FEA810499
:100AB00044EA907410EB800544EB01046D1944EB9B
:100AC0000404521BA3414FF0000348BF0A3200D573
:100AD00030BD401C41F1000130BD2DE9F0470D460D
:100AE00099469246044600F124080168880604D518
:100AF000E06921F01001216000E00120A84201DD41
:100B0000471B00E00027A1697A1902EB0900081AC7
:100B1000A0612078C00602D42046FFF7C8FC00265A
:100B200008E0D4E901211AF806009047206A401C29
:100B3000761C20624E45F4DB2078C0060AD520469C
:100B4000FFF7B5FC06E0D4E9012130209047206A88
:100B5000401C2062381EA7F10107F4DC07E0D4E94D
:100B6000012118F805009047206A401C2062281EC9
:100B7000A5F10105F3DC2046FFF7AFFC2078000665
:100B800002D50220BDE8F0870120FBE72DE9FF4FE9
:100B90000C461E464FF0FF378BB0D2E90001DDF85E
:100BA00060800A908A46C1F30A5505B93D46002186
:100BB00008464FF00000BAF1000F00F4400005DADB
:100BC00000EB80004FF4400101EA50004FEA9059D9
:100BD000B9F1010F00DDB9460A9850EA4A000ED07B
:100BE00044F61050A5F2FF3545432F14B8F1000F1D
:100BF0001ED07542291E1EDDC9F100021CE0B8F1AD
:100C0000010F4FF0000001D0302103E0F24305E076
:100C10002154401CB042FBDB30460022002121540D
:100C20000B99C1F80880C1E900200FB0BDE8F08F32
:100C3000BD1B6D1CDEE74A4600DA694206A800F0DB
:100C4000FBFB06AB93E8070003AB83E807005046C5
:100C50000A9901F06BF98DE80700A0F500501F38E4
:100C600000900398002D0ADD42F21F014A46084415
:100C7000002303A90390684601F0D4FB09E0A0F526
:100C800000504A461F38002303A90390684601F02C
:100C9000DEFB8DE807000004000C03D04FF0FF30AE
:100CA000410800E01046B8F1000F03D00022009286
:100CB00015461EE0751E05D4FFF7CAFE3032625598
:100CC0006D1EF9D5B3460122084302D000227F1CD5
:100CD00004E02078302801D100227F1E002A0997E5
:100CE00084D01DE0112D07DAFFF7B2FE30326255D5
:100CF0006D1C50EA0102F5D1084302D00098C8B13A
:100D00000EE00021681E05E0235C625C63542254FF
:100D1000401E491C8142F7DBAB46A81B401E0990D0
:100D2000002004F80B000B98099AC0F80880C0E96D
:100D3000002B7AE711264FF0000857E72DE9F04F16
:100D400088460446D21D22F0070191B0D1E9000186
:100D5000CDE90A0101F0B2FC02460B98C00F01D0A8
:100D60002D2007E02068810701D52B2002E02021FB
:100D700001EAC000032A099001D0072A05DB0346D7
:100D80004146204600F018FB0BE12078800601D593
:100D9000E06900E00620B8F1650F814606D0B8F1A1
:100DA000660F18D0B8F1670F70D131E00020B9F1AB
:100DB000110F009001DB112301E009F101030AAAE0
:100DC00001A90CA8FFF7E2FEDDE90C70002609F18D
:100DD0000105834647E001204B4600904FF0004755
:100DE0000AAA01A90CA8FFF7D1FEDDE90DB00C9904
:100DF0005D46002610B909F101000D18B9EB050098
:100E000003D4C0F1FF3609F10105A5EB09002BE081
:100E1000B9F1010F01DA4FF001090020B9F1110F0A
:100E20000090484601DD112300E003460AAA01A90B
:100E30000CA8FFF7ABFEDDE90C704D46002683469B
:100E4000207800070AD4AB4500DA5D4601A8012DE1
:100E500004DD411911F8011C302907D04F4502DA91
:100E600017F1040F04DA012082460FE06D1EEEE751
:100E7000002F02DCED1B3E4403E0781CA84200DD9D
:100E80007D1CB81B00F1010A4FF0004720780007D5
:100E900003D4AA4501DB4FF0FF3A0021B7F1004F20
:100EA0000DF143088DF8431024D002202B23002F8E
:100EB00001DA7F422D230A21021EA0F1010000DC8D
:100EC0005FB197FBF1FC97FBF1F201FB1C7C17462D
:100ED0000CF1300C08F801CDEEE7A8F10100037029
:100EE0002188090501D5452100E06521A0F101080F
:100EF00000F8011C09980FA9A1EB0807FF1D00B11C
:100F00000120411901EBEA70A1693844081A401E1A
:100F1000A0612078C00602D42046FFF7C8FA0998DD
:100F200028B1D4E901219047206A401C2062207832
:100F3000C00622D52046FFF7BAFA1EE0002E04DBD9
:100F4000B34502DD01A8805D00E03020D4E9012135
:100F50009047206A401C2062761CAAF101005FEADB
:100F6000000A0AD100F024FAC0680168405CD4E9A4
:100F700001219047206A401C2062281EA5F101052E
:100F8000DCDC07E0D4E9012118F8010B9047206A66
:100F9000401C2062381EA7F10107F3DC2046FFF752
:100FA0009CFA032011B041E62DE9F04F04460D46AE
:100FB000D21D22F0070089B0D0E900974846394693
:100FC00001F07CFB0246F80F01D02D2307E02068DA
:100FD000810701D52B2302E0202101EAC0038DF80F
:100FE00020300BB1012000E00020032A824601D00E
:100FF000072A04DB2946204600F0DEF93FE120788D
:10100000800601D40D2500E0E569C7F30A560D2DD1
:1010100049DA00214FEA175B08464FF00000002F25
:1010200000F4400007DA00EB80004FF4400100EBD1
:10103000D07001EA60008115012901DD4FF0FF3118
:1010400000224FEA850CBCF1180F06D31346ACF111
:1010500018004FF08052C24003E04FF4801323FA8F
:101060000CF30CF10C0CBCF1200F04D3ACF1200CF0
:1010700009FA0CF001E007FA0CF000294FF00048E3
:1010800001DD18B90FE00ED140450CD319EB020970
:101090005F4121B9404502D19F4329EA0209BBEBD8
:1010A000175F00D0761C2088000502D57B48784465
:1010B00002E07A487844193808AA302302F80A3046
:1010C000037C0AF10101002E0AF1020A53546A4618
:1010D00002DC4FF0300101E04FF031014FF0010828
:1010E0008DF8001002D0A6F2FF3603E059EA47015E
:1010F00000D06B4E002D02DC2178090704D54FF09B
:1011000002082E218DF80110C44600210BE0C7F320
:1011100003433F01C35C491C6D1E02F808300529DA
:1011200008F1010801DA002DF1DC00210CE000EBF0
:101130001973491C1B786D1E082902F808304FEA04
:10114000091908F1010801DA002DF0DC21688B068D
:1011500002D516E0A8F10108E04505DD02EB080321
:1011600013F8013C302BF5D0B8F1000F09DD02EB8C
:10117000080313F8013C2E2B03D1090701D4A8F171
:101180000108002D05DD3E2102F808106D1E08F152
:101190000108407C002E02F8080008F1010804DA7A
:1011A0002D20764202F8080002E02B2002F8080009
:1011B0000A214FF47A70864208F101080BDB96FB96
:1011C000F0F3303302F8083096FBF0F308F1010831
:1011D00000FB136601E0642E0CDB642096FBF0F349
:1011E000303302F8083096FBF0F308F1010800FBF9
:1011F000136601E00A2E06DB96FBF1F0303002F8B0
:10120000080008F1010896FBF1F001FB1060303096
:1012100002F80800A16908F1010808EB050202EBD9
:101220000A00081AA0612078C00602D42046FFF701
:101230003EF9216A08AE01EB0A00206204E0D4E91D
:10124000012116F8010B9047BAF1010AF7D2207874
:10125000C00602D52046FFF72AF96E4609E016F8C7
:10126000010B3E280FD0D4E901219047206A401C91
:101270002062B8F10108F2D22046FFF72EF909B03A
:101280000320BDE8F08F206A2844206203E0D4E9FF
:101290000121302090476D1EEBD3F8E722180000A3
:1012A00002FCFFFF10B5436913B1AFF3008001E00A
:1012B000FFF736F9012010BD127800F124010A7001
:1012C00000224A700122EDE711684FF0FF32E9E792
:1012D00010B5436913B1AFF3008001E0FFF7B8F92F
:1012E000012010BD128800F1240182840022C284F2
:1012F0000122EDE711684FF0FF32E9E72DE9F041F7
:1013000016460C46054600F04BF8036893F80101B9
:10131000012807D0FF2C12D8185D80B101202C7055
:10132000BDE8F081D3F807013246214603F20713E6
:10133000C7182846BC46BDE8F041002360474FF07F
:10134000FF30EDE710B500F0F7F8BDE8104000F011
:10135000EEB870477546FFF75DFBAE46050069467F
:10136000534620F00700854618B020B5FEF7CAFFA7
:10137000BDE820404FF000064FF000074FF0000896
:101380004FF0000BAC46ACE8C009ACE8C009ACE8D3
:10139000C009ACE8C00921F007018D467047000084
:1013A00010B500F005F8001D10BD00BF7D13000052
:1013B00000487047400000202DE9F0411F460446D8
:1013C00003260168072A01F4006004DB08B116A5B2
:1013D00005E016A503E008B115A500E015A521F06C
:1013E00010002060A069C01EA0610FB1401EA06166
:1013F0002046FFF75CF84FB1D4E901213846904709
:10140000206A401C2062C01C206206E0206AFAE7C5
:10141000D4E9012115F8010B9047761EF8D2204639
:10142000FFF75BF8BDE8F0814E414E006E616E0043
:10143000494E4600696E66002DE9F0478146164622
:101440008AB0354878440DC88DE80D00324878449C
:10145000801C03AC0DC884E80D0041F69B300844A5
:10146000372190FBF1F290FBF1F5A5F1800501FB2E
:1014700012041B3C02D56442012000E00020DFF88A
:1014800098A080460027FA44AAF1BE0A0EE0E007C1
:101490000AD03246684607EB470101230AEB810177
:1014A00000F0D5FF8DE8070064107F1C002CEED102
:1014B000194F7F44AE3F19E0E80715D007EB041041
:1014C0000DF1180A90E80E008AE80E00C068F0429C
:1014D00001D1981908903246012306A903A800F00B
:1014E000B6FF03AB83E807006D10641C002DE3D149
:1014F0004FF0010332466946B8F1000F03A802D04D
:1015000000F090FF01E000F0A2FFC9E90001C9F876
:1015100008200AB0BDE8F0871C15000010B504468D
:10152000AFF300802046BDE81040FEF7D6BE00288D
:1015300001D000F029B8704710B5012805D000216E
:1015400003A000F027F8012010BD09A1F8E7000072
:1015500053494752544D454D3A204F7574206F669C
:101560002068656170206D656D6F72790000000004
:101570003A2048656170206D656D6F727920636FE8
:10158000727275707465640001491820ABBEFEE785
:101590002600020070B505460C460A2000E06D1CCE
:1015A00000F050F835B128780028F8D102E0641C2A
:1015B00000F048F814B120780028F8D1BDE8704058
:1015C0000A2000F03FB8000030B44FF0013C50F862
:1015D000042B51F8043BCCFA52F4D51A20D1FCB9B3
:1015E00050F8042B51F8043BCCFA52F4D51A17D119
:1015F000B4B950F8042B51F8043BCCFA52F4D51A84
:101600000ED16CB950F8042B51F8043BCCFA52F4CB
:10161000D51A05D1002CDAD030BC4FF0000070474D
:1016200029BAB1FA81F111F01801D1F120008440FA
:10163000F2D1CA40CB4012F0FF0213F0FF0330BCDE
:10164000D01A704708B569468DF800000320ABBE7C
:1016500008BD000083B0029001918DF8032002982C
:10166000019AD11702EB917121F00301521A9200F5
:1016700000FA02F343F60802C4F201028858184344
:1016800088500199012000FA01F243F60041C4F2AA
:1016900001010868104308609DF80300012805D087
:1016A000FFE79DF8030003280CD1FFE70199012013
:1016B00000FA01F243F60C41C4F20101086810433C
:1016C0000860FFE79DF80300022805D0FFE79DF8BA
:1016D000030003280CD1FFE70199012000FA01F271
:1016E00043F60841C4F20101086810430860FFE7AF
:1016F00003B070470000000080B582B043F640019F
:10170000C4F202010868086043F61441C4F2010102
:10171000086840F400500860282000F093FA022086
:101720000D2100F0C9F801281BD1FFE740F2180095
:10173000C2F20000019090ED000A11A000F1080132
:10174000B7EE001AB4EE410AF1EE10FA08BF0846EF
:1017500090ED000B51EC100B00F0FCFF01990860BC
:10176000FFE71021C4F200010020086043F64001A9
:10177000C4F20201086840F00100086002B080BDB8
:10178000000000000000F03F000000000000E03F0B
:1017900043F64401C4F20201086840F48040086046
:1017A0007047000081B00090009940F20C00C2F236
:1017B000000050F8212043F63001C4F2020108680D
:1017C0001043086001B0704784B003908DF80B108F
:1017D0008DF80A208DF809309DF80A000146019124
:1017E00020B1FFE70198012811D021E09DF80B00FE
:1017F0004100032000FA01F2039940F20000C2F216
:10180000000050F8211008689043086010E09DF82F
:101810000B004100012000FA01F2039940F20000A0
:10182000C2F2000050F82110086810430860FFE77A
:101830009DF809000146009150B3FFE70098022887
:1018400004D0FFE70098042811D032E09DF80B0087
:101850004100012000FA01F2039940F20000C2F2B7
:10186000000050F82110C8681043C86021E09DF8BE
:101870000B004100022000FA01F2039940F200003F
:10188000C2F2000050F82110C8681043C86010E090
:101890009DF80B004100032000FA01F2039940F289
:1018A0000000C2F2000050F82110C8689043C860E0
:1018B000FFE704B07047000083B002908DF8071076
:1018C00000200090029940F20000C2F2000050F89F
:1018D000210000699DF8071001228A401040C8408D
:1018E0000090009803B0704780B5012000F002F826
:1018F00080BD000080B582B08DF8070000F0CEF802
:1019000040F21841C4F2020100914FF4C000086097
:101910009DF8070040F61402C4F202021060802015
:101920000860002000F010FA00994FF400000860F1
:1019300002B080BD80B582B08DF8070040F218413A
:10194000C4F2020100914FF4C00008609DF8070046
:1019500040F61402C4F202021060802008600020E9
:1019600000F0F2F900994FF40000086002B080BD69
:1019700080B582B08DF8070000F090F840F2184171
:10198000C4F202010091202008604FF4800008603A
:101990009DF8070040F61402C4F202021060802095
:1019A0000860002000F0D0F900994FF400000860B2
:1019B00002B080BD80B582B000F0CCF81E2000F0EF
:1019C000C3F930200090FFF7B5FF0A2000F0BCF902
:1019D0000098FFF7AFFF0120019000F0B5F90098E3
:1019E000FFF7A8FF3820FFF785FF0620FFF782FFEB
:1019F0000198FFF77FFF0F20FFF77CFF02B080BD4B
:101A000080B582B0019001200090FFE70098019915
:101A1000884211DCFFE70198009900F063FA00F0BA
:101A20000DF842F67C10C0F6000000F01FF8FFE74A
:101A3000009801300090E9E702B080BD80B584B025
:101A40000390039800F09CF902900298FEF76CFC5A
:101A500001900198039A42F67E11C0F60001FEF74C
:101A600093FC019800F002F804B080BD80B582B00C
:101A7000019000200090FFE701980099405C08B9B0
:101A8000FFE709E001980099405CFFF771FFFFE76D
:101A9000009801300090EFE702B080BD80B584B0BF
:101AA00040F60001C4F2020108684FF6FF7290434D
:101AB000086040F21841C4F202014FF400100860BF
:101AC00040200860FFE740F21841C4F20201019192
:101AD000802008600020029000F036F9019A0298F8
:101AE00040F61001C4F2020109688DF80F104FF49E
:101AF0000001116000F028F9FFE79DF80F000006D3
:101B00000028E0D4FFE740F21841C4F202014FF48C
:101B10008000086040F60001C4F20201086845F246
:101B200055521043086004B080BD000080B582B0FB
:101B3000019000919DF90400009900F0E3F89DF9EF
:101B4000040000F097F89DF9040000F0C3F802B01B
:101B500080BD000043F63001C4F20201086840F085
:101B60000600086040F20041C4F20201086820F457
:101B70007C400860086840F4A840086040F21841C2
:101B8000C4F202014FF44000086040F60001C4F2C4
:101B9000020108684FF6FF7290430860086845F23A
:101BA00055521043086070474EF68851CEF200013E
:101BB000086840F4700008607047000080B582B08B
:101BC0001021C4F2000100200860FFF78DFE40F2F2
:101BD0001C00C2F2000001900068FFF711FF01989D
:101BE000006801304EF28E32C0F6386248F6396134
:101BF000C3F6E30100FB01204CF21C71C1F67141F8
:101C0000884203D8FFE70920009013E040F21C004F
:101C1000C2F200000068013048F63961C3F6E30102
:101C200050FB01F2511001EBD27101EBC101401ADE
:101C30000090FFE7009840F21C01C2F2000108602A
:101C400002B080BD81B08DF803009DF9030000282B
:101C50000ED4FFE79DF9031001F01F020120904010
:101C60004A094EF28021CEF2000141F82200FFE73E
:101C700001B0704781B08DF803009DF90300002882
:101C80000ED4FFE79DF9031001F01F0201209040E0
:101C90004A094EF28021CEF2000141F82200FFE70E
:101CA00001B0704781B08DF803009DF90300002852
:101CB0000ED4FFE79DF9031001F01F0201209040B0
:101CC0004A094EF20011CEF2000141F82200FFE76E
:101CD00001B0704781B08DF803009DF90300002822
:101CE0000ED4FFE79DF9031001F01F020120904080
:101CF0004A094EF20011CEF2000141F82200FFE73E
:101D000001B0704782B08DF8070000919DF907007F
:101D100000280AD4FFE7009800019DF907104EF251
:101D20000042CEF2000288540BE0009800019DF8BA
:101D3000071001F00F014EF61452CEF20002885443
:101D4000FFE702B07047000082B00190FFE7019802
:101D5000012813DBFFE700200090FFE7009840F622
:101D60007A41884205DCFFE7FFE7009801300090E8
:101D7000F4E7FFE7019801380190E8E702B0704707
:101D800082B0019000200090FFE7019878B1FFE752
:101D9000009801300090019846F26761C6F26661D2
:101DA00050FB01F1881000EBD1700190EDE7009835
:101DB00002B0704780B586B000200590FFF7FAFDAD
:101DC0000120FFF7EFFC0220FFF7ECFC05208DF867
:101DD0001300FFE79DF8130006280EDCFFE79DF8CF
:101DE0001310012200231046FFF7EEFCFFE79DF8D9
:101DF000130001308DF81300ECE700208DF813007C
:101E0000FFE79DF8130007280EDCFFE79DF813108D
:101E1000022001220023FFF7D7FCFFE79DF8130003
:101E200001308DF81300ECE70D210291002203929E
:101E3000022301931846FFF7C7FCFFF7A9FC01989E
:101E400002990322FFF706FC039962B62820FFF7E8
:101E50006DFEFFE762B643F63001C4F20201086886
:101E600040F0010008600021C4F20201086820F47B
:101E700040600860086840F48060086043F64001F4
:101E8000C4F20201086840F0010008602821C4F291
:101E9000000143F67F60086040F21800C2F20000C3
:101EA00090ED001A9FED0E0A80EE010ABFEE001AB7
:101EB00030EE010ABCEEC00A2C20C4F2000080ED16
:101EC000000A4FF08041012008600C21C4F200019B
:101ED000086840F0010008601C20FFF7E3FEB9E746
:101EE00000007A4480B584B00290019101980128E5
:101EF00005D0FFE702980199884203D1FFE701204E
:101F0000039010E0029801380199FFF7EBFF009071
:101F10000298013801990139FFF7E4FF0146009862
:101F200008440390FFE7039804B080BD5FEA400CCB
:101F300008BF91F0000F4FEA8C234FEAC12243EA19
:101F400051514FEA1C5018BF00F5F0404FEA3000E5
:101F500018BF41F000415FEA6C5C00F02980BCF1E1
:101F6000FF3F08BF40F080407047130C06BF1204CB
:101F70004FF0100C4FF0000C130E04BF12020CF1C6
:101F8000080C130F04BF12010CF1040C930F04BFD3
:101F900092000CF1020CD30F04BF52000CF1010CA3
:101FA00011464FF00002A0F11F00A0EB0C0070479B
:101FB00011F0004F08BF704731F000413FF4D5AF3A
:101FC0000B0C06BF09044FF0100C4FF0000C0B0E69
:101FD00004BF09020CF1080C0B0F04BF09010CF13E
:101FE000040C8B0F04BF89000CF1020CCB0F04BF53
:101FF00049000CF1010CCCF1200322FA03F341EA71
:10200000030102FA0CF2A0EB0C0000F10100704792
:1020100023F07F4720F07F4C80EA030000F000406F
:10202000ACEB070303F57C5303F1FF032DE9804973
:1020300009B44FEA144324EA03484FEA154B25EA52
:102040000B4E0FF2042606EB13273E7803FB0667C0
:10205000C7F5000707FB06F64FEAD64606F102066B
:102060004FEA543707FB066CCCF1005C4FEA1C4783
:102070002CEA074C0CFB06F507FB06F404EB1546AF
:102080004FEA961649085FEA320234BF00204FF04B
:1020900000404FEAD13706FB07FC4FEA1C4C0CFB13
:1020A0000BF7D21B03FB0CF761EB07010CFB0EF7E0
:1020B000B0EB074072EB17420CFB08F734BFA2EB02
:1020C0000742B2EB074261EB17414FEA0C444FEA7B
:1020D000910706FB07FC4FEA1C4C0CFB0BF7B0EB1F
:1020E000C74072EB573203FB0CF734BFA2EBC74279
:1020F000B2EBC74261EB57310CFB0EF7B0EBC700F8
:1021000072EB57720CFB08F734BFA2EBC702B2EBBD
:10211000C70261EB57714FEA816141EA92114FEAC0
:10212000826242EA90124FEA806004EBCC04039F83
:102130004FEAD13706FB07FC4FEA1C4C0CFB0BF7B0
:10214000D21B03FB0CF761EB07010CFB0EF7B0EBA6
:10215000074072EB17420CFB08F734BFA2EB0742B3
:10216000B2EB074261EB17414FEA8C5504EB9C241C
:102170004FEA910706FB07FC4FEA1C4C0CFB0BF7E0
:10218000B0EBC74072EB573203FB0CF734BFA2EB46
:10219000C742B2EBC74261EB57310CFB0EF7B0EB15
:1021A000C70072EB57720CFB08F734BFA2EBC702F3
:1021B000B2EBC70261EB57714FEA816141EA9211BC
:1021C0004FEA826242EA90124FEA806015EB4C259A
:1021D00044F100044FEAD13706FB07FC4FEA1C4CE0
:1021E0000CFB0BF7D21B03FB0CF761EB07010CFB9D
:1021F0000EF7B0EB074072EB17420CFB08F734BF49
:10220000A2EB0742B2EB074261EB17414FEA813183
:1022100041EA92414FEA823242EA90424FEA8030EC
:102220004FEA0C7615EB1C1544F1000448EA034311
:102230004EEA0B484FF0000EB2EB080C71EB0307AF
:1022400024BF624639464EEB0E0E4FF0000B0018CD
:10225000524149414BEB0B0BB2EB080C71EB0307FE
:102260007BF1000B24BF624639464EEB0E0E4FF059
:10227000000B0018524149414BEB0B0BB2EB080C21
:1022800071EB03077BF1000B24BF624639464EEB2E
:102290000E0E51EA020718BF46F0010616EB0E7645
:1022A00055F1000254F1000103D5BDE88901BDE8F4
:1022B0000088BDE88901BDE80048B619524141EBEC
:1022C0000101A3F10103704780807F7E7D7C7B7AD2
:1022D0007978777676757473727171706F6E6E6DD2
:1022E0006C6C6B6A6A696868676666656464636378
:1022F00062616160605F5F5E5E5D5D5C5C5B5B5AFE
:102300005A5959585857575656555555545453536A
:1023100052525251515050504F4F4F4E4E4D4D4DC5
:102320004C4C4C4B4B4B4A4A4A4949494848484710
:10233000474747464646454545444444444343434E
:1023400043424242424141419C46002B30D47700F7
:102350002BD04FEA37071CB503B44FF010004FF0F5
:102360001001BAF1000F06D0BCF1000FDCBF40F045
:10237000080040F008014FF000000FBCBDE810401D
:102380000BF1010BBBF1010F08BF5FEA170722BF7A
:1023900012F1010211F101014FF0004143F100037C
:1023A00000F0004043EA00007047F9D35708D0E737
:1023B00046EA06464FEA164613F1400F1FDD13F1B9
:1023C000200FDFBF16430A46002120335B42BED0F8
:1023D000C3F1200746EA06464FEA164602FA07F717
:1023E00046EA070622FA03F2C3F1200701FA07F7CB
:1023F00042EA070221FA03F14FF00003A7E746EA99
:10240000020646EA06464FEA164646EA0106BCBF01
:1024100046EA0646360C4FF000034FF000024FF03C
:10242000000194E72DE9804C70B49A46934691E8F8
:10243000380007C831EA400C48BF34EA430C03D5E2
:10244000FFF7E6FDFFF780FFF0BCBDE8008C2DE94B
:10245000804C70B49A46934691E8380007C810F053
:10246000804F08BF13F0804F03D100F005F8FFF74D
:102470006BFFF0BCBDE8008C20F07F4723F07F4C61
:1024800080EA030000F0004007EB0C03A3F57C5347
:10249000A3F1FE0392F0000F00F0B38095F0000F5F
:1024A00000F077802DE901494FEA114021EA004808
:1024B0004FEA144624EA064700FB06FC08FB06F632
:1024C00007FB08F818EB06484CEB164C00FB07F727
:1024D00018EB07484CEB17404FEA124B22EA0B4E21
:1024E0004FEA154625EA06470BFB06FC0EFB06F6EF
:1024F00007FB0EFE1EEB064E4CEB164C0BFB07F7D4
:102500001EEB074E4CEB174B18EB0B0840F100008D
:1025100018EB0E0B58EB000840F100008F1A4FF03B
:1025200000014FF000063CBFC943661B14BFB5EB6A
:10253000040C00213CBFC943F61B4FEA174427EAAD
:1025400004454FEA1C472CEA074C04FB076205FBD5
:1025500007F70CFB05F616EB074642EB174204FBA8
:102560000CFC16EB0C4642EB1C421BEB060658EB30
:10257000020241414EEA8E0E46EA9E0601D5BDE8B2
:102580000189B619524141EB0101A3F10103BDE8F4
:1025900001894FEA144524EA05464FEA114721EA2A
:1025A000074C05FB07F406FB07F70CFB06F111EBE4
:1025B000074144EB174405FB0CFC11EB0C4144EBC9
:1025C0001C444FEA124722EA074C05FB07F206FBC0
:1025D00007F70CFB06F616EB074642EB174205FB26
:1025E0000CFC16EB0C4642EB1C456A1854F100013A
:1025F00048BF7047B619524141EB0101A3F10103F5
:10260000704795F0000F37D04FEA114221EA024699
:102610004FEA144724EA074C02FB07F106FB07F7D1
:102620000CFB06F414EB074441EB174102FB0CFCD6
:1026300014EB0C4441EB1C414FEA154725EA074CCB
:1026400002FB07F506FB07F70CFB06F616EB074641
:1026500045EB174502FB0CFC16EB0C4645EB1C4208
:10266000121951F1000148BF7047B619524141EBB0
:102670000101A3F1010370474FEA144524EA05461E
:102680004FEA114721EA074C05FB07F106FB07F764
:102690000CFB06F212EB074241EB174105FB0CFC69
:1026A00012EB0C4251EB1C414FF0000648BF704743
:1026B000921841EB0101A3F10103704703B40198A3
:1026C0004100009850EAC12018BF04204A0D18BFED
:1026D00040F0010040F2FF72B2EB515F08BF40F0E2
:1026E0000200012808BF052002B0704730380A28D0
:1026F00001D20120704700207047000010B500296A
:102700000AD00878002807D005487844FEF75CFF17
:10271000002801D0002010BD0248784410BD000000
:102720009A0200009202000010B500290AD0087831
:10273000002807D005487844FEF746FF002801D05E
:10274000002010BD0248784410BD00008A0200003D
:102750008202000021F0004201F00043A2F1605229
:10276000B2F5801F28BFD2F17F6C0BD95FEA001C45
:1027700043EAC20242EB507018BF704728BF20F0F6
:1027800001007047B2F5801FBCBF184670474FEA82
:10279000410C1CF5001F02D2084600F067B870B566
:1027A00000F009F800000089FFF7F6BF4FF0004085
:1027B000A0F5800070470EF1020E2EF0030E5EF8B9
:1027C000046B364205D4012A43EB030515F5001FBF
:1027D00012D8012841EB010C1CF5001F0CD80ED1BA
:1027E0004FEAD17C0CEB4C0C0CF1020C15F5001FE0
:1027F00008BF4CEBD37C04E04FF0080C01E04FEA3B
:10280000D37C0CEB4C0526FA05F606F00706B6F16C
:10281000040C06D20EEB860CBDE870404CF0010CA7
:102820006047DFE80CF0090B02024FF00041A1F510
:1028300000214FF0000070BD19461046012851EBF1
:10284000010418BFD4F5001484BF002001F000413A
:1028500070BDF1EE100A4FF6FF71C0F2C03120EAF0
:10286000010040F04070E1EE100A7047FF2141EA9C
:10287000D050C0057047FEF761BAFEF795BB000067
:1028800000000000000000003031323334353637AC
:1028900038394142434445464030580030313233A4
:1028A00034353637383961626364656640307800A4
:1028B0000400000800000000000000020001000009
:1028C00010303132333435363738396162636465FC
:1028D000667870003031323334353637383941421A
:1028E000434445465850000002400000000000A04C
:1028F0000000000005400000000000C800000000CB
:102900000C4000000000409C000000001940000046
:102910000020BCBE0000000034400000BFC91B8E78
:1029200000000004B5400000504BCFD06607E2CF56
:10293000010000006C4100003E8251AADFEEA73486
:1029400001000000D9420000DCB5A0E23A301F9738
:10295000FFFFFFFFB4450000FD25A0C8E9A3C14F5C
:10296000FFFFFFFFFF3F00000000008000000000AD
:10297000FF3F0000000000800000000020002564F0
:1029800000000000D02A0008000000202000000005
:10299000D0010008F02A0008200000206006000096
:1029A000EC0100081C00000043000000F8FFFFFFDE
:1029B0000C0000000E0000000F0000002E000000C0
:1029C0001001000043000000F8FFFFFF00404040FE
:1029D00040404040404041414141414040404040F2
:1029E000404040404040404040404040400502029E
:1029F000020202020202020202020202022020205D
:102A000020202020202020020202020202029090B8
:102A100090909090101010101010101010101010B6
:102A2000101010101010101002020202020288880A
:102A30008888888808080808080808080808080816
:102A400008080808080808080202020240000000FE
:102A50000000000000000000000000000000000076
:102A60000000000000000000000000000000000066
:102A70000000000000000000000000000000000056
:102A80000000000000000000000000000000000046
:102A90000000000000000000000000000000000036
:102AA0000000000000000000000000000000000026
:102AB0000000000000000000000000000000000016
:102AC0000000000000000000000000000000000006
:102AD0000000024000040240000802400100000023
:102AE00002000000040000000000003F01000000A0
:04000005080002E904
:00000001FF
