:020000040800F2
:100000002007002035020008451700086515000884
:1000100041170008E10300081D1A00080000000055
:100020000000000000000000000000004D17000864
:10003000E5030008000000004917000851170008F8
:100040004F0200084F0200084F0200084F0200084C
:100050004F0200084F0200084F0200084F0200083C
:100060004F0200084F0200084F0200084F0200082C
:100070004F0200084F0200084F0200084F0200081C
:100080004F0200084F0200084F0200080000000065
:100090000000000000000000000000004F02000807
:1000A0004F0200084F0200084F0200084F020008EC
:1000B0004F0200084F0200084F0200084F020008DC
:1000C0004F0200084F0200084F0200084F020008CC
:1000D0004F020008111A00084F020008000000003B
:1000E0004F0200084F0200084F0200080000000005
:1000F0000000000000000000000000004F020008A7
:10010000000000004F0200084F0200084F020008E4
:1001100000000000000000000000000000000000DF
:100120004F0200084F0200084F0200084F0200086B
:100130004F02000800000000000000000000000066
:100140000000000000000000000000004F02000856
:100150004F0200084F0200084F0200084F0200083B
:100160004F0200084F0200080000000000000000DD
:10017000000000000000000000000000000000007F
:10018000000000004F020008000000000000000016
:100190004F02000800F002F800F03CF80AA090E8D6
:1001A000000C82448344AAF10107DA4501D100F032
:1001B00031F8AFF2090EBAE80F0013F0010F18BFC3
:1001C000FB1A43F001031847F01B0000101C00004D
:1001D000103A24BF78C878C1FAD8520724BF30C873
:1001E00030C144BF04680C60704700000023002445
:1001F00000250026103A28BF78C1FBD8520728BF37
:1002000030C148BF0B6070471FB501F0B3FD1FBD83
:1002100010B510BD00F0A9F81146FFF7F5FF01F089
:10022000E1FC00F0C7F803B4FFF7F2FF03BC00F0F5
:10023000CFF800000948804709480047FEE7FEE77D
:10024000FEE7FEE7FEE7FEE7FEE7FEE7FEE7FEE786
:1002500004480549054A064B70470000011800088C
:100260009501000820010020200700202003002025
:100270002003002053EA020C00F069802DE9F04BC6
:100280004FF00006002B1FBFB3FA83F503FA05F405
:1002900024FA05F65E4012BF1643B2FA82F502FA5E
:1002A00005F4C5F120051EBF22FA05FC44EA0C0442
:1002B000203556EA044C4FEA144418BF641C4FF032
:1002C00000084FF00009904271EB030C39D300296C
:1002D00019BFB1FA81F701FA07F6B0FA80F700FA10
:1002E00007F6C7F120071EBF20FA07FC46EA0C06F6
:1002F0002037B6FBF4FCA7EB0507103F07F01F0BF8
:10030000CBF120062CFA06F60CFA0BFB44BFB346E1
:100310000026202FA4BF5E464FF0000B5BEA060CC0
:1003200008BF4FF0010B19EB0B0948EB0608ABFBBC
:10033000027C06FB02CC0BFB03CCC01B71EB0C0157
:10034000C1E70B46024641464846BDE8F08B13B56F
:10035000084318BF4FF0FF300146AFF30080BDE8FF
:100360001C407047704770477047754600F02CF886
:10037000AE4605006946534620F00700854618B092
:1003800020B5FFF765FFBDE820404FF000064FF0B5
:1003900000074FF000084FF0000BAC46ACE8C00976
:1003A000ACE8C009ACE8C009ACE8C00921F007011D
:1003B0008D46704710B50446AFF300802046BDE877
:1003C0001040FFF730BF00000048704710000020C9
:1003D00001491820ABBEFEE726000200704700006E
:1003E000FEE700007047000070B5866D044600F01F
:1003F00043F994F83510022928D105462068216C6C
:10040000026822F016020260426922F08002426114
:1004100009B9A16C19B1016821F0080101600168F6
:1004200021F00101016000BF20680068C00715D0FD
:1004300000F022F9401B0628F6D320206065032037
:1004400084F83500002184F8341070BD8020606588
:100450000120002184F8341070BD00BFE06D3F2101
:1004600001FA00F0B060012084F83500002000217E
:1004700084F8341070BD000090F83510022909D1BD
:10048000052180F835100068016821F00101016044
:10049000002070478021416501207047B0B50446B7
:1004A00000F0EAF8054640F20000C2F200000078D1
:1004B000611C18BF044400BF00F0DEF8401BA042DE
:1004C000FAD3B0BD2DE9F04F82B000F13E4241F2C7
:1004D000000502F1FF77C4F20205072243F6004E41
:1004E0004FEAB726A84208BF0422C4F2010E042E28
:1004F00038BF4FEAB7220125002600274FF0000839
:10050000009208E008F101080437B8F1100F06F175
:10051000020600F0A7800C6805FA08F914EA090F32
:10052000F0D0D1F804B003220BF0030CACF10104BD
:10053000B240012C6FEA020A10D88268CC6802EA45
:100540000A02B440224382604268CBF3001422EADC
:10055000090204FA08F42243426005E0BCF1030FEB
:1005600002D14FF0030C20E0C2688C6802EA0A0254
:10057000B4402243BCF1020FC26016D16FF00302F7
:1005800002EA58020244D2F820C007F01C050F23EB
:100590000C69AB402CEA030304FA05F52B43136204
:1005A000D1F804B001250BF0030C02680CFA06F335
:1005B00002EA0A021A431BF4403F0260A2D0002262
:1005C00043F644030192C4F202031A684FF6084C42
:1005D00042F480421A601A68CFF6FF7C02F480422F
:1005E0000192019A28F00302724452F80C3007F08D
:1005F0000C050F24AC40A343009C04FA05F52B43E3
:1006000042F80C30DEF808204B6842EA090543F650
:100610000C4CDC0258BF22EA0905CEF80850C4F29F
:10062000010CDCF800209C0242EA090558BF22EACE
:100630000905CCF80050DEF804209C0342EA0905C5
:1006400058BF22EA0905CEF80450DEF80020DB038B
:1006500042EA090558BF22EA0905CEF800500125F3
:1006600050E700BF02B0BDE8F08F0000002A08BFCD
:10067000090481617047000040F21C10C2F20000C2
:100680000068704740F2000040F21C11C2F2000006
:10069000C2F2000100780A68104408607047000048
:1006A00080B543F60040C4F20200016841F40071D5
:1006B0000160016841F480610160016841F480716A
:1006C0000160032000F08AF8002000F005F800F037
:1006D00027F8002080BD000070B540F20006C2F28D
:1006E000000640F208013278C2F200014FF47A733A
:1006F0000968B3FBF2F20446B1FBF2F1084600F0E0
:1007000045FB0F2C4FF0010508D838B94FF0FF30EA
:1007100021460022002500F035F87460284670BD9F
:1007200082B0002043F640010190C4F202014A6801
:1007300042F480424A604A6802F480420192019A7F
:100740000090086840F080500860086800F0805011
:1007500000900098072002B000F040B8002848BF81
:100760007047C1B200F01F00012202FA00F04EF201
:100770000012CEF2000242EAD10121F0030108602A
:100780007047000010B54EF60C5CCEF2000CDCF8A1
:100790000030C3F3022E8EF00704042C28BF04247B
:1007A000BEF103034FF0FF3E0EFA04F438BF0023FE
:1007B000A14399400EFA03F39A43114300F00F024C
:1007C00000F160430901043A03F5644362440028E0
:1007D00048BF02F10C03197010BD00004EF60C5119
:1007E000CEF200010A684FF6FF031A4060F30A22B6
:1007F00042F0806040F0FD70086070472DE9F041E4
:10080000002800F08B8043F60808C4F20208044672
:10081000D8F8F8030D4600F00700884207D288F8A0
:10082000F853D8F8F80300F00700A84276D1206802
:10083000810717D5410705D5D8F8001041F4E051DC
:10084000C8F80010010705D5D8F8001041F4604140
:10085000C8F80010D8F80010A26821F0F001114388
:10086000C8F80010C0073FD1D8F8F80300F007001F
:10087000A84207D988F8F853D8F8F80300F0070021
:10088000A8424BD12068410707D5D8F80010E2688C
:1008900021F4E0511143C8F80010000708D5D8F83A
:1008A0000000216920F4604040EAC100C8F800005F
:1008B00000F07CF8D8F8001041F68E52C1F3031115
:1008C000C0F60002515C40F2080220FA01F140F249
:1008D0000400C2F200000068C2F200021160FFF7DB
:1008E000FBFE0020BDE8F0816068811E022907D26E
:1008F00058F8081C89015CBF0120BDE8F08111E0B7
:10090000012807D158F8081C89035CBF0120BDE805
:10091000F08107E058F8081C890703D40120BDE8DE
:10092000F08100BFD8F8001021F003010843C8F897
:100930000000FFF7A1FE064641F28837D8F8000014
:10094000616800F00C00B0EB810F8DD0FFF794FED2
:10095000801BB842F2D90320BDE8F08140F20800C4
:1009600043F60801C2F20000C4F2020100680968FF
:1009700041F69E52C1F38221C0F60002515CC8408C
:100980007047000040F2080043F60801C2F2000080
:10099000C4F202010068096841F69E52C1F3423177
:1009A000C0F60002515CC8407047000010B543F625
:1009B0000404C4F20204606800F00C0142F200403A
:1009C0000829C0F2F40007D0042918BF10BD41F275
:1009D0000020C0F27A0010BD216801F03F022168BA
:1009E00023684902C3F3881106D4A1FB0001002348
:1009F000FFF740FC07E000BF41F20020C0F27A00A0
:100A00004843B0FBF2F021680222C1F3014102EB3E
:100A10004101B0FBF1F010BD2DE9F04182B000289A
:100A200068D00446007843F60006C007C4F2020608
:100A30000BD0B06800F00C00042840F09F803068B4
:100A4000800302D56068002854D0207880071AD52A
:100A5000B06810F00C0F09D0B06800F00C00082846
:100A600040F0A6807068400200F1A28030688007E4
:100A700002D5E06801283DD13068216920F0F800F6
:100A800040EAC10030602078000737D42078400762
:100A90004CD4A56955B3B06800F00C00082840F0AC
:100AA000BB80012D26D07068E16900F480028A4283
:100AB00020D1216A00F03F028A421BD147F6C07163
:100AC000626A0140B1EB821F14D1A16A4FF6FF7335
:100AD000C903994300F44032A1F580318A4209D11B
:100AE000E16A00F07060B0EB016F03D1002002B04A
:100AF000BDE8F081012002B0BDE8F0816069002806
:100B000040F20000C4F2472076D00121C0F8801ED8
:100B1000FFF7B2FD054600BF706F8007B6D4FFF740
:100B2000ABFD401B0228F7D9DDE000BF306C10F0B0
:100B300080580AD100200190306C40F08050306421
:100B4000306C00F080500190019847F20007C4F229
:100B500000073868C00541D4386840F480703860B8
:100B6000FFF78AFD054600BF3868C00536D4FFF799
:100B700083FD401B0228F7D9B5E000BFB06800F044
:100B80000C00082803D1706840023FF558AF606838
:100B9000B0F5803F07D0B0F5A02F40F08D803068D1
:100BA00040F480203060306840F4803030608DE068
:100BB000E068002852D00020C4F2472001210160E3
:100BC000FFF75AFD054600BF306880073FF554AF78
:100BD000FFF752FD401B0228F6D984E0A0680128E7
:100BE00005D005284ED1306F40F004003067306FDB
:100BF00040F0010030674FE00021C0F8801EFFF791
:100C00003BFD0546706F80077FF540AFFFF734FD71
:100C1000401B0228F6D966E00027C4F247270020CF
:100C20003866FFF729FD022D05460BD1306880019B
:100C30005ED5FFF721FD401B02284FF00300F5D9D8
:100C400055E700BF306880017FF550AFFFF714FD16
:100C5000401B02284FF00300F4D948E70020C4F2FB
:100C6000472000210160FFF707FD05463068800737
:100C70007FF509AFFFF700FD401B02284FF003008E
:100C8000F4D934E7316F002821F001013167316F69
:100C900021F0040131674DD0FFF7EEFC054641F22B
:100CA000883700BF306F800756D4FFF7E5FC401B44
:100CB000B842F7D917E000BF3168002821F480312D
:100CC0003160316821F4802131604FD0FFF7D4FCCE
:100CD000054600BF306880033FF5B7AEFFF7CCFC98
:100CE000401B6428F6D9032002B0BDE8F08100BFA4
:100CF00004F11C052FCD084340EA8210D9034FF6BA
:100D0000FF729143A1F5803140EA056008437060AD
:100D100001203866FFF7B0FC044600BF3068800150
:100D20003FF5E4AEFFF7A8FC001B02284FF00300DC
:100D3000F4D9DCE6FFF7A0FC054641F2883700BF96
:100D4000306F800708D5FFF797FC401BB8424FF083
:100D50000300F5D9CBE600BFB8F1000F7FF499AEE0
:100D6000306C20F08050306493E600BFFFF784FCC5
:100D7000054600BF306880037FF567AEFFF77CFC57
:100D8000401B64284FF00300F4D9B0E6411E002058
:100D9000B0EB116F1CBF012070474EF21002CEF273
:100DA000000251604EF62351CEF20001F0230B7089
:100DB0000721906011607047704700007047000085
:100DC000B0B582B0044600680168C368426901F0AA
:100DD0002F05202D03F0200506D12DB1204602B0AD
:100DE000BDE8B04000F01CBD5FEA017C1EBF02F010
:100DF000010E03F4907212EB0E0253D1226B012A02
:100E000005D111F0100218BF13F0100236D10A06F6
:100E100022D513F080021FD094F83D1021293FD134
:100E2000A168B1F5805F03D12169002900F07282C9
:100E3000216A4A1C226209784160E18C01390A0466
:100E4000E1842DD1C16821F08001C160C16841F009
:100E50004001C16002B0B0BD490621D513F0400188
:100E60001ED0C16821F04001C1602021204684F8D5
:100E70003D1002B0BDE8B04000F06CBB0021019114
:100E8000016801914168019101994069400613D4BC
:100E9000A08DE18DE28D002A18BF884240F0BE810E
:100EA00002B0B0BDCA0718BF13F4807240F0BA8018
:100EB0004A0700F1BD80C2E0A16B0868426893B2A6
:100EC000002BEDD0A08D8342EAD2E285C969B1F54D
:100ED000807F00F09D80206850E8030F216820F497
:100EE000807041E80302DAB1206850E8030F2168FE
:100EF00020F4807041E8030292B1206850E8030FAB
:100F0000216820F4807041E803024AB1206850E86B
:100F1000030F216820F4807041E80302002ADAD12F
:100F2000206850E8050F216820F0010041E8050223
:100F3000DAB1206850E8050F216820F0010041E88F
:100F4000050292B1206850E8050F216820F00100E9
:100F500041E805024AB1206850E8050F216820F0F9
:100F6000010041E80502002ADAD1206850E8050FA7
:100F7000216820F0400041E80502DAB1206850E81D
:100F8000050F216820F0400041E8050292B1206879
:100F900050E8050F216820F0400041E805024AB101
:100FA000206850E8050F216820F0400041E8050264
:100FB000002ADAD1202084F83E0000202063206837
:100FC00050E8030F216820F0100041E80302DAB175
:100FD000206850E8030F216820F0100041E8030268
:100FE00092B1206850E8030F216820F0100041E81A
:100FF00003024AB1206850E8030F216820F0100076
:1010000041E80302002ADAD1A06BFFF7EDF9A08DC9
:10101000E18D401A81B2204602B0BDE8B040FFF732
:10102000CBBE00BF226C42F0010222644A0706D503
:10103000BEF1000F03D0226C42F0020222648A0744
:1010400006D5BEF1000F03D0226C42F004022264E8
:10105000BCF1000F09D545EA0E02B2FA82F252093C
:1010600003D1226C42F008022264226C002A3FF471
:1010700017AF11F0200118BF002D03D0204600F05B
:10108000CFFB20684069216C00F0400001F00801AE
:10109000401800F0B58000BF206850E8030F2168B9
:1010A00020F4907041E80302BAB3206850E8030FBF
:1010B000216820F4907041E8030272B3206850E880
:1010C000030F216820F4907041E803022AB32068DE
:1010D00050E8030F216820F4907041E80302002AD1
:1010E000DAD11AE0206850E8050F216820F00100ED
:1010F00041E80502DAB1206850E8050F216820F0C8
:10110000010041E8050292B1206850E8050F21680E
:1011100020F0010041E805024AB1206850E8050FBF
:10112000216820F0010041E80502002ADAD1206B95
:10113000012824D1206850E8030F216820F0100016
:1011400041E80302DAB1206850E8030F216820F07B
:10115000100041E8030292B1206850E8030F2168B3
:1011600020F0100041E803024AB1206850E8030F64
:10117000216820F0100041E80302002ADAD1202083
:1011800084F83E00002020632068406940063FD577
:10119000206850E8050F216820F0400041E8050272
:1011A000DAB1206850E8050F216820F0400041E8DE
:1011B000050292B1206850E8050F216820F0400038
:1011C00041E805024AB1206850E8050F216820F087
:1011D000400041E80502002ADAD1A06BC0B141F617
:1011E0001501C0F600010165FFF746F900283FF43C
:1011F00057AEA06B016D02B0BDE8B040084700BF1C
:101200002046FFF7DBFD0020206402B0B0BD00BF28
:10121000204602B0BDE8B040FFF7D0BD401A2168BB
:1012200051E8031F226821F4907142E80313DBB1F7
:10123000216851E8031F226821F4907142E80313EA
:1012400093B1216851E8031F226821F4907142E8AC
:1012500003134BB1216851E8031F226821F49071F8
:1012600042E80313002BDAD1216851E8051F2268F8
:1012700021F0010142E80513DBB1216851E8051FA7
:10128000226821F0010142E8051393B1216851E879
:10129000051F226821F0010142E805134BB12168C6
:1012A00051E8051F226821F0010142E80513002BD7
:1012B000DAD1202184F83E1000212163216851E811
:1012C000031F226821F0100142E80313002B3FF4B2
:1012D000A1AE216851E8031F226821F0100142E805
:1012E0000313002B3FF496AE216851E8031F2268D8
:1012F00021F0100142E80313002B3FF48BAE21686C
:1013000051E8031F226821F0100142E80313002B6B
:10131000D4D17FE6216A31F8022B6FF35F2242605D
:1013200021628AE5002804BF0120704710B50446F9
:1013300090F83D0028B9002084F83C00204600F0D9
:1013400021F8242084F83D002068C16821F4005170
:10135000C160204600F0E4FA2068016921F4904160
:101360000161416921F02A014161C16841F40051E4
:10137000C16000202021206484F83D1084F83E10D4
:1013800010BD000080B586B0006844F20042C4F28F
:10139000000200219042CDE90411CDE90211019132
:1013A00038D041F20001C4F20101884258D1002036
:1013B00043F630010090C4F202014A6942F0100283
:1013C0004A614A6902F010020092009A00900A688D
:1013D00042F001020A60096801F0010100910099E0
:1013E0004FF4C06101910221CDE902100320049065
:1013F000072005900020C4F2020001A9FFF762F85F
:10140000252000210022FFF7BDF92520FFF7A6F9CE
:1014100006B080BD43F630000091C4F202000269BC
:1014200042F400320261026902F400320092009A32
:101430000091026842F001020260006800F00100C1
:10144000009000980C2001900220CDE902010720B5
:10145000059000200491C4F2020001A9FFF732F8C0
:1014600006B080BD90F83E30202B0BD100294FF004
:10147000010318BF002A01D11846704790F83C308C
:10148000012B01D1022070470023036381622221D6
:101490008285C285036480F83E100269016880F885
:1014A0003C301AB1C86840F48070C86048690023B5
:1014B00040F001004861C86840F02000C86018464C
:1014C0007047000070B540F27004C2F20004237847
:1014D000242B21D1A06804F1180500262E5400F019
:1014E00043F8012000F07EF841F6A650C0F6000057
:1014F00000F0BAF8284600F0B7F8206940B10220A1
:1015000000F070F841F6AE50C0F6000000F0ACF804
:10151000C4E9026670BD00BFE06868B1A06801223E
:10152000411C2618A16004F1240021463376BDE851
:101530007040FFF797BF00BFA3F14F00B0FA80F0F3
:10154000400920612069B0FA80F040096061012003
:10155000E06070BD40F27000C2F200000021416006
:1015600070470000FEE700002DE9F0474FF6004607
:1015700040F21844CFF6FF76C4F202044FF400059F
:101580004FF40010A55120604FF480184FF080698F
:101590004FF0807A80270120C4F80080C4F80090C2
:1015A00044F806A0C4F80074FEF778FF0120C4F8E0
:1015B0000054FEF773FF202020600120C4F8008053
:1015C000C4F8009044F806A0C4F80074FEF766FF63
:1015D0000120C4F80054FEF761FF0220BDE8F04787
:1015E000FEF75CBF2DE9F04381B04FF6004640F2B4
:1015F0001844CFF6FF76C4F202044FF400054FF40E
:1016000000184FF480194FF4806101284FF4807066
:10161000A551C4F80080C4F8009008BF4FF0806165
:101620002160A05180270120C4F80074FEF736FF26
:101630000120C4F80054FEF731FF4FF08060C4F879
:101640000080C4F8009020604FF08070A05101200D
:10165000C4F80074FEF722FF0120C4F8005401B062
:10166000BDE8F043FEF71ABF2DE9F04381B00678DC
:10167000002E62D040F218444FF60048C4F2020433
:10168000451ECFF6FF7880274FF400093009C107C7
:101690004FF0200144F8087008BF4FF4001121609A
:1016A00081074FF0100158BF4FF4801140074FF4ED
:1016B0008060216058BF4FF08060206070B2B0F150
:1016C000FF3F4FF48070C8BF4FF0807044F80800AF
:1016D0000120C4F80074FEF7E1FE0120C4F8009474
:1016E000FEF7DCFEF0074FF0200008BF4FF40010BB
:1016F0002060B0074FF0100058BF4FF480102060FA
:1017000070074FF4806058BF4FF080602060300752
:101710004FF4807058BF4FF0807044F808000120EB
:10172000C4F80074FEF7BAFE0120C4F80094FEF776
:10173000B5FEAE780135002EA8D101B0BDE8F0832A
:10174000FEE70000FEE70000704700007047000061
:10175000FEF798BFB0B592B0002443F640000B945A
:10176000CDE90944CDE907440594CDE90344CDE929
:1017700001440094C4F202000168022541F0805146
:101780000160006800F080500090009847F200006F
:101790000094C4F20000016865F38F3101600068B5
:1017A00000F44040009000980120099010200A9019
:1017B0000E904FF4A8700F90042010900720119005
:1017C00006A80695CDE90C54FFF726F920B1EFF3F2
:1017D000108072B6FEE700BF0F20CDE901054FF47F
:1017E0008050CDE9040401A802210394FFF706F814
:1017F00020B1EFF3108072B6FEE700BF12B0B0BDAB
:101800004EF68850CEF20000016841F4700101608C
:1018100070470000806B0021C185C184FFF7CEBAFC
:1018200081B090F83E10222921D183680246B3F599
:10183000805F09D152F8281F52F8183C002B63D062
:1018400003685B680AE000BF52F8281F13B90369F8
:10185000002BF5D003685B6803F07F030B70116801
:1018600001311160C18D01390A04C18502D001B076
:10187000704700BF0168CA6822F02002CA60CA68C7
:1018800022F48072CA604A6922F001024A61202172
:1018900080F83E10016B01293ED10021016300BF99
:1018A000016851E8031F026821F0100142E80313A8
:1018B000DBB1016851E8031F026821F0100142E822
:1018C000031393B1016851E8031F026821F010016E
:1018D00042E803134BB1016851E8031F026821F08D
:1018E000100142E80313002BDAD101680A68D2061E
:1018F00006D5002200920A6800924968009100997A
:10190000818D01B0FFF758BA026852686FF35F2209
:1019100021F8022B8162A5E701B0FFF7D3BD0000DB
:1019200010B504460068D4E902C22369016921F4B4
:10193000405111430161626943EA0C01E3691143BB
:10194000C268194349F20C639A431143C16041696B
:10195000A26921F4407141F20043114340F48062D6
:10196000C4F201039A42416102D1FFF70BF801E092
:10197000FEF7F4FFE16963681922B1F5004FA0FB9F
:10198000020123D15A00DB0FFEF774FC48F21F510D
:10199000C5F2EB11A0FB01235A094FF69C73C0F668
:1019A000FF7303F1805302FB0300322303EBC000FB
:1019B000A0FB01014FF4F87000EA111000EB0210D7
:1019C000C1F3421108442168886010BD9A009B0F42
:1019D000FEF750FC48F21F51C5F2EB11A0FB0123AA
:1019E0005A094FF69C73C0F6FF7302FB03003223C3
:1019F00003EB0010A0FB0101F02000EA511000EB06
:101A00000210C1F3431108442168886010BD000032
:101A100040F29400C2F20000FFF7D2B9FEE70000E6
:101A20002DE9F04F81B040F21844C4F202044FF4A3
:101A300000104FF6004720604FF400104FF4801163
:101A40004FF08068CFF6FF774FF0807A4FF40006B2
:101A500021604FF48011C4F8008044F807A0E651DB
:101A6000C4F8006420601E202160C4F8008044F89F
:101A700007A0FEF713FD0120FEF710FD4FF0200B2D
:101A80001020E651C4F800B020604FF0800901201A
:101A90001025C4F8008044F807A0C4F80094FEF7AD
:101AA000FDFC0520C4F80064FEF7F8FC0120E651B7
:101AB000C4F800B02560C4F8008044F807A0C4F85A
:101AC0000094FEF7EBFC0120C4F80064FEF7E6FC8E
:101AD0000120E651C4F800B025604FF0100BC4F8A7
:101AE000008044F807A0C4F80094FEF7D7FC4FF438
:101AF00000150120C4F80064E6512560C4F800B068
:101B0000C4F8008044F807A0C4F80094FEF7C6FCAF
:101B10001020C4F80064E6512560206001204FF4D5
:101B2000001BC4F8008044F807A0C4F80094FEF736
:101B3000B5FC4FF480154FF48070C4F80064E65192
:101B4000C4F800B02560C4F80080E0510120C4F85A
:101B50000094FEF7A3FC0120C4F80064E651C4F829
:101B600000B025604FF48015C4F8008044F807A049
:101B7000C4F80094FEF792FC4FF48060C4F800644F
:101B8000E651C4F800B0256020604FF48070E05149
:101B90000120C4F80094FEF781FC0120C4F8006421
:101BA000E651C4F800B02560C4F8008044F807A0EE
:101BB000C4F80094FEF772FC1020C4F80064E651EB
:101BC000C4F800B020604FF480602060012044F829
:101BD00007A0C4F80094FEF761FCC4F8006401B0EB
:101BE000BDE8F08F86B040F20008C4F20208FEF7AC
:101BF00057FDFFF7AFFD002443F63000CDE9044464
:101C00000094C4F202000168002241F00401016066
:101C100001684FF4C07901F004010091009900942B
:101C2000016841F080010160016801F080010091CC
:101C300000990094016841F001010160016801F020
:101C40000101009100990094016841F002010160D6
:101C500000684FF4C07100F0020000900098404608
:101C6000FEF704FD08F5806630464FF486610022D9
:101C70004FF4866AFEF7FAFC08F5006B584680219F
:101C80000022FEF7F3FC01254FF4041001AFCDE96B
:101C90000205404639460195FEF714FC4046394698
:101CA000CDE90195CDE90344FEF70CFC30463946F9
:101CB000CDE901A5CDE90344FEF704FC8020CDE980
:101CC000010558463946CDE90344FEF7FBFB40F2D7
:101CD000D800A8F5DE31C2F200004FF416570C26EA
:101CE000C0E90017C0E90244C0E90446C0E906445F
:101CF000FFF718FB20B1EFF3108072B6FEE700BFCC
:101D000040F27005C2F20005A8F57041284640F87F
:101D1000241FC0E90174C0E90344C0E90564C4613B
:101D2000FFF700FB20B1EFF3108072B6FEE700BFB3
:101D300005F1240029460122FFF794FBFFF770FE0E
:101D400005A0FFF791FC0220FFF74CFC05A0FFF770
:101D50008BFC00BFFEE700BF57656C636F6D6520AD
:101D6000546F0000466C617070792053686179612E
:101D70006E000000F1EE100A4FF6FF71C0F2C031A4
:101D800020EA010040F04070E1EE100A70470000C8
:101D9000000000000000010203040607080900001B
:101DA00000000102030453636F72653A200047612B
:101DB0006D65204F76657200D81D00080000002078
:101DC00010000000D0010008E81D000810000020ED
:101DD00010070000EC0100080100000010000000E6
:081DE0000024F40000000000E3
:040000050800019559
:00000001FF
