:020000040800F2
:10000000D80600203502000899160008AD14000833
:1000100095160008E10300087119000800000000AF
:10002000000000000000000000000000A116000811
:10003000E5030008000000009D160008A516000852
:100040004F0200084F0200084F0200084F0200084C
:100050004F0200084F0200084F0200084F0200083C
:100060004F0200084F0200084F0200084F0200082C
:100070004F0200084F0200084F0200084F0200081C
:100080004F0200084F0200084F0200080000000065
:100090000000000000000000000000004F02000807
:1000A0004F0200084F0200084F0200084F020008EC
:1000B0004F0200084F0200084F0200084F020008DC
:1000C0004F0200084F0200084F0200084F020008CC
:1000D0004F0200084F0200086519000800000000E8
:1000E0004F0200084F0200084F0200080000000005
:1000F0000000000000000000000000004F020008A7
:10010000000000004F0200084F0200084F020008E4
:1001100000000000000000000000000000000000DF
:100120004F0200084F0200084F0200084F0200086B
:100130004F02000800000000000000000000000066
:100140000000000000000000000000004F02000856
:100150004F0200084F0200084F0200084F0200083B
:100160004F0200084F0200080000000000000000DD
:10017000000000000000000000000000000000007F
:10018000000000004F020008000000000000000016
:100190004F02000800F002F800F03CF80AA090E8D6
:1001A000000C82448344AAF10107DA4501D100F032
:1001B00031F8AFF2090EBAE80F0013F0010F18BFC3
:1001C000FB1A43F001031847941C0000B41C000004
:1001D000103A24BF78C878C1FAD8520724BF30C873
:1001E00030C144BF04680C60704700000023002445
:1001F00000250026103A28BF78C1FBD8520728BF37
:1002000030C148BF0B6070471FB501F00DFE1FBD28
:1002100010B510BD00F0A9F81146FFF7F5FF01F089
:1002200051FD00F0C7F803B4FFF7F2FF03BC00F084
:10023000CFF800000948804709480047FEE7FEE77D
:10024000FEE7FEE7FEE7FEE7FEE7FEE7FEE7FEE786
:1002500004480549054A064B704700005517000839
:1002600095010008D8000020D8060020D802002000
:10027000D802002053EA020C00F069802DE9F04B0F
:100280004FF00006002B1FBFB3FA83F503FA05F405
:1002900024FA05F65E4012BF1643B2FA82F502FA5E
:1002A00005F4C5F120051EBF22FA05FC44EA0C0442
:1002B000203556EA044C4FEA144418BF641C4FF032
:1002C00000084FF00009904271EB030C39D300296C
:1002D00019BFB1FA81F701FA07F6B0FA80F700FA10
:1002E00007F6C7F120071EBF20FA07FC46EA0C06F6
:1002F0002037B6FBF4FCA7EB0507103F07F01F0BF8
:10030000CBF120062CFA06F60CFA0BFB44BFB346E1
:100310000026202FA4BF5E464FF0000B5BEA060CC0
:1003200008BF4FF0010B19EB0B0948EB0608ABFBBC
:10033000027C06FB02CC0BFB03CCC01B71EB0C0157
:10034000C1E70B46024641464846BDE8F08B13B56F
:10035000084318BF4FF0FF300146AFF30080BDE8FF
:100360001C407047704770477047754600F02CF886
:10037000AE4605006946534620F00700854618B092
:1003800020B5FFF765FFBDE820404FF000064FF0B5
:1003900000074FF000084FF0000BAC46ACE8C00976
:1003A000ACE8C009ACE8C009ACE8C00921F007011D
:1003B0008D46704710B50446AFF300802046BDE877
:1003C0001040FFF730BF00000048704710000020C9
:1003D00001491820ABBEFEE726000200704700006E
:1003E000FEE700007047000070B5866D044600F01F
:1003F00043F994F83510022928D105462068216C6C
:10040000026822F016020260426922F08002426114
:1004100009B9A16C19B1016821F0080101600168F6
:1004200021F00101016000BF20680068C00715D0FD
:1004300000F022F9401B0628F6D320206065032037
:1004400084F83500002184F8341070BD8020606588
:100450000120002184F8341070BD00BFE06D3F2101
:1004600001FA00F0B060012084F83500002000217E
:1004700084F8341070BD000090F83510022909D1BD
:10048000052180F835100068016821F00101016044
:10049000002070478021416501207047B0B50446B7
:1004A00000F0EAF8054640F20000C2F200000078D1
:1004B000611C18BF044400BF00F0DEF8401BA042DE
:1004C000FAD3B0BD2DE9F04F82B000F13E4241F2C7
:1004D000000502F1FF77C4F20205072243F6004E41
:1004E0004FEAB726A84208BF0422C4F2010E042E28
:1004F00038BF4FEAB7220125002600274FF0000839
:10050000009208E008F101080437B8F1100F06F175
:10051000020600F0A7800C6805FA08F914EA090F32
:10052000F0D0D1F804B003220BF0030CACF10104BD
:10053000B240012C6FEA020A10D88268CC6802EA45
:100540000A02B440224382604268CBF3001422EADC
:10055000090204FA08F42243426005E0BCF1030FEB
:1005600002D14FF0030C20E0C2688C6802EA0A0254
:10057000B4402243BCF1020FC26016D16FF00302F7
:1005800002EA58020244D2F820C007F01C050F23EB
:100590000C69AB402CEA030304FA05F52B43136204
:1005A000D1F804B001250BF0030C02680CFA06F335
:1005B00002EA0A021A431BF4403F0260A2D0002262
:1005C00043F644030192C4F202031A684FF6084C42
:1005D00042F480421A601A68CFF6FF7C02F480422F
:1005E0000192019A28F00302724452F80C3007F08D
:1005F0000C050F24AC40A343009C04FA05F52B43E3
:1006000042F80C30DEF808204B6842EA090543F650
:100610000C4CDC0258BF22EA0905CEF80850C4F29F
:10062000010CDCF800209C0242EA090558BF22EACE
:100630000905CCF80050DEF804209C0342EA0905C5
:1006400058BF22EA0905CEF80450DEF80020DB038B
:1006500042EA090558BF22EA0905CEF800500125F3
:1006600050E700BF02B0BDE8F08F0000002A08BFCD
:10067000090481617047000040F2D000C2F200001E
:100680000068704740F2000040F2D001C2F2000062
:10069000C2F2000100780A68104408607047000048
:1006A00080B543F60040C4F20200016841F40071D5
:1006B0000160016841F480610160016841F480716A
:1006C0000160032000F08AF8002000F005F800F037
:1006D00027F8002080BD000070B540F20006C2F28D
:1006E000000640F208013278C2F200014FF47A733A
:1006F0000968B3FBF2F20446B1FBF2F1084600F0E0
:1007000045FB0F2C4FF0010508D838B94FF0FF30EA
:1007100021460022002500F035F87460284670BD9F
:1007200082B0002043F640010190C4F202014A6801
:1007300042F480424A604A6802F480420192019A7F
:100740000090086840F080500860086800F0805011
:1007500000900098072002B000F040B8002848BF81
:100760007047C1B200F01F00012202FA00F04EF201
:100770000012CEF2000242EAD10121F0030108602A
:100780007047000010B54EF60C5CCEF2000CDCF8A1
:100790000030C3F3022E8EF00704042C28BF04247B
:1007A000BEF103034FF0FF3E0EFA04F438BF0023FE
:1007B000A14399400EFA03F39A43114300F00F024C
:1007C00000F160430901043A03F5644362440028E0
:1007D00048BF02F10C03197010BD00004EF60C5119
:1007E000CEF200010A684FF6FF031A4060F30A22B6
:1007F00042F0806040F0FD70086070472DE9F041E4
:10080000002800F08B8043F60808C4F20208044672
:10081000D8F8F8030D4600F00700884207D288F8A0
:10082000F853D8F8F80300F00700A84276D1206802
:10083000810717D5410705D5D8F8001041F4E051DC
:10084000C8F80010010705D5D8F8001041F4604140
:10085000C8F80010D8F80010A26821F0F001114388
:10086000C8F80010C0073FD1D8F8F80300F007001F
:10087000A84207D988F8F853D8F8F80300F0070021
:10088000A8424BD12068410707D5D8F80010E2688C
:1008900021F4E0511143C8F80010000708D5D8F83A
:1008A0000000216920F4604040EAC100C8F800005F
:1008B00000F07CF8D8F8001041F64262C1F3031151
:1008C000C0F60002515C40F2080220FA01F140F249
:1008D0000400C2F200000068C2F200021160FFF7DB
:1008E000FBFE0020BDE8F0816068811E022907D26E
:1008F00058F8081C89015CBF0120BDE8F08111E0B7
:10090000012807D158F8081C89035CBF0120BDE805
:10091000F08107E058F8081C890703D40120BDE8DE
:10092000F08100BFD8F8001021F003010843C8F897
:100930000000FFF7A1FE064641F28837D8F8000014
:10094000616800F00C00B0EB810F8DD0FFF794FED2
:10095000801BB842F2D90320BDE8F08140F20800C4
:1009600043F60801C2F20000C4F2020100680968FF
:1009700041F65262C1F38221C0F60002515CC840C8
:100980007047000040F2080043F60801C2F2000080
:10099000C4F202010068096841F65262C1F34231B3
:1009A000C0F60002515CC8407047000010B543F625
:1009B0000404C4F20204606800F00C0142F200403A
:1009C0000829C0F2F40007D0042918BF10BD41F275
:1009D0000020C0F27A0010BD216801F03F022168BA
:1009E00023684902C3F3881106D4A1FB0001002348
:1009F000FFF740FC07E000BF41F20020C0F27A00A0
:100A00004843B0FBF2F021680222C1F3014102EB3E
:100A10004101B0FBF1F010BD2DE9F04182B000289A
:100A200068D00446007843F60006C007C4F2020608
:100A30000BD0B06800F00C00042840F09F803068B4
:100A4000800302D56068002854D0207880071AD52A
:100A5000B06810F00C0F09D0B06800F00C00082846
:100A600040F0A6807068400200F1A28030688007E4
:100A700002D5E06801283DD13068216920F0F800F6
:100A800040EAC10030602078000737D42078400762
:100A90004CD4A56955B3B06800F00C00082840F0AC
:100AA000BB80012D26D07068E16900F480028A4283
:100AB00020D1216A00F03F028A421BD147F6C07163
:100AC000626A0140B1EB821F14D1A16A4FF6FF7335
:100AD000C903994300F44032A1F580318A4209D11B
:100AE000E16A00F07060B0EB016F03D1002002B04A
:100AF000BDE8F081012002B0BDE8F0816069002806
:100B000040F20000C4F2472076D00121C0F8801ED8
:100B1000FFF7B2FD054600BF706F8007B6D4FFF740
:100B2000ABFD401B0228F7D9DDE000BF306C10F0B0
:100B300080580AD100200190306C40F08050306421
:100B4000306C00F080500190019847F20007C4F229
:100B500000073868C00541D4386840F480703860B8
:100B6000FFF78AFD054600BF3868C00536D4FFF799
:100B700083FD401B0228F7D9B5E000BFB06800F044
:100B80000C00082803D1706840023FF558AF606838
:100B9000B0F5803F07D0B0F5A02F40F08D803068D1
:100BA00040F480203060306840F4803030608DE068
:100BB000E068002852D00020C4F2472001210160E3
:100BC000FFF75AFD054600BF306880073FF554AF78
:100BD000FFF752FD401B0228F6D984E0A0680128E7
:100BE00005D005284ED1306F40F004003067306FDB
:100BF00040F0010030674FE00021C0F8801EFFF791
:100C00003BFD0546706F80077FF540AFFFF734FD71
:100C1000401B0228F6D966E00027C4F247270020CF
:100C20003866FFF729FD022D05460BD1306880019B
:100C30005ED5FFF721FD401B02284FF00300F5D9D8
:100C400055E700BF306880017FF550AFFFF714FD16
:100C5000401B02284FF00300F4D948E70020C4F2FB
:100C6000472000210160FFF707FD05463068800737
:100C70007FF509AFFFF700FD401B02284FF003008E
:100C8000F4D934E7316F002821F001013167316F69
:100C900021F0040131674DD0FFF7EEFC054641F22B
:100CA000883700BF306F800756D4FFF7E5FC401B44
:100CB000B842F7D917E000BF3168002821F480312D
:100CC0003160316821F4802131604FD0FFF7D4FCCE
:100CD000054600BF306880033FF5B7AEFFF7CCFC98
:100CE000401B6428F6D9032002B0BDE8F08100BFA4
:100CF00004F11C052FCD084340EA8210D9034FF6BA
:100D0000FF729143A1F5803140EA056008437060AD
:100D100001203866FFF7B0FC044600BF3068800150
:100D20003FF5E4AEFFF7A8FC001B02284FF00300DC
:100D3000F4D9DCE6FFF7A0FC054641F2883700BF96
:100D4000306F800708D5FFF797FC401BB8424FF083
:100D50000300F5D9CBE600BFB8F1000F7FF499AEE0
:100D6000306C20F08050306493E600BFFFF784FCC5
:100D7000054600BF306880037FF567AEFFF77CFC57
:100D8000401B64284FF00300F4D9B0E6411E002058
:100D9000B0EB116F1CBF012070474EF21002CEF273
:100DA000000251604EF62351CEF20001F0230B7089
:100DB0000721906011607047704700007047000085
:100DC000B0B582B0044600680168C368426901F0AA
:100DD0002F05202D03F0200506D12DB1204602B0AD
:100DE000BDE8B04000F0C6BC5FEA017C1EBF02F067
:100DF000010E03F4907212EB0E0253D1226B012A02
:100E000005D111F0100218BF13F0100236D10A06F6
:100E100022D513F080021FD094F83D1021293FD134
:100E2000A168B1F5805F03D12169002900F07282C9
:100E3000216A4A1C226209784160E18C01390A0466
:100E4000E1842DD1C16821F08001C160C16841F009
:100E50004001C16002B0B0BD490621D513F0400188
:100E60001ED0C16821F04001C1602021204684F8D5
:100E70003D1002B0BDE8B04000F010BB0021019170
:100E8000016801914168019101994069400613D4BC
:100E9000A08DE18DE28D002A18BF884240F0BE810E
:100EA00002B0B0BDCA0718BF13F4807240F0BA8018
:100EB0004A0700F1BD80C2E0A16B0868426893B2A6
:100EC000002BEDD0A08D8342EAD2E285C969B1F54D
:100ED000807F00F09D80206850E8030F216820F497
:100EE000807041E80302DAB1206850E8030F2168FE
:100EF00020F4807041E8030292B1206850E8030FAB
:100F0000216820F4807041E803024AB1206850E86B
:100F1000030F216820F4807041E80302002ADAD12F
:100F2000206850E8050F216820F0010041E8050223
:100F3000DAB1206850E8050F216820F0010041E88F
:100F4000050292B1206850E8050F216820F00100E9
:100F500041E805024AB1206850E8050F216820F0F9
:100F6000010041E80502002ADAD1206850E8050FA7
:100F7000216820F0400041E80502DAB1206850E81D
:100F8000050F216820F0400041E8050292B1206879
:100F900050E8050F216820F0400041E805024AB101
:100FA000206850E8050F216820F0400041E8050264
:100FB000002ADAD1202084F83E0000202063206837
:100FC00050E8030F216820F0100041E80302DAB175
:100FD000206850E8030F216820F0100041E8030268
:100FE00092B1206850E8030F216820F0100041E81A
:100FF00003024AB1206850E8030F216820F0100076
:1010000041E80302002ADAD1A06BFFF7EDF9A08DC9
:10101000E18D401A81B2204602B0BDE8B040FFF732
:10102000CBBE00BF226C42F0010222644A0706D503
:10103000BEF1000F03D0226C42F0020222648A0744
:1010400006D5BEF1000F03D0226C42F004022264E8
:10105000BCF1000F09D545EA0E02B2FA82F252093C
:1010600003D1226C42F008022264226C002A3FF471
:1010700017AF11F0200118BF002D03D0204600F05B
:1010800079FB20684069216C00F0400001F0080104
:10109000401800F0B58000BF206850E8030F2168B9
:1010A00020F4907041E80302BAB3206850E8030FBF
:1010B000216820F4907041E8030272B3206850E880
:1010C000030F216820F4907041E803022AB32068DE
:1010D00050E8030F216820F4907041E80302002AD1
:1010E000DAD11AE0206850E8050F216820F00100ED
:1010F00041E80502DAB1206850E8050F216820F0C8
:10110000010041E8050292B1206850E8050F21680E
:1011100020F0010041E805024AB1206850E8050FBF
:10112000216820F0010041E80502002ADAD1206B95
:10113000012824D1206850E8030F216820F0100016
:1011400041E80302DAB1206850E8030F216820F07B
:10115000100041E8030292B1206850E8030F2168B3
:1011600020F0100041E803024AB1206850E8030F64
:10117000216820F0100041E80302002ADAD1202083
:1011800084F83E00002020632068406940063FD577
:10119000206850E8050F216820F0400041E8050272
:1011A000DAB1206850E8050F216820F0400041E8DE
:1011B000050292B1206850E8050F216820F0400038
:1011C00041E805024AB1206850E8050F216820F087
:1011D000400041E80502002ADAD1A06BC0B141F21B
:1011E0006971C0F600010165FFF746F900283FF478
:1011F00057AEA06B016D02B0BDE8B040084700BF1C
:101200002046FFF7DBFD0020206402B0B0BD00BF28
:10121000204602B0BDE8B040FFF7D0BD401A2168BB
:1012200051E8031F226821F4907142E80313DBB1F7
:10123000216851E8031F226821F4907142E80313EA
:1012400093B1216851E8031F226821F4907142E8AC
:1012500003134BB1216851E8031F226821F49071F8
:1012600042E80313002BDAD1216851E8051F2268F8
:1012700021F0010142E80513DBB1216851E8051FA7
:10128000226821F0010142E8051393B1216851E879
:10129000051F226821F0010142E805134BB12168C6
:1012A00051E8051F226821F0010142E80513002BD7
:1012B000DAD1202184F83E1000212163216851E811
:1012C000031F226821F0100142E80313002B3FF4B2
:1012D000A1AE216851E8031F226821F0100142E805
:1012E0000313002B3FF496AE216851E8031F2268D8
:1012F00021F0100142E80313002B3FF48BAE21686C
:1013000051E8031F226821F0100142E80313002B6B
:10131000D4D17FE6216A31F8022B6FF35F2242605D
:1013200021628AE5002804BF0120704710B50446F9
:1013300090F83D0028B9002084F83C00204600F0D9
:1013400021F8242084F83D002068C16821F4005170
:10135000C160204600F08EFA2068016921F49041B6
:101360000161416921F02A014161C16841F40051E4
:10137000C16000202021206484F83D1084F83E10D4
:1013800010BD000080B586B0016844F20040C4F290
:101390000000814202D006B080BD00BF002143F6AC
:1013A00030020191C4F20202136900F5DE3043F409
:1013B00000331361136903F400330193019B01911E
:1013C000136843F001031360126802F001020192F6
:1013D000019A0C2201920222CDE9022104910721F7
:1013E000059101A9FFF76EF8262000210022FFF7E2
:1013F000C9F92620FFF7B2F906B080BD90F83E305B
:10140000202B0BD100294FF0010318BF002A01D176
:101410001846704790F83C30012B01D102207047EC
:1014200000230363816222218285C285036480F8E0
:101430003E100269016880F83C301AB1C86840F477
:101440008070C8604869002340F001004861C868A6
:1014500040F02000C86018467047000010B540F208
:101460007004C2F2000420784F38B0FA80F04009CE
:10147000E060E068B0FA80F040092061E06810B9EF
:10148000A0680130A06000F075FA04F11C0021464C
:101490000122BDE81040FFF7B1BF000040F270002C
:1014A000C2F200000021416070470000FEE700002A
:1014B0002DE9F0474FF6004540F21844CFF6FF758E
:1014C000C4F202044FF0007060514FF4001020602D
:1014D0004FF480184FF080694FF0807A8027012008
:1014E000C4F80080C4F8009044F805A0C4F8007463
:1014F000FEF7D4FF4FF400060120C4F80064FEF7A5
:10150000CDFF202020600120C4F80080C4F80090A6
:1015100044F805A0C4F80074FEF7C0FF0120C4F829
:101520000064FEF7BBFF0220BDE8F047FEF7B6BF40
:101530002DE9F04381B04FF6004540F21844CFF654
:10154000FF75C4F202044FF0007161514FF40018AE
:101550004FF480194FF4806101284FF48070C4F873
:101560000080C4F8009008BF4FF080612160605196
:1015700080260120C4F80064FEF790FF4FF40007B6
:101580000120C4F80074FEF789FF4FF08060C4F8B2
:101590000080C4F8009020604FF0807060510120FE
:1015A000C4F80064FEF77AFF0120C4F8007401B0AB
:1015B000BDE8F043FEF772BF2DE9F0470778002F32
:1015C00008BFBDE8F08740F218444FF60046C4F269
:1015D0000204451ECFF6FF764FF400784FF08009E5
:1015E0004FF4000A3809C1074FF0200144F8068083
:1015F00008BF4FF40011216081074FF0100158BF60
:101600004FF4801140074FF48060216058BF4FF0C5
:101610008060206078B2B0F1FF3F4FF48070C8BFA7
:101620004FF08070A0510120C4F80094FEF736FFFF
:101630000120C4F800A4FEF731FFF8074FF02000A6
:1016400008BF4FF400102060B8074FF0100058BFDB
:101650004FF48010206078074FF4806058BF4FF03F
:101660008060206038074FF4807058BF4FF0807062
:10167000A0510120C4F80094FEF710FF0120C4F827
:1016800000A4FEF70BFFAF780135002FAAD1BDE80B
:10169000F0870000FEE70000FEE700007047000052
:1016A00070470000FEF7EEBFB0B592B0002443F6DD
:1016B00040000B94CDE90944CDE907440594CDE9F8
:1016C0000344CDE901440094C4F2020001680225FC
:1016D00041F080510160006800F080500090009857
:1016E00047F200000094C4F20000016865F38F31F6
:1016F0000160006800F440400090009801200990CB
:1017000010200A900E904FF4A8700F9004201090B3
:101710000720119006A80695CDE90C54FFF77CF937
:1017200020B1EFF3108072B6FEE700BF0F20CDE9C5
:1017300001054FF48050CDE9040401A8022103946F
:10174000FFF75CF820B1EFF3108072B6FEE700BF40
:1017500012B0B0BD4EF68850CEF20000016841F4E0
:101760007001016070470000806B0021C185C18459
:10177000FFF724BB81B090F83E10222921D1836865
:101780000246B3F5805F09D152F8281F52F8183C81
:10179000002B63D003685B680AE000BF52F8281F83
:1017A00013B90369002BF5D003685B6803F07F036E
:1017B0000B70116801311160C18D01390A04C185B6
:1017C00002D001B0704700BF0168CA6822F0200251
:1017D000CA60CA6822F48072CA604A6922F00102B3
:1017E0004A61202180F83E10016B01293ED1002181
:1017F000016300BF016851E8031F026821F0100176
:1018000042E80313DBB1016851E8031F026821F0CD
:10181000100142E8031393B1016851E8031F026805
:1018200021F0100142E803134BB1016851E8031F96
:10183000026821F0100142E80313002BDAD101689D
:101840000A68D20606D5002200920A68009249680A
:1018500000910099818D01B0FFF7AEBA026852681D
:101860006FF35F2221F8022B8162A5E701B0FFF739
:10187000F5BD000010B504460068D4E902C2236932
:10188000016921F4405111430161626943EA0C018D
:10189000E3691143C268194349F20C639A43114347
:1018A000C1604169A26921F4407141F200431143D2
:1018B00040F48062C4F201039A42416102D1FFF711
:1018C00061F801E0FFF74AF8E16963681922B1F5B0
:1018D000004FA0FB020123D15A00DB0FFEF7CAFC28
:1018E00048F21F51C5F2EB11A0FB01235A094FF634
:1018F0009C73C0F6FF7303F1805302FB0300322395
:1019000003EBC000A0FB01014FF4F87000EA1110D6
:1019100000EB0210C1F3421108442168886010BD39
:101920009A009B0FFEF7A6FC48F21F51C5F2EB117F
:10193000A0FB01235A094FF69C73C0F6FF7302FB0C
:101940000300322303EB0010A0FB0101F02000EAAA
:10195000511000EB0210C1F3431108442168886064
:1019600010BD000040F28C00C2F20000FFF728BA60
:10197000FEE700002DE9F04184B040F27008C2F2A9
:101980000008D8F80860BEB346F2676148F21F52FB
:1019900044F6D35C48F6AD340325C6F26661C5F261
:1019A000EB12C1F2620CC6F6DB04304600F1090707
:1019B000132F25D350FB01F7BB1003EBD77309336B
:1019C000132B1FD350FB02F35F1107EBD3730933C3
:1019D000132B18D350FB0CF39F1107EBD37350FB61
:1019E00004F00713093307EBD070132B05F104053E
:1019F000DCD2033D07E000BF3020ADF8060056E022
:101A0000023D00E0013D0DF106000544002005F80F
:101A1000020900BF56FB01F0831003EBD07006F102
:101A20000903132B00EB8003A6EB430303F1300300
:101A30006B703CD350FB01F39F0807EBD37303EBB0
:101A40008303A0EB43030930303313282B702ED3CC
:101A500056FB02F0431103EBD07050FB01F39F08DB
:101A600007EBD37303EB8303A0EB4303093030335D
:101A7000132805F8013C1AD356FB0CF0831103EB35
:101A8000D07050FB01F39F0807EBD37303EB830384
:101A9000A0EB4303303305F8023C56FB04F31F135D
:101AA000093007EBD3761228A5F10405B2D8FFF769
:101AB000FFFC0120FFF73CFD09A0FFF77DFD0DF1C4
:101AC0000600FFF779FDD8F80C0028B10220FFF7D7
:101AD0002FFD05A0FFF770FD04B0BDE8F08100BF49
:101AE00053636F72653A200047616D65204F7665DC
:101AF000720000002DE9F04F81B040F21844C4F2AA
:101B000002044FF400104FF480114FF6004720609C
:101B10004FF4001021604FF0806BCFF6FF774FF04D
:101B200080714FF000754FF400094FF48012C4F833
:101B300000B0E151E551C4F8009420601E202260FD
:101B4000C4F800B0E1514FF08076FEF7A7FC012009
:101B5000FEF7A4FC4FF020081020E551C4F80080E7
:101B600020604FF0800A0120C4F800B0E6514FF029
:101B70008076C4F800A4FEF791FC0520C4F8009418
:101B8000FEF78CFC1020E551C4F800802060012095
:101B9000C4F800B0E651C4F800A4FEF77FFC0120B1
:101BA000C4F80094FEF77AFC1020E551C4F80080D8
:101BB00020600120C4F800B0E6514FF08078C4F8EE
:101BC00000A4FEF76BFC4FF400161020C4F800943C
:101BD000E551266020600120C4F800B044F8078079
:101BE000C4F800A4FEF75AFC1020C4F80094E55194
:101BF000266020604FF08070C4F800B0E0510120F2
:101C00004FF40018C4F800A4FEF748FC4FF4801607
:101C10004FF48070C4F80094E551C4F80080266049
:101C2000C4F800B0E0510120C4F800A4FEF736FC6F
:101C30004FF08070C4F80094E551C4F8008026602D
:101C4000C4F800B0E05101204FF48016C4F800A49D
:101C5000FEF724FC4FF48060C4F80094E551C4F80A
:101C60000080266020604FF48070E0510120C4F8AD
:101C700000A4FEF713FC4FF08070C4F80094E55107
:101C8000C4F800802660C4F800B0E05101204FF095
:101C90008076C4F800A4FEF701FC1020C4F800947C
:101CA000E551C4F8008020604FF48060206001207E
:101CB000E651C4F800A4FEF7F1FBC4F8009401B0AB
:101CC000BDE8F08F86B0FEF7EBFCFFF7EDFC0024DB
:101CD00043F63000CDE904440094C4F202000168E8
:101CE00040F2000841F0040101600168C4F20208FA
:101CF00001F004010091009900940168002241F074
:101D00008001016001684FF4607901F08001009169
:101D100000990094016841F001010160016801F03F
:101D20000101009100990094016841F002010160F5
:101D300000684FF4607100F0020000900098404687
:101D4000FEF794FC08F5806630464FF48661002269
:101D50004FF4866AFEF78AFC08F5006B584680212E
:101D60000022FEF783FC01254FF4041001AFCDE9FA
:101D70000205404639460195FEF7A4FB4046394628
:101D8000CDE90195CDE90344FEF79CFB3046394689
:101D9000CDE901A5CDE90344FEF794FB8020CDE910
:101DA000010558463946CDE90344FEF78BFB40F266
:101DB0007005C2F20005A8F5DE31284640F81C1F68
:101DC0004FF416510C22C0E90114C0E90344C0E9E4
:101DD0000524C461FFF7A6FA20B1EFF3108072B6B4
:101DE000FEE700BF05F11C0029460122FFF706FBB4
:101DF000FFF780FE05A0FFF7DFFB0220FFF798FB4F
:101E000005A0FFF7D9FB00BFFEE700BF57656C6375
:101E10006F6D6520546F0000466C617070792053BF
:101E2000686179616E000000F1EE100A4FF6FF71F3
:101E3000C0F2C03120EA010040F04070E1EE100A2B
:101E400070470000000000000000010203040607C4
:101E5000080900000000010203040000801E0008C1
:101E60000000002010000000D0010008901E0008B3
:101E700010000020C8060000EC010008000000006F
:101E800001000000100000000024F4000000000029
:040000050800019559
:00000001FF
